{
  "contractName": "Election",
  "abi": [
    {
      "constant": true,
      "inputs": [],
      "name": "votingStartDate",
      "outputs": [
        {
          "name": "",
          "type": "uint256"
        }
      ],
      "payable": false,
      "stateMutability": "view",
      "type": "function"
    },
    {
      "constant": true,
      "inputs": [
        {
          "name": "",
          "type": "uint256"
        }
      ],
      "name": "candidates",
      "outputs": [
        {
          "name": "id",
          "type": "uint256"
        },
        {
          "name": "name",
          "type": "string"
        },
        {
          "name": "agenda",
          "type": "string"
        },
        {
          "name": "counter",
          "type": "uint256"
        }
      ],
      "payable": false,
      "stateMutability": "view",
      "type": "function"
    },
    {
      "constant": true,
      "inputs": [],
      "name": "votingEndDate",
      "outputs": [
        {
          "name": "",
          "type": "uint256"
        }
      ],
      "payable": false,
      "stateMutability": "view",
      "type": "function"
    },
    {
      "constant": true,
      "inputs": [],
      "name": "numberOfVoters",
      "outputs": [
        {
          "name": "",
          "type": "uint256"
        }
      ],
      "payable": false,
      "stateMutability": "view",
      "type": "function"
    },
    {
      "constant": true,
      "inputs": [],
      "name": "numberOfCandidates",
      "outputs": [
        {
          "name": "",
          "type": "uint256"
        }
      ],
      "payable": false,
      "stateMutability": "view",
      "type": "function"
    },
    {
      "constant": true,
      "inputs": [
        {
          "name": "",
          "type": "address"
        }
      ],
      "name": "voters",
      "outputs": [
        {
          "name": "",
          "type": "uint256"
        }
      ],
      "payable": false,
      "stateMutability": "view",
      "type": "function"
    },
    {
      "constant": true,
      "inputs": [],
      "name": "isVotingDatesConfigured",
      "outputs": [
        {
          "name": "",
          "type": "bool"
        }
      ],
      "payable": false,
      "stateMutability": "view",
      "type": "function"
    },
    {
      "constant": true,
      "inputs": [],
      "name": "admin",
      "outputs": [
        {
          "name": "",
          "type": "address"
        }
      ],
      "payable": false,
      "stateMutability": "view",
      "type": "function"
    },
    {
      "inputs": [],
      "payable": false,
      "stateMutability": "nonpayable",
      "type": "constructor"
    },
    {
      "anonymous": false,
      "inputs": [
        {
          "indexed": true,
          "name": "_candidateId",
          "type": "uint256"
        }
      ],
      "name": "votingEvent",
      "type": "event"
    },
    {
      "anonymous": false,
      "inputs": [
        {
          "indexed": true,
          "name": "_candidateId",
          "type": "uint256"
        }
      ],
      "name": "candidateEvent",
      "type": "event"
    },
    {
      "anonymous": false,
      "inputs": [],
      "name": "addVoterEvent",
      "type": "event"
    },
    {
      "anonymous": false,
      "inputs": [],
      "name": "adminSwitchEvent",
      "type": "event"
    },
    {
      "constant": false,
      "inputs": [
        {
          "name": "_checkAdmin",
          "type": "address"
        }
      ],
      "name": "isAdmin",
      "outputs": [
        {
          "name": "TF",
          "type": "bool"
        }
      ],
      "payable": false,
      "stateMutability": "nonpayable",
      "type": "function"
    },
    {
      "constant": false,
      "inputs": [
        {
          "name": "_name",
          "type": "string"
        },
        {
          "name": "_agenda",
          "type": "string"
        }
      ],
      "name": "addingCandidate",
      "outputs": [],
      "payable": false,
      "stateMutability": "nonpayable",
      "type": "function"
    },
    {
      "constant": false,
      "inputs": [
        {
          "name": "_startDate",
          "type": "uint256"
        },
        {
          "name": "_endDate",
          "type": "uint256"
        }
      ],
      "name": "defineVotingDates",
      "outputs": [],
      "payable": false,
      "stateMutability": "nonpayable",
      "type": "function"
    },
    {
      "constant": false,
      "inputs": [
        {
          "name": "_candidateId",
          "type": "uint256"
        }
      ],
      "name": "vote",
      "outputs": [],
      "payable": false,
      "stateMutability": "nonpayable",
      "type": "function"
    },
    {
      "constant": false,
      "inputs": [
        {
          "name": "_voters",
          "type": "address[]"
        }
      ],
      "name": "addVoters",
      "outputs": [],
      "payable": false,
      "stateMutability": "nonpayable",
      "type": "function"
    },
    {
      "constant": false,
      "inputs": [],
      "name": "voterStatus",
      "outputs": [
        {
          "name": "status",
          "type": "uint256"
        }
      ],
      "payable": false,
      "stateMutability": "nonpayable",
      "type": "function"
    },
    {
      "constant": false,
      "inputs": [],
      "name": "endVoting",
      "outputs": [
        {
          "name": "index",
          "type": "bool"
        }
      ],
      "payable": false,
      "stateMutability": "nonpayable",
      "type": "function"
    },
    {
      "constant": false,
      "inputs": [
        {
          "name": "_admin",
          "type": "address"
        }
      ],
      "name": "setAdmin",
      "outputs": [],
      "payable": false,
      "stateMutability": "nonpayable",
      "type": "function"
    }
  ],
  "bytecode": "0x608060405234801561001057600080fd5b5033600260006101000a81548173ffffffffffffffffffffffffffffffffffffffff021916908373ffffffffffffffffffffffffffffffffffffffff160217905550600060038190555060016004819055506000600660006101000a81548160ff02191690831515021790555061141f8061008c6000396000f3fe6080604052600436106100e6576000357c0100000000000000000000000000000000000000000000000000000000900463ffffffff1680630121b93f146100eb57806317125466146101265780631f43498f1461015157806324d7806c146102b05780633477ee2e1461031957806353981fe114610447578063704b6c02146104725780638203373a146104c3578063908ea91d146105885780639bcc3361146105b35780639c84bb27146105de578063a3ec138d14610609578063baf5d31a1461066e578063c3403ddf1461069d578063c74e9b77146106cc578063f851a44014610711575b600080fd5b3480156100f757600080fd5b506101246004803603602081101561010e57600080fd5b8101908080359060200190929190505050610768565b005b34801561013257600080fd5b5061013b6109a9565b6040518082815260200191505060405180910390f35b34801561015d57600080fd5b506102ae6004803603604081101561017457600080fd5b810190808035906020019064010000000081111561019157600080fd5b8201836020820111156101a357600080fd5b803590602001918460018302840111640100000000831117156101c557600080fd5b91908080601f016020809104026020016040519081016040528093929190818152602001838380828437600081840152601f19601f8201169050808301925050505050505091929192908035906020019064010000000081111561022857600080fd5b82018360208201111561023a57600080fd5b8035906020019184600183028401116401000000008311171561025c57600080fd5b91908080601f016020809104026020016040519081016040528093929190818152602001838380828437600081840152601f19601f8201169050808301925050505050505091929192905050506109af565b005b3480156102bc57600080fd5b506102ff600480360360208110156102d357600080fd5b81019080803573ffffffffffffffffffffffffffffffffffffffff169060200190929190505050610c08565b604051808215151515815260200191505060405180910390f35b34801561032557600080fd5b506103526004803603602081101561033c57600080fd5b8101908080359060200190929190505050610c62565b604051808581526020018060200180602001848152602001838103835286818151815260200191508051906020019080838360005b838110156103a2578082015181840152602081019050610387565b50505050905090810190601f1680156103cf5780820380516001836020036101000a031916815260200191505b50838103825285818151815260200191508051906020019080838360005b838110156104085780820151818401526020810190506103ed565b50505050905090810190601f1680156104355780820380516001836020036101000a031916815260200191505b50965050505050505060405180910390f35b34801561045357600080fd5b5061045c610dc2565b6040518082815260200191505060405180910390f35b34801561047e57600080fd5b506104c16004803603602081101561049557600080fd5b81019080803573ffffffffffffffffffffffffffffffffffffffff169060200190929190505050610dc8565b005b3480156104cf57600080fd5b50610586600480360360208110156104e657600080fd5b810190808035906020019064010000000081111561050357600080fd5b82018360208201111561051557600080fd5b8035906020019184602083028401116401000000008311171561053757600080fd5b919080806020026020016040519081016040528093929190818152602001838360200280828437600081840152601f19601f820116905080830192505050505050509192919290505050610e38565b005b34801561059457600080fd5b5061059d61107c565b6040518082815260200191505060405180910390f35b3480156105bf57600080fd5b506105c86110c3565b6040518082815260200191505060405180910390f35b3480156105ea57600080fd5b506105f36110c9565b6040518082815260200191505060405180910390f35b34801561061557600080fd5b506106586004803603602081101561062c57600080fd5b81019080803573ffffffffffffffffffffffffffffffffffffffff1690602001909291905050506110cf565b6040518082815260200191505060405180910390f35b34801561067a57600080fd5b506106836110e7565b604051808215151515815260200191505060405180910390f35b3480156106a957600080fd5b506106b26110fa565b604051808215151515815260200191505060405180910390f35b3480156106d857600080fd5b5061070f600480360360408110156106ef57600080fd5b810190808035906020019092919080359060200190929190505050611106565b005b34801561071d57600080fd5b50610726611328565b604051808273ffffffffffffffffffffffffffffffffffffffff1673ffffffffffffffffffffffffffffffffffffffff16815260200191505060405180910390f35b6004544210801561077b57506003544210155b15156107ef576040517f08c379a000000000000000000000000000000000000000000000000000000000815260040180806020018281038252601b8152602001807f566f74696e6720686173206e6f742073746172746564207965742e000000000081525060200191505060405180910390fd5b6001600760003373ffffffffffffffffffffffffffffffffffffffff1673ffffffffffffffffffffffffffffffffffffffff168152602001908152602001600020541415156108f2576040517f08c379a000000000000000000000000000000000000000000000000000000000815260040180806020018281038252604d8152602001807f596f752063616e206e6f7420766f74652c20796f7520766f74656420696e207481526020017f686520706173742c206f7220796f7520646f206e6f742068617665207468652081526020017f726967687420746f20766f74650000000000000000000000000000000000000081525060600191505060405180910390fd5b60008111801561090457506001548111155b151561090f57600080fd5b600080828152602001908152602001600020600301600081548092919060010191905055506002600760003373ffffffffffffffffffffffffffffffffffffffff1673ffffffffffffffffffffffffffffffffffffffff16815260200190815260200160002081905550807f3474d7a80d734f2c159cbc95fd43cc116f75c5cc5b1b755e0fd91a0dbfc3c8c160405160405180910390a250565b60035481565b600260009054906101000a900473ffffffffffffffffffffffffffffffffffffffff1673ffffffffffffffffffffffffffffffffffffffff163373ffffffffffffffffffffffffffffffffffffffff16141515610a9a576040517f08c379a00000000000000000000000000000000000000000000000000000000081526004018080602001828103825260228152602001807f4f6e6c792041646d696e2063616e2063616c6c20746869732066756e6374696f81526020017f6e2e00000000000000000000000000000000000000000000000000000000000081525060400191505060405180910390fd5b42600354111515610b39576040517f08c379a000000000000000000000000000000000000000000000000000000000815260040180806020018281038252603e8152602001807f566f74696e672068617320616c726561647920737461727465642c20596f752081526020017f63616e6e6f74206368616e67652074686520656c656374696f6e2044422e000081525060400191505060405180910390fd5b600160008154809291906001019190505550608060405190810160405280600154815260200183815260200182815260200160008152506000806001548152602001908152602001600020600082015181600001556020820151816001019080519060200190610baa92919061134e565b506040820151816002019080519060200190610bc792919061134e565b50606082015181600301559050506001547f0643f5b969ec09fed7dc039cbef7fcca08c0d60e6b3c808266ff52583e0f57c960405160405180910390a25050565b6000600260009054906101000a900473ffffffffffffffffffffffffffffffffffffffff1673ffffffffffffffffffffffffffffffffffffffff168273ffffffffffffffffffffffffffffffffffffffff16149050919050565b6000602052806000526040600020600091509050806000015490806001018054600181600116156101000203166002900480601f016020809104026020016040519081016040528092919081815260200182805460018160011615610100020316600290048015610d145780601f10610ce957610100808354040283529160200191610d14565b820191906000526020600020905b815481529060010190602001808311610cf757829003601f168201915b505050505090806002018054600181600116156101000203166002900480601f016020809104026020016040519081016040528092919081815260200182805460018160011615610100020316600290048015610db25780601f10610d8757610100808354040283529160200191610db2565b820191906000526020600020905b815481529060010190602001808311610d9557829003601f168201915b5050505050908060030154905084565b60045481565b80600260006101000a81548173ffffffffffffffffffffffffffffffffffffffff021916908373ffffffffffffffffffffffffffffffffffffffff1602179055507fe291d2055bc68a3796e049f2b6717d8313ce2e201bd0b3cbe3b2298671e3b55360405160405180910390a150565b600260009054906101000a900473ffffffffffffffffffffffffffffffffffffffff1673ffffffffffffffffffffffffffffffffffffffff163373ffffffffffffffffffffffffffffffffffffffff16141515610f23576040517f08c379a00000000000000000000000000000000000000000000000000000000081526004018080602001828103825260228152602001807f4f6e6c792041646d696e2063616e2063616c6c20746869732066756e6374696f81526020017f6e2e00000000000000000000000000000000000000000000000000000000000081525060400191505060405180910390fd5b42600354111515610fc2576040517f08c379a000000000000000000000000000000000000000000000000000000000815260040180806020018281038252603e8152602001807f566f74696e672068617320616c726561647920737461727465642c20596f752081526020017f63616e6e6f74206368616e67652074686520656c656374696f6e2044422e000081525060400191505060405180910390fd5b60008090505b815181101561104c576001600760008484815181101515610fe557fe5b9060200190602002015173ffffffffffffffffffffffffffffffffffffffff1673ffffffffffffffffffffffffffffffffffffffff168152602001908152602001600020819055506005600081548092919060010191905055508080600101915050610fc8565b507f30d89b3fc2959064943c13498a5b7a72382958281394654899a668c9368c508260405160405180910390a150565b6000600760003373ffffffffffffffffffffffffffffffffffffffff1673ffffffffffffffffffffffffffffffffffffffff16815260200190815260200160002054905090565b60055481565b60015481565b60076020528060005260406000206000915090505481565b600660009054906101000a900460ff1681565b60006004544211905090565b600260009054906101000a900473ffffffffffffffffffffffffffffffffffffffff1673ffffffffffffffffffffffffffffffffffffffff163373ffffffffffffffffffffffffffffffffffffffff161415156111f1576040517f08c379a00000000000000000000000000000000000000000000000000000000081526004018080602001828103825260228152602001807f4f6e6c792041646d696e2063616e2063616c6c20746869732066756e6374696f81526020017f6e2e00000000000000000000000000000000000000000000000000000000000081525060400191505060405180910390fd5b81811180156111ff57504282115b1515611273576040517f08c379a00000000000000000000000000000000000000000000000000000000081526004018080602001828103825260138152602001807f446174657320617265206e6f742076616c69640000000000000000000000000081525060200191505060405180910390fd5b600060035414801561128757506001600454145b15156112fb576040517f08c379a00000000000000000000000000000000000000000000000000000000081526004018080602001828103825260168152602001807f446174657320616c6c726561647920646566696e65640000000000000000000081525060200191505060405180910390fd5b81600381905550806004819055506001600660006101000a81548160ff0219169083151502179055505050565b600260009054906101000a900473ffffffffffffffffffffffffffffffffffffffff1681565b828054600181600116156101000203166002900490600052602060002090601f016020900481019282601f1061138f57805160ff19168380011785556113bd565b828001600101855582156113bd579182015b828111156113bc5782518255916020019190600101906113a1565b5b5090506113ca91906113ce565b5090565b6113f091905b808211156113ec5760008160009055506001016113d4565b5090565b9056fea165627a7a72305820ca7bdd31135cdbace475b7edc7ddb7eaef10cd3cbf5ac5e796340685afeb98ef0029",
  "source": "pragma solidity ^0.5.0;\n\n\ncontract Election {\n\n\tstruct Candidate { // Candidates attributes:\n\t\tuint id;\n\t\tstring name; // Candidate first and last name\n\t\tstring agenda; // Candidate election agenda\n\t\tuint counter; // Candidate voting count\n\t}\n\n\tmapping(uint => Candidate) public candidates;\n\n\tuint public numberOfCandidates;\n\taddress public admin;\n\tuint public votingStartDate; // Voting start date\n\tuint public votingEndDate; // Voting end date\n\tuint public numberOfVoters;\n\tbool public isVotingDatesConfigured;\n\n\tconstructor () public {\n\t\tadmin = msg.sender;\n\t\tvotingStartDate = 0;\n\t\tvotingEndDate = 1;\n\t\tisVotingDatesConfigured = false;\n\t}\n\n\tmodifier onlyAdmin { // Insure only admin can use a function\n        require( msg.sender == admin, \"Only Admin can call this function.\");\n        _;\n    }\n    modifier whileVoting { // Limits changes after voting started (such as adding a candidate or adding voters)\n    \trequire(now < votingEndDate && now >= votingStartDate, \"Voting has not started yet.\");\n    \t_;\n    }\n    modifier beforeVotingStarted {\n    \trequire( votingStartDate > now, \"Voting has already started, You cannot change the election DB.\");\n    \t_;\n    }\n\n    function isAdmin (address _checkAdmin) public returns (bool TF) {\n    \treturn (_checkAdmin == admin);\n    }\n\n\tfunction addingCandidate (string memory _name, string memory _agenda) public onlyAdmin beforeVotingStarted { // Adding a new candidate to candidates mapping\n\t\tnumberOfCandidates++;\n\t\tcandidates[numberOfCandidates] = Candidate(numberOfCandidates, _name, _agenda, 0);\n\t\temit candidateEvent(numberOfCandidates); // Event for adding a new candidate\n\t}\n\n\tfunction defineVotingDates (uint _startDate, uint _endDate) public onlyAdmin  {\n\t\trequire ( _endDate > _startDate && _startDate > now, \"Dates are not valid\");\n\t\trequire (votingStartDate == 0 && votingEndDate == 1, \"Dates allready defined\"); // Dates can be defined only once\n\t\tvotingStartDate = _startDate;\n\t\tvotingEndDate = _endDate;\n\t\tisVotingDatesConfigured = true;\n\t}\n\n\tmapping(address => uint) public voters;\n\n\tfunction vote (uint _candidateId) public whileVoting {\n\t\trequire(voters[msg.sender] == 1, \"You can not vote, you voted in the past, or you do not have the right to vote\"); // Insure that voter didn't vote and has the right\n\t\trequire(_candidateId > 0 && _candidateId <= numberOfCandidates); // Insure that the candidate exites\n\t\tcandidates[_candidateId].counter ++; // Increase candidate counter by one\n\t\tvoters[msg.sender] = 2; // 2 represent voter voted in the past\n    emit votingEvent(_candidateId); // Event for a voter that voted\n\t}\n\n\tevent votingEvent (\n\t\tuint indexed _candidateId\n\t\t);\n\n\tevent candidateEvent (\n\t\tuint indexed _candidateId\n\t\t);\n\n\tfunction addVoters(address[] memory _voters) public onlyAdmin beforeVotingStarted {\n\t\tfor (uint i = 0; i < _voters.length; i++) {\n\t\t\tvoters[_voters[i]] = 1;\n\t\t\tnumberOfVoters++;\n\t\t}\n\t\temit addVoterEvent();\n\t}\n\n\tevent addVoterEvent ();\n\n\tfunction voterStatus () public returns (uint status) {\n\t\treturn (voters[msg.sender]);\n\t}\n\n\tfunction endVoting () public returns (bool index) {\n\t\treturn (now > votingEndDate);\n\t}\n\n\t// QA Functions\n\n\t// This function is just a QA function to test functionality.\n\t// It should not appear on a real contract - we need to understand how to set it appropriatly\n\t// We are aware of the security problem, but because this is just for showing functionality\n\tevent adminSwitchEvent ();\n\n\tfunction setAdmin(address _admin) public {\n\t\tadmin = _admin;\n\t\temit adminSwitchEvent();\n\t}\n}\n",
  "sourcePath": "/Users/danielbachar/Documents/IDC/Blockchain/Final_Project/election/contracts/Election.sol",
  "compiler": {
    "name": "solc",
    "version": "0.5.0+commit.1d4f565a.Emscripten.clang"
  },
  "schemaVersion": "3.0.11",
  "updatedAt": "2019-07-20T12:17:27.583Z",
  "devdoc": {
    "methods": {}
  },
  "userdoc": {
    "methods": {}
  }
}