{
  "contractName": "Election",
  "abi": [
    {
      "constant": true,
      "inputs": [
        {
          "name": "",
          "type": "uint256"
        },
        {
          "name": "",
          "type": "address"
        }
      ],
      "name": "answerList",
      "outputs": [
        {
          "name": "",
          "type": "string"
        }
      ],
      "payable": false,
      "stateMutability": "view",
      "type": "function"
    },
    {
      "constant": true,
      "inputs": [],
      "name": "votingStartDate",
      "outputs": [
        {
          "name": "",
          "type": "uint256"
        }
      ],
      "payable": false,
      "stateMutability": "view",
      "type": "function"
    },
    {
      "constant": true,
      "inputs": [
        {
          "name": "",
          "type": "uint256"
        }
      ],
      "name": "registeredVoters",
      "outputs": [
        {
          "name": "",
          "type": "address"
        }
      ],
      "payable": false,
      "stateMutability": "view",
      "type": "function"
    },
    {
      "constant": true,
      "inputs": [
        {
          "name": "",
          "type": "uint256"
        }
      ],
      "name": "pendingVoters",
      "outputs": [
        {
          "name": "",
          "type": "address"
        }
      ],
      "payable": false,
      "stateMutability": "view",
      "type": "function"
    },
    {
      "constant": true,
      "inputs": [
        {
          "name": "",
          "type": "uint256"
        }
      ],
      "name": "candidates",
      "outputs": [
        {
          "name": "id",
          "type": "uint256"
        },
        {
          "name": "name",
          "type": "string"
        },
        {
          "name": "agenda",
          "type": "string"
        },
        {
          "name": "counter",
          "type": "uint256"
        },
        {
          "name": "candidatePicture",
          "type": "string"
        },
        {
          "name": "candidateAddress",
          "type": "address"
        }
      ],
      "payable": false,
      "stateMutability": "view",
      "type": "function"
    },
    {
      "constant": true,
      "inputs": [],
      "name": "votingEndDate",
      "outputs": [
        {
          "name": "",
          "type": "uint256"
        }
      ],
      "payable": false,
      "stateMutability": "view",
      "type": "function"
    },
    {
      "constant": true,
      "inputs": [],
      "name": "numberOfVoters",
      "outputs": [
        {
          "name": "",
          "type": "uint256"
        }
      ],
      "payable": false,
      "stateMutability": "view",
      "type": "function"
    },
    {
      "constant": true,
      "inputs": [],
      "name": "numberOfCandidates",
      "outputs": [
        {
          "name": "",
          "type": "uint256"
        }
      ],
      "payable": false,
      "stateMutability": "view",
      "type": "function"
    },
    {
      "constant": true,
      "inputs": [
        {
          "name": "",
          "type": "address"
        }
      ],
      "name": "voters",
      "outputs": [
        {
          "name": "",
          "type": "uint256"
        }
      ],
      "payable": false,
      "stateMutability": "view",
      "type": "function"
    },
    {
      "constant": true,
      "inputs": [],
      "name": "numberOfQuestions",
      "outputs": [
        {
          "name": "",
          "type": "uint256"
        }
      ],
      "payable": false,
      "stateMutability": "view",
      "type": "function"
    },
    {
      "constant": true,
      "inputs": [],
      "name": "isVotingDatesConfigured",
      "outputs": [
        {
          "name": "",
          "type": "bool"
        }
      ],
      "payable": false,
      "stateMutability": "view",
      "type": "function"
    },
    {
      "constant": true,
      "inputs": [],
      "name": "numberOfPendingRequest",
      "outputs": [
        {
          "name": "",
          "type": "uint256"
        }
      ],
      "payable": false,
      "stateMutability": "view",
      "type": "function"
    },
    {
      "constant": true,
      "inputs": [
        {
          "name": "",
          "type": "uint256"
        }
      ],
      "name": "questionList",
      "outputs": [
        {
          "name": "question",
          "type": "string"
        },
        {
          "name": "answerCounter",
          "type": "uint256"
        },
        {
          "name": "questioner",
          "type": "address"
        }
      ],
      "payable": false,
      "stateMutability": "view",
      "type": "function"
    },
    {
      "constant": true,
      "inputs": [],
      "name": "admin",
      "outputs": [
        {
          "name": "",
          "type": "address"
        }
      ],
      "payable": false,
      "stateMutability": "view",
      "type": "function"
    },
    {
      "inputs": [],
      "payable": false,
      "stateMutability": "nonpayable",
      "type": "constructor"
    },
    {
      "anonymous": false,
      "inputs": [
        {
          "indexed": true,
          "name": "receiver",
          "type": "address"
        }
      ],
      "name": "VoterGotPaidForVoting",
      "type": "event"
    },
    {
      "anonymous": false,
      "inputs": [
        {
          "indexed": true,
          "name": "candidateId",
          "type": "uint256"
        }
      ],
      "name": "VotingTookPlace",
      "type": "event"
    },
    {
      "anonymous": false,
      "inputs": [
        {
          "indexed": true,
          "name": "candidateId",
          "type": "uint256"
        }
      ],
      "name": "CandidatesAdded",
      "type": "event"
    },
    {
      "anonymous": false,
      "inputs": [],
      "name": "VotersAdded",
      "type": "event"
    },
    {
      "anonymous": false,
      "inputs": [
        {
          "indexed": true,
          "name": "questionId",
          "type": "uint256"
        }
      ],
      "name": "NewQuestion",
      "type": "event"
    },
    {
      "anonymous": false,
      "inputs": [
        {
          "indexed": true,
          "name": "questionId",
          "type": "uint256"
        },
        {
          "indexed": true,
          "name": "candidateId",
          "type": "address"
        }
      ],
      "name": "NewAnswer",
      "type": "event"
    },
    {
      "constant": true,
      "inputs": [
        {
          "name": "_checkAdmin",
          "type": "address"
        }
      ],
      "name": "isAdmin",
      "outputs": [
        {
          "name": "TF",
          "type": "bool"
        }
      ],
      "payable": false,
      "stateMutability": "view",
      "type": "function"
    },
    {
      "constant": true,
      "inputs": [],
      "name": "voterStatus",
      "outputs": [
        {
          "name": "status",
          "type": "uint256"
        }
      ],
      "payable": false,
      "stateMutability": "view",
      "type": "function"
    },
    {
      "constant": true,
      "inputs": [],
      "name": "endVoting",
      "outputs": [
        {
          "name": "index",
          "type": "bool"
        }
      ],
      "payable": false,
      "stateMutability": "view",
      "type": "function"
    },
    {
      "constant": true,
      "inputs": [
        {
          "name": "_coinOwner",
          "type": "address"
        }
      ],
      "name": "balanceOf",
      "outputs": [
        {
          "name": "",
          "type": "uint256"
        }
      ],
      "payable": false,
      "stateMutability": "view",
      "type": "function"
    },
    {
      "constant": false,
      "inputs": [
        {
          "name": "_name",
          "type": "string"
        },
        {
          "name": "_agenda",
          "type": "string"
        },
        {
          "name": "_picture",
          "type": "string"
        },
        {
          "name": "_address",
          "type": "address"
        }
      ],
      "name": "addingCandidate",
      "outputs": [],
      "payable": false,
      "stateMutability": "nonpayable",
      "type": "function"
    },
    {
      "constant": false,
      "inputs": [
        {
          "name": "_startDate",
          "type": "uint256"
        },
        {
          "name": "_endDate",
          "type": "uint256"
        }
      ],
      "name": "defineVotingDates",
      "outputs": [],
      "payable": false,
      "stateMutability": "nonpayable",
      "type": "function"
    },
    {
      "constant": false,
      "inputs": [
        {
          "name": "_candidateId",
          "type": "uint256"
        }
      ],
      "name": "vote",
      "outputs": [],
      "payable": false,
      "stateMutability": "nonpayable",
      "type": "function"
    },
    {
      "constant": false,
      "inputs": [
        {
          "name": "_voters",
          "type": "address[]"
        }
      ],
      "name": "addVoters",
      "outputs": [],
      "payable": false,
      "stateMutability": "nonpayable",
      "type": "function"
    },
    {
      "constant": false,
      "inputs": [
        {
          "name": "_question",
          "type": "string"
        }
      ],
      "name": "addQuestion",
      "outputs": [],
      "payable": false,
      "stateMutability": "nonpayable",
      "type": "function"
    },
    {
      "constant": false,
      "inputs": [
        {
          "name": "_answer",
          "type": "string"
        },
        {
          "name": "_questionId",
          "type": "uint256"
        }
      ],
      "name": "addAnswer",
      "outputs": [],
      "payable": false,
      "stateMutability": "nonpayable",
      "type": "function"
    },
    {
      "constant": true,
      "inputs": [
        {
          "name": "_helper",
          "type": "address"
        }
      ],
      "name": "isCandidate",
      "outputs": [
        {
          "name": "ok",
          "type": "bool"
        }
      ],
      "payable": false,
      "stateMutability": "view",
      "type": "function"
    },
    {
      "constant": false,
      "inputs": [],
      "name": "addNewRequest",
      "outputs": [],
      "payable": false,
      "stateMutability": "nonpayable",
      "type": "function"
    },
    {
      "constant": true,
      "inputs": [],
      "name": "getPendingRequesters",
      "outputs": [
        {
          "name": "_pendingRequesters",
          "type": "address[]"
        }
      ],
      "payable": false,
      "stateMutability": "view",
      "type": "function"
    },
    {
      "constant": false,
      "inputs": [
        {
          "name": "_requesterId",
          "type": "uint256"
        }
      ],
      "name": "approveRequest",
      "outputs": [],
      "payable": false,
      "stateMutability": "nonpayable",
      "type": "function"
    }
  ],
  "bytecode": "0x60806040523480156200001157600080fd5b5033600460006101000a81548173ffffffffffffffffffffffffffffffffffffffff021916908373ffffffffffffffffffffffffffffffffffffffff160217905550600060058190555060016006819055506000600860006101000a81548160ff02191690831515021790555033600260006001815260200190815260200160002060006101000a81548173ffffffffffffffffffffffffffffffffffffffff021916908373ffffffffffffffffffffffffffffffffffffffff160217905550600160078190555060018060003373ffffffffffffffffffffffffffffffffffffffff1673ffffffffffffffffffffffffffffffffffffffff16815260200190815260200160002081905550625f8d036200012b62000199565b80828152602001915050604051809103906000f08015801562000152573d6000803e3d6000fd5b50600860016101000a81548173ffffffffffffffffffffffffffffffffffffffff021916908373ffffffffffffffffffffffffffffffffffffffff160217905550620001aa565b604051610cd2806200316383390190565b612fa980620001ba6000396000f3fe60806040526004361061016a576000357c0100000000000000000000000000000000000000000000000000000000900463ffffffff1680630121b93f1461016f5780630ab01e6a146101aa578063171254661461027e5780632436e06b146102a957806324a9267b1461032457806324d7806c1461039f57806333d4020c146104085780633477ee2e146104da57806353981fe1146106a757806370a08231146106d25780638203373a14610737578063908ea91d146107fc57806397e2a36f146108275780639bcc336114610a3d5780639c84bb2714610a68578063a3ec138d14610a93578063ad65764a14610af8578063b4594c3614610b0f578063baf5d31a14610b3a578063bd8484e114610b69578063c3403ddf14610b94578063c74e9b7714610bc3578063d51b9e9314610c08578063d7d1bbdb14610c71578063eaaea05c14610cac578063f129dbd914610d9a578063f6fe8d3e14610e62578063f851a44014610ece575b600080fd5b34801561017b57600080fd5b506101a86004803603602081101561019257600080fd5b8101908080359060200190929190505050610f25565b005b3480156101b657600080fd5b50610203600480360360408110156101cd57600080fd5b8101908080359060200190929190803573ffffffffffffffffffffffffffffffffffffffff169060200190929190505050611224565b6040518080602001828103825283818151815260200191508051906020019080838360005b83811015610243578082015181840152602081019050610228565b50505050905090810190601f1680156102705780820380516001836020036101000a031916815260200191505b509250505060405180910390f35b34801561028a57600080fd5b506102936112e1565b6040518082815260200191505060405180910390f35b3480156102b557600080fd5b506102e2600480360360208110156102cc57600080fd5b81019080803590602001909291905050506112e7565b604051808273ffffffffffffffffffffffffffffffffffffffff1673ffffffffffffffffffffffffffffffffffffffff16815260200191505060405180910390f35b34801561033057600080fd5b5061035d6004803603602081101561034757600080fd5b810190808035906020019092919050505061131a565b604051808273ffffffffffffffffffffffffffffffffffffffff1673ffffffffffffffffffffffffffffffffffffffff16815260200191505060405180910390f35b3480156103ab57600080fd5b506103ee600480360360208110156103c257600080fd5b81019080803573ffffffffffffffffffffffffffffffffffffffff16906020019092919050505061134d565b604051808215151515815260200191505060405180910390f35b34801561041457600080fd5b506104d86004803603604081101561042b57600080fd5b810190808035906020019064010000000081111561044857600080fd5b82018360208201111561045a57600080fd5b8035906020019184600183028401116401000000008311171561047c57600080fd5b91908080601f016020809104026020016040519081016040528093929190818152602001838380828437600081840152601f19601f820116905080830192505050505050509192919290803590602001909291905050506113a7565b005b3480156104e657600080fd5b50610513600480360360208110156104fd57600080fd5b81019080803590602001909291905050506115ed565b604051808781526020018060200180602001868152602001806020018573ffffffffffffffffffffffffffffffffffffffff1673ffffffffffffffffffffffffffffffffffffffff168152602001848103845289818151815260200191508051906020019080838360005b8381101561059957808201518184015260208101905061057e565b50505050905090810190601f1680156105c65780820380516001836020036101000a031916815260200191505b50848103835288818151815260200191508051906020019080838360005b838110156105ff5780820151818401526020810190506105e4565b50505050905090810190601f16801561062c5780820380516001836020036101000a031916815260200191505b50848103825286818151815260200191508051906020019080838360005b8381101561066557808201518184015260208101905061064a565b50505050905090810190601f1680156106925780820380516001836020036101000a031916815260200191505b50995050505050505050505060405180910390f35b3480156106b357600080fd5b506106bc611811565b6040518082815260200191505060405180910390f35b3480156106de57600080fd5b50610721600480360360208110156106f557600080fd5b81019080803573ffffffffffffffffffffffffffffffffffffffff169060200190929190505050611817565b6040518082815260200191505060405180910390f35b34801561074357600080fd5b506107fa6004803603602081101561075a57600080fd5b810190808035906020019064010000000081111561077757600080fd5b82018360208201111561078957600080fd5b803590602001918460208302840111640100000000831117156107ab57600080fd5b919080806020026020016040519081016040528093929190818152602001838360200280828437600081840152601f19601f820116905080830192505050505050509192919290505050611916565b005b34801561080857600080fd5b50610811611c24565b6040518082815260200191505060405180910390f35b34801561083357600080fd5b50610a3b6004803603608081101561084a57600080fd5b810190808035906020019064010000000081111561086757600080fd5b82018360208201111561087957600080fd5b8035906020019184600183028401116401000000008311171561089b57600080fd5b91908080601f016020809104026020016040519081016040528093929190818152602001838380828437600081840152601f19601f820116905080830192505050505050509192919290803590602001906401000000008111156108fe57600080fd5b82018360208201111561091057600080fd5b8035906020019184600183028401116401000000008311171561093257600080fd5b91908080601f016020809104026020016040519081016040528093929190818152602001838380828437600081840152601f19601f8201169050808301925050505050505091929192908035906020019064010000000081111561099557600080fd5b8201836020820111156109a757600080fd5b803590602001918460018302840111640100000000831117156109c957600080fd5b91908080601f016020809104026020016040519081016040528093929190818152602001838380828437600081840152601f19601f820116905080830192505050505050509192919290803573ffffffffffffffffffffffffffffffffffffffff169060200190929190505050611c6b565b005b348015610a4957600080fd5b50610a52611f4c565b6040518082815260200191505060405180910390f35b348015610a7457600080fd5b50610a7d611f52565b6040518082815260200191505060405180910390f35b348015610a9f57600080fd5b50610ae260048036036020811015610ab657600080fd5b81019080803573ffffffffffffffffffffffffffffffffffffffff169060200190929190505050611f58565b6040518082815260200191505060405180910390f35b348015610b0457600080fd5b50610b0d611f70565b005b348015610b1b57600080fd5b50610b24612173565b6040518082815260200191505060405180910390f35b348015610b4657600080fd5b50610b4f612179565b604051808215151515815260200191505060405180910390f35b348015610b7557600080fd5b50610b7e61218c565b6040518082815260200191505060405180910390f35b348015610ba057600080fd5b50610ba9612192565b604051808215151515815260200191505060405180910390f35b348015610bcf57600080fd5b50610c0660048036036040811015610be657600080fd5b81019080803590602001909291908035906020019092919050505061219e565b005b348015610c1457600080fd5b50610c5760048036036020811015610c2b57600080fd5b81019080803573ffffffffffffffffffffffffffffffffffffffff1690602001909291905050506123c0565b604051808215151515815260200191505060405180910390f35b348015610c7d57600080fd5b50610caa60048036036020811015610c9457600080fd5b810190808035906020019092919050505061245e565b005b348015610cb857600080fd5b50610ce560048036036020811015610ccf57600080fd5b81019080803590602001909291905050506127e4565b60405180806020018481526020018373ffffffffffffffffffffffffffffffffffffffff1673ffffffffffffffffffffffffffffffffffffffff168152602001828103825285818151815260200191508051906020019080838360005b83811015610d5d578082015181840152602081019050610d42565b50505050905090810190601f168015610d8a5780820380516001836020036101000a031916815260200191505b5094505050505060405180910390f35b348015610da657600080fd5b50610e6060048036036020811015610dbd57600080fd5b8101908080359060200190640100000000811115610dda57600080fd5b820183602082011115610dec57600080fd5b80359060200191846001830284011164010000000083111715610e0e57600080fd5b91908080601f016020809104026020016040519081016040528093929190818152602001838380828437600081840152601f19601f8201169050808301925050505050505091929192905050506128c6565b005b348015610e6e57600080fd5b50610e77612b45565b6040518080602001828103825283818151815260200191508051906020019060200280838360005b83811015610eba578082015181840152602081019050610e9f565b505050509050019250505060405180910390f35b348015610eda57600080fd5b50610ee3612cd9565b604051808273ffffffffffffffffffffffffffffffffffffffff1673ffffffffffffffffffffffffffffffffffffffff16815260200191505060405180910390f35b60065442108015610f3857506005544210155b1515610fac576040517f08c379a000000000000000000000000000000000000000000000000000000000815260040180806020018281038252601b8152602001807f566f74696e6720686173204e4f542073746172746564207965742e000000000081525060200191505060405180910390fd5b60018060003373ffffffffffffffffffffffffffffffffffffffff1673ffffffffffffffffffffffffffffffffffffffff168152602001908152602001600020541015801561103b57506002600160003373ffffffffffffffffffffffffffffffffffffffff1673ffffffffffffffffffffffffffffffffffffffff1681526020019081526020016000205411155b15156110fb576040517f08c379a000000000000000000000000000000000000000000000000000000000815260040180806020018281038252604d8152602001807f596f752063616e206e6f7420766f74652c20796f7520766f74656420696e207481526020017f686520706173742c206f7220796f7520646f206e6f742068617665207468652081526020017f726967687420746f20766f74650000000000000000000000000000000000000081525060600191505060405180910390fd5b60008111801561110d57506003548111155b1515611181576040517f08c379a000000000000000000000000000000000000000000000000000000000815260040180806020018281038252601c8152602001807f546869732063616e64696461746520646f65736e27742065786973740000000081525060200191505060405180910390fd5b600080828152602001908152602001600020600301600081548092919060010191905055506003600160003373ffffffffffffffffffffffffffffffffffffffff1673ffffffffffffffffffffffffffffffffffffffff16815260200190815260200160002081905550807f3fb177ffed56b17942d1a2660c96f99f553a104b111e3e62ae6ae6f2efcf8c0d60405160405180910390a261122133612cff565b50565b600a602052816000526040600020602052806000526040600020600091509150508054600181600116156101000203166002900480601f0160208091040260200160405190810160405280929190818152602001828054600181600116156101000203166002900480156112d95780601f106112ae576101008083540402835291602001916112d9565b820191906000526020600020905b8154815290600101906020018083116112bc57829003601f168201915b505050505081565b60055481565b60026020528060005260406000206000915054906101000a900473ffffffffffffffffffffffffffffffffffffffff1681565b600c6020528060005260406000206000915054906101000a900473ffffffffffffffffffffffffffffffffffffffff1681565b6000600460009054906101000a900473ffffffffffffffffffffffffffffffffffffffff1673ffffffffffffffffffffffffffffffffffffffff168273ffffffffffffffffffffffffffffffffffffffff16149050919050565b600061149a600a600084815260200190815260200160002060003373ffffffffffffffffffffffffffffffffffffffff1673ffffffffffffffffffffffffffffffffffffffff1681526020019081526020016000208054600181600116156101000203166002900480601f0160208091040260200160405190810160405280929190818152602001828054600181600116156101000203166002900480156114905780601f1061146557610100808354040283529160200191611490565b820191906000526020600020905b81548152906001019060200180831161147357829003601f168201915b5050505050612e47565b1415156114a657600080fd5b6114af336123c0565b15156114ba57600080fd5b81600a600083815260200190815260200160002060003373ffffffffffffffffffffffffffffffffffffffff1673ffffffffffffffffffffffffffffffffffffffff168152602001908152602001600020908051906020019061151e929190612e58565b506009600082815260200190815260200160002060010160008154809291906001019190505550600354600960008381526020019081526020016000206001015414156115a5576115a46009600083815260200190815260200160002060020160009054906101000a900473ffffffffffffffffffffffffffffffffffffffff16612cff565b5b3373ffffffffffffffffffffffffffffffffffffffff16817f88085c10096cc135e6ad1e349dae731e044ffa7b1ce1375a9b992e099460cf5f60405160405180910390a35050565b6000602052806000526040600020600091509050806000015490806001018054600181600116156101000203166002900480601f01602080910402602001604051908101604052809291908181526020018280546001816001161561010002031660029004801561169f5780601f106116745761010080835404028352916020019161169f565b820191906000526020600020905b81548152906001019060200180831161168257829003601f168201915b505050505090806002018054600181600116156101000203166002900480601f01602080910402602001604051908101604052809291908181526020018280546001816001161561010002031660029004801561173d5780601f106117125761010080835404028352916020019161173d565b820191906000526020600020905b81548152906001019060200180831161172057829003601f168201915b505050505090806003015490806004018054600181600116156101000203166002900480601f0160208091040260200160405190810160405280929190818152602001828054600181600116156101000203166002900480156117e15780601f106117b6576101008083540402835291602001916117e1565b820191906000526020600020905b8154815290600101906020018083116117c457829003601f168201915b5050505050908060050160009054906101000a900473ffffffffffffffffffffffffffffffffffffffff16905086565b60065481565b6000600860019054906101000a900473ffffffffffffffffffffffffffffffffffffffff1673ffffffffffffffffffffffffffffffffffffffff16631a676967836040518263ffffffff167c0100000000000000000000000000000000000000000000000000000000028152600401808273ffffffffffffffffffffffffffffffffffffffff1673ffffffffffffffffffffffffffffffffffffffff16815260200191505060206040518083038186803b1580156118d457600080fd5b505afa1580156118e8573d6000803e3d6000fd5b505050506040513d60208110156118fe57600080fd5b81019080805190602001909291905050509050919050565b600460009054906101000a900473ffffffffffffffffffffffffffffffffffffffff1673ffffffffffffffffffffffffffffffffffffffff163373ffffffffffffffffffffffffffffffffffffffff16141515611a01576040517f08c379a00000000000000000000000000000000000000000000000000000000081526004018080602001828103825260228152602001807f4f6e6c792041646d696e2063616e2063616c6c20746869732066756e6374696f81526020017f6e2e00000000000000000000000000000000000000000000000000000000000081525060400191505060405180910390fd5b42600554111515611aa0576040517f08c379a000000000000000000000000000000000000000000000000000000000815260040180806020018281038252603a8152602001807f566f74696e672068617320737461727465642c2074686973206973206e6f742081526020017f616c6c6f77656420647572696e6720766f74696e672074696d6500000000000081525060400191505060405180910390fd5b60008090505b8151811015611bf45760018060008484815181101515611ac257fe5b9060200190602002015173ffffffffffffffffffffffffffffffffffffffff1673ffffffffffffffffffffffffffffffffffffffff16815260200190815260200160002054141515611be75760018060008484815181101515611b2157fe5b9060200190602002015173ffffffffffffffffffffffffffffffffffffffff1673ffffffffffffffffffffffffffffffffffffffff168152602001908152602001600020819055506007600081548092919060010191905055508181815181101515611b8957fe5b9060200190602002015160026000600754815260200190815260200160002060006101000a81548173ffffffffffffffffffffffffffffffffffffffff021916908373ffffffffffffffffffffffffffffffffffffffff1602179055505b8080600101915050611aa6565b507f0aee384e054f41c4989b3e8891c1b7e8dd26f574ba13158f6fc2e7f06106bf6b60405160405180910390a150565b6000600160003373ffffffffffffffffffffffffffffffffffffffff1673ffffffffffffffffffffffffffffffffffffffff16815260200190815260200160002054905090565b600460009054906101000a900473ffffffffffffffffffffffffffffffffffffffff1673ffffffffffffffffffffffffffffffffffffffff163373ffffffffffffffffffffffffffffffffffffffff16141515611d56576040517f08c379a00000000000000000000000000000000000000000000000000000000081526004018080602001828103825260228152602001807f4f6e6c792041646d696e2063616e2063616c6c20746869732066756e6374696f81526020017f6e2e00000000000000000000000000000000000000000000000000000000000081525060400191505060405180910390fd5b42600554111515611df5576040517f08c379a000000000000000000000000000000000000000000000000000000000815260040180806020018281038252603a8152602001807f566f74696e672068617320737461727465642c2074686973206973206e6f742081526020017f616c6c6f77656420647572696e6720766f74696e672074696d6500000000000081525060400191505060405180910390fd5b60036000815480929190600101919050555060c0604051908101604052806003548152602001858152602001848152602001600081526020018381526020018273ffffffffffffffffffffffffffffffffffffffff168152506000806003548152602001908152602001600020600082015181600001556020820151816001019080519060200190611e88929190612ed8565b506040820151816002019080519060200190611ea5929190612ed8565b50606082015181600301556080820151816004019080519060200190611ecc929190612ed8565b5060a08201518160050160006101000a81548173ffffffffffffffffffffffffffffffffffffffff021916908373ffffffffffffffffffffffffffffffffffffffff1602179055509050506003547ffa5f1888f14852418f5bd1b137e47d07e38adf0ac3ea4ebb1300f982ebb43b4960405160405180910390a250505050565b60075481565b60035481565b60016020528060005260406000206000915090505481565b4260055411151561200f576040517f08c379a000000000000000000000000000000000000000000000000000000000815260040180806020018281038252603a8152602001807f566f74696e672068617320737461727465642c2074686973206973206e6f742081526020017f616c6c6f77656420647572696e6720766f74696e672074696d6500000000000081525060400191505060405180910390fd5b6000600160003373ffffffffffffffffffffffffffffffffffffffff1673ffffffffffffffffffffffffffffffffffffffff168152602001908152602001600020541415156120c6576040517f08c379a00000000000000000000000000000000000000000000000000000000081526004018080602001828103825260178152602001807f596f7572207265717565737420697320696e76616c696400000000000000000081525060200191505060405180910390fd5b6004600160003373ffffffffffffffffffffffffffffffffffffffff1673ffffffffffffffffffffffffffffffffffffffff16815260200190815260200160002081905550600d6000815480929190600101919050555033600c6000600d54815260200190815260200160002060006101000a81548173ffffffffffffffffffffffffffffffffffffffff021916908373ffffffffffffffffffffffffffffffffffffffff160217905550565b600b5481565b600860009054906101000a900460ff1681565b600d5481565b60006006544211905090565b600460009054906101000a900473ffffffffffffffffffffffffffffffffffffffff1673ffffffffffffffffffffffffffffffffffffffff163373ffffffffffffffffffffffffffffffffffffffff16141515612289576040517f08c379a00000000000000000000000000000000000000000000000000000000081526004018080602001828103825260228152602001807f4f6e6c792041646d696e2063616e2063616c6c20746869732066756e6374696f81526020017f6e2e00000000000000000000000000000000000000000000000000000000000081525060400191505060405180910390fd5b818111801561229757504282115b151561230b576040517f08c379a00000000000000000000000000000000000000000000000000000000081526004018080602001828103825260138152602001807f446174657320617265206e6f742076616c69640000000000000000000000000081525060200191505060405180910390fd5b600060055414801561231f57506001600654145b1515612393576040517f08c379a00000000000000000000000000000000000000000000000000000000081526004018080602001828103825260158152602001807f446174657320616c726561647920646566696e6564000000000000000000000081525060200191505060405180910390fd5b81600581905550806006819055506001600860006101000a81548160ff0219169083151502179055505050565b600080600190505b60035481111515612453578273ffffffffffffffffffffffffffffffffffffffff1660008083815260200190815260200160002060050160009054906101000a900473ffffffffffffffffffffffffffffffffffffffff1673ffffffffffffffffffffffffffffffffffffffff161415612446576001915050612459565b80806001019150506123c8565b50600090505b919050565b600460009054906101000a900473ffffffffffffffffffffffffffffffffffffffff1673ffffffffffffffffffffffffffffffffffffffff163373ffffffffffffffffffffffffffffffffffffffff16141515612549576040517f08c379a00000000000000000000000000000000000000000000000000000000081526004018080602001828103825260228152602001807f4f6e6c792041646d696e2063616e2063616c6c20746869732066756e6374696f81526020017f6e2e00000000000000000000000000000000000000000000000000000000000081525060400191505060405180910390fd5b426005541115156125e8576040517f08c379a000000000000000000000000000000000000000000000000000000000815260040180806020018281038252603a8152602001807f566f74696e672068617320737461727465642c2074686973206973206e6f742081526020017f616c6c6f77656420647572696e6720766f74696e672074696d6500000000000081525060400191505060405180910390fd5b600460016000600c600085815260200190815260200160002060009054906101000a900473ffffffffffffffffffffffffffffffffffffffff1673ffffffffffffffffffffffffffffffffffffffff1673ffffffffffffffffffffffffffffffffffffffff168152602001908152602001600020541415156126d2576040517f08c379a000000000000000000000000000000000000000000000000000000000815260040180806020018281038252600d8152602001807f43616e277420617070726f76650000000000000000000000000000000000000081525060200191505060405180910390fd5b6001806000600c600085815260200190815260200160002060009054906101000a900473ffffffffffffffffffffffffffffffffffffffff1673ffffffffffffffffffffffffffffffffffffffff1673ffffffffffffffffffffffffffffffffffffffff1681526020019081526020016000205050600c6000600d54815260200190815260200160002060009054906101000a900473ffffffffffffffffffffffffffffffffffffffff16600c600083815260200190815260200160002060006101000a81548173ffffffffffffffffffffffffffffffffffffffff021916908373ffffffffffffffffffffffffffffffffffffffff160217905550600d600081548092919060019003919050555050565b6009602052806000526040600020600091509050806000018054600181600116156101000203166002900480601f0160208091040260200160405190810160405280929190818152602001828054600181600116156101000203166002900480156128905780601f1061286557610100808354040283529160200191612890565b820191906000526020600020905b81548152906001019060200180831161287357829003601f168201915b5050505050908060010154908060020160009054906101000a900473ffffffffffffffffffffffffffffffffffffffff16905083565b600654421080156128d957506005544210155b151561294d576040517f08c379a000000000000000000000000000000000000000000000000000000000815260040180806020018281038252601b8152602001807f566f74696e6720686173204e4f542073746172746564207965742e000000000081525060200191505060405180910390fd5b60018060003373ffffffffffffffffffffffffffffffffffffffff1673ffffffffffffffffffffffffffffffffffffffff16815260200190815260200160002054141515612a03576040517f08c379a00000000000000000000000000000000000000000000000000000000081526004018080602001828103825260178152602001807f5175657374696f6e2063616e27742062652061736b656400000000000000000081525060200191505060405180910390fd5b600b600081548092919060010191905055506002600160003373ffffffffffffffffffffffffffffffffffffffff1673ffffffffffffffffffffffffffffffffffffffff16815260200190815260200160002081905550606060405190810160405280828152602001600081526020013373ffffffffffffffffffffffffffffffffffffffff1681525060096000600b5481526020019081526020016000206000820151816000019080519060200190612abe929190612ed8565b506020820151816001015560408201518160020160006101000a81548173ffffffffffffffffffffffffffffffffffffffff021916908373ffffffffffffffffffffffffffffffffffffffff160217905550905050600b547fdcf91e290e61751f7b1f2964247edbed637dfc351325882b6ec7dea381218bd460405160405180910390a250565b6060600460009054906101000a900473ffffffffffffffffffffffffffffffffffffffff1673ffffffffffffffffffffffffffffffffffffffff163373ffffffffffffffffffffffffffffffffffffffff16141515612c32576040517f08c379a00000000000000000000000000000000000000000000000000000000081526004018080602001828103825260228152602001807f4f6e6c792041646d696e2063616e2063616c6c20746869732066756e6374696f81526020017f6e2e00000000000000000000000000000000000000000000000000000000000081525060400191505060405180910390fd5b60606000600190505b600d5481111515612cd157600c600082815260200190815260200160002060009054906101000a900473ffffffffffffffffffffffffffffffffffffffff168282815181101515612c8857fe5b9060200190602002019073ffffffffffffffffffffffffffffffffffffffff16908173ffffffffffffffffffffffffffffffffffffffff16815250508080600101915050612c3b565b508091505090565b600460009054906101000a900473ffffffffffffffffffffffffffffffffffffffff1681565b600860019054906101000a900473ffffffffffffffffffffffffffffffffffffffff1673ffffffffffffffffffffffffffffffffffffffff16638dde60fa8260016040518363ffffffff167c0100000000000000000000000000000000000000000000000000000000028152600401808373ffffffffffffffffffffffffffffffffffffffff1673ffffffffffffffffffffffffffffffffffffffff16815260200182815260200192505050602060405180830381600087803b158015612dc557600080fd5b505af1158015612dd9573d6000803e3d6000fd5b505050506040513d6020811015612def57600080fd5b8101908080519060200190929190505050508073ffffffffffffffffffffffffffffffffffffffff167f54699d2017b1aa2a78f187372a13d08a57be01c8ed421a22a2a9afdf315bcc4b60405160405180910390a250565b600060608290508051915050919050565b828054600181600116156101000203166002900490600052602060002090601f016020900481019282601f10612e9957805160ff1916838001178555612ec7565b82800160010185558215612ec7579182015b82811115612ec6578251825591602001919060010190612eab565b5b509050612ed49190612f58565b5090565b828054600181600116156101000203166002900490600052602060002090601f016020900481019282601f10612f1957805160ff1916838001178555612f47565b82800160010185558215612f47579182015b82811115612f46578251825591602001919060010190612f2b565b5b509050612f549190612f58565b5090565b612f7a91905b80821115612f76576000816000905550600101612f5e565b5090565b9056fea165627a7a723058209775a43b23f710063cda939823435b03bd3981959f74ef07e1396770bbd2b9bd00296080604052625f8d0360025534801561001757600080fd5b50604051602080610cd28339810180604052602081101561003757600080fd5b810190808051906020019092919050505080600281905550806000803373ffffffffffffffffffffffffffffffffffffffff1673ffffffffffffffffffffffffffffffffffffffff168152602001908152602001600020819055506201e4536000803373ffffffffffffffffffffffffffffffffffffffff1673ffffffffffffffffffffffffffffffffffffffff1681526020019081526020016000208190555050610bea806100e86000396000f3fe608060405260043610610083576000357c0100000000000000000000000000000000000000000000000000000000900463ffffffff16806306fdde0314610088578063095ea7b3146101185780631a6769671461018b57806377a3e9fd146101f05780638c915b921461021b5780638dde60fa146102ae57806395d89b4114610321575b600080fd5b34801561009457600080fd5b5061009d6103b1565b6040518080602001828103825283818151815260200191508051906020019080838360005b838110156100dd5780820151818401526020810190506100c2565b50505050905090810190601f16801561010a5780820380516001836020036101000a031916815260200191505b509250505060405180910390f35b34801561012457600080fd5b506101716004803603604081101561013b57600080fd5b81019080803573ffffffffffffffffffffffffffffffffffffffff169060200190929190803590602001909291905050506103ea565b604051808215151515815260200191505060405180910390f35b34801561019757600080fd5b506101da600480360360208110156101ae57600080fd5b81019080803573ffffffffffffffffffffffffffffffffffffffff169060200190929190505050610592565b6040518082815260200191505060405180910390f35b3480156101fc57600080fd5b506102056105aa565b6040518082815260200191505060405180910390f35b34801561022757600080fd5b506102946004803603606081101561023e57600080fd5b81019080803573ffffffffffffffffffffffffffffffffffffffff16906020019092919080359060200190929190803573ffffffffffffffffffffffffffffffffffffffff1690602001909291905050506105b0565b604051808215151515815260200191505060405180910390f35b3480156102ba57600080fd5b50610307600480360360408110156102d157600080fd5b81019080803573ffffffffffffffffffffffffffffffffffffffff16906020019092919080359060200190929190505050610902565b604051808215151515815260200191505060405180910390f35b34801561032d57600080fd5b50610336610b85565b6040518080602001828103825283818151815260200191508051906020019080838360005b8381101561037657808201518184015260208101905061035b565b50505050905090810190601f1680156103a35780820380516001836020036101000a031916815260200191505b509250505060405180910390f35b6040805190810160405280600981526020017f5375706572436f696e000000000000000000000000000000000000000000000081525081565b6000816000803373ffffffffffffffffffffffffffffffffffffffff1673ffffffffffffffffffffffffffffffffffffffff16815260200190815260200160002054101515156104a2576040517f08c379a00000000000000000000000000000000000000000000000000000000081526004018080602001828103825260128152602001807f496e73756666696369656e742066756e6473000000000000000000000000000081525060200191505060405180910390fd5b81600160003373ffffffffffffffffffffffffffffffffffffffff1673ffffffffffffffffffffffffffffffffffffffff16815260200190815260200160002060008573ffffffffffffffffffffffffffffffffffffffff1673ffffffffffffffffffffffffffffffffffffffff168152602001908152602001600020819055508273ffffffffffffffffffffffffffffffffffffffff163373ffffffffffffffffffffffffffffffffffffffff167f8c5be1e5ebec7d5bd14f71427d1e84f3dd0314c0f7b2291e5b200ac8c7c3b925846040518082815260200191505060405180910390a36001905092915050565b60006020528060005260406000206000915090505481565b60025481565b60008060008573ffffffffffffffffffffffffffffffffffffffff1673ffffffffffffffffffffffffffffffffffffffff168152602001908152602001600020548311151515610668576040517f08c379a00000000000000000000000000000000000000000000000000000000081526004018080602001828103825260128152602001807f496e73756666696369656e742066756e6473000000000000000000000000000081525060200191505060405180910390fd5b600083111515610706576040517f08c379a00000000000000000000000000000000000000000000000000000000081526004018080602001828103825260218152602001807f43616e2774207472616e73666572206e6f6e2d706f737469766520616d6f756e81526020017f740000000000000000000000000000000000000000000000000000000000000081525060400191505060405180910390fd5b82600160008673ffffffffffffffffffffffffffffffffffffffff1673ffffffffffffffffffffffffffffffffffffffff16815260200190815260200160002060003373ffffffffffffffffffffffffffffffffffffffff1673ffffffffffffffffffffffffffffffffffffffff16815260200190815260200160002054101515156107fa576040517f08c379a000000000000000000000000000000000000000000000000000000000815260040180806020018281038252601b8152602001807f54686520616c6c6f77616e6365206973206e6f7420656e6f756768000000000081525060200191505060405180910390fd5b826000808673ffffffffffffffffffffffffffffffffffffffff1673ffffffffffffffffffffffffffffffffffffffff16815260200190815260200160002060008282540392505081905550826000808473ffffffffffffffffffffffffffffffffffffffff1673ffffffffffffffffffffffffffffffffffffffff168152602001908152602001600020600082825401925050819055508173ffffffffffffffffffffffffffffffffffffffff168473ffffffffffffffffffffffffffffffffffffffff167f814ba8b90e503048feb91c0ef0c273d06444da691eddd6e9b2e1687b63a6621b856040518082815260200191505060405180910390a3600190509392505050565b60008060003373ffffffffffffffffffffffffffffffffffffffff1673ffffffffffffffffffffffffffffffffffffffff1681526020019081526020016000205482111515156109e0576040517f08c379a00000000000000000000000000000000000000000000000000000000081526004018080602001828103825260238152602001807f496e73756666696369656e742066756e64732c207472616e736665722066616981526020017f6c6564000000000000000000000000000000000000000000000000000000000081525060400191505060405180910390fd5b600082111515610a7e576040517f08c379a00000000000000000000000000000000000000000000000000000000081526004018080602001828103825260358152602001807f596f752063616e2774207472616e73666572206e6f6e2d706f7374697665206381526020017f6f696e732c207472616e73666572206661696c6564000000000000000000000081525060400191505060405180910390fd5b816000803373ffffffffffffffffffffffffffffffffffffffff1673ffffffffffffffffffffffffffffffffffffffff16815260200190815260200160002060008282540392505081905550816000808573ffffffffffffffffffffffffffffffffffffffff1673ffffffffffffffffffffffffffffffffffffffff168152602001908152602001600020600082825401925050819055508273ffffffffffffffffffffffffffffffffffffffff163373ffffffffffffffffffffffffffffffffffffffff167f814ba8b90e503048feb91c0ef0c273d06444da691eddd6e9b2e1687b63a6621b846040518082815260200191505060405180910390a36001905092915050565b6040805190810160405280600d81526020017f5375706572436f696e2e706e67000000000000000000000000000000000000008152508156fea165627a7a723058208cf7b36c60232b6970561ae464e574322e81b3128ebd2e3f225068c3ad0fd8fa0029",
  "source": "pragma solidity ^0.5.0;\n\nimport './SuperCoin.sol';\n\ncontract Election {\n\n\t/* The struct (Candidates) has the following attributes:\n\tInternal id, candidate name, candidate agenda, candidate voting counter, candidate picture */\n\tstruct Candidate {\n\t\tuint id; //0\n\t\tstring name; //1\n\t\tstring agenda; //2\n\t\tuint counter; //3\n\t\tstring candidatePicture; //4\n\t\taddress candidateAddress; //5\n\t}\n\n\t// The mapping (candidates) is between candidate id to the candidates attributes\n\tmapping(uint => Candidate) public candidates;\n\n\t/* The mapping (voters) is between the voter address and {0,1,2,3,4}.\n\t\"0\" stands for no voting rights\n\t\"1\" stands for the user has a voting right & question rights that wasn't exercised\n\t\"2\" stands for the user has a voting right but asked a question\n\t\"3\" stands for the user has voted\n\t\"4\" stands for pending request for voting rights */\n\tmapping(address => uint) public voters;\n\n\tmapping(uint => address) public registeredVoters;\n\n\tuint public numberOfCandidates;\n\taddress public admin;\n\tuint public votingStartDate; // Voting start date\n\tuint public votingEndDate; // Voting end date\n\tuint public numberOfVoters;\n\tbool public isVotingDatesConfigured;\n\tSuperCoin private coin;\n\n\tconstructor () public {\n\t\tadmin = msg.sender;\n\t\tvotingStartDate = 0;\n\t\tvotingEndDate = 1;\n\t\tisVotingDatesConfigured = false;\n\t\tregisteredVoters[1] = msg.sender;\n\t\tnumberOfVoters = 1;\n\t\tvoters[msg.sender] = 1;\n\t\tcoin = new SuperCoin(6262019);\n\t}\n\n\t// The modifier (onlyAdmin) insure that only an admin can use the function\n\tmodifier onlyAdmin { require( msg.sender == admin, \"Only Admin can call this function.\");_; }\n\n\t// The modifier (whileVoting) limits changes after voting started (such as adding a candidate or adding voters)\n\tmodifier whileVoting { require(now < votingEndDate && now >= votingStartDate, \"Voting has NOT started yet.\");_; }\n\n\t// The modifier (beforeVotingStarted) insure that now is prior to voting start date\n\tmodifier beforeVotingStarted { require( votingStartDate > now, \"Voting has started, this is not allowed during voting time\");_; }\n\n\t//MARK: - Getters\n\n  \tfunction isAdmin (address _checkAdmin) public view returns (bool TF) {\n    \treturn (_checkAdmin == admin);\n  \t}\n\n\t// The function (voterStatus) will return the voting status of the sender {0,1,2}\n\tfunction voterStatus () public view returns (uint status) {\n\t\treturn (voters[msg.sender]);\n\t}\n\n\tfunction endVoting () public view returns (bool index) {\n\t\treturn (now > votingEndDate);\n\t}\n\n\t/* The function (balanceOf) returns the number of tokens that a particular address,\n\tin this case, the contract owner, has in their account. */\n\tfunction balanceOf (address _coinOwner) public view returns (uint) {\n\t\treturn coin.voterBalance(_coinOwner);\n\t}\n\n\t//MARK: - Setters\n\t/* The function (addingCandidate) is limited for admin use only (with the help of the onlyAdmin modifier)\n\tand can be used only before voting starts (with the help of the beforeVotingStarted modifier), that is, adding a new\n\tcandidate should take place only before voting starts */\n\tfunction addingCandidate (string memory _name, string memory _agenda, string memory _picture, address _address) public onlyAdmin beforeVotingStarted { // Adding a new candidate to candidates mapping\n\t\tnumberOfCandidates++;\n\t\tcandidates[numberOfCandidates] = Candidate(numberOfCandidates, _name, _agenda, 0, _picture, _address);\n\t\temit CandidatesAdded(numberOfCandidates);\n\t}\n\n\t// The function (defineVotingDates) is limited for admin use only (with the help of the onlyAdmin modifier)\n\tfunction defineVotingDates (uint _startDate, uint _endDate) public onlyAdmin  {\n\t\trequire ( _endDate > _startDate && _startDate > now, \"Dates are not valid\");\n\t\trequire (votingStartDate == 0 && votingEndDate == 1, \"Dates already defined\"); // Dates can be defined only once\n\t\tvotingStartDate = _startDate;\n\t\tvotingEndDate = _endDate;\n\t\tisVotingDatesConfigured = true;\n\t}\n\n\t/* The function (vote) can be used only while voting time period (with the help of th whileVoting modifier),\n\tit insure the user has voting rights and didn't use them allredy, and pay the voter after he votes. With the\n\tfirst require we insure that voter didn't vote in the past and has the right to vote. The seconde require\n\tinsure that the candidate exists */\n\tfunction vote (uint _candidateId) public whileVoting {\n\t\trequire(voters[msg.sender] >= 1 && voters[msg.sender] <= 2, \"You can not vote, you voted in the past, or you do not have the right to vote\");\n\t\trequire(_candidateId > 0 && _candidateId <= numberOfCandidates, \"This candidate doesn't exist\");\n\t\tcandidates[_candidateId].counter ++; // Increase candidate counter\n\t\tvoters[msg.sender] = 3; // Update users status\n    emit VotingTookPlace(_candidateId);\n    getPaid(msg.sender); // after coin is good\n\t}\n\n\t/* The function (addVoters) is limited for admin use only (with the help of the onlyAdmin modifier)\n\t\tand can be used only before voting starts (with the help of the beforeVotingStarted modifier), that is, adding a new\n\t\tvoter should take place only before voting starts */\n\tfunction addVoters (address[] memory _voters) public onlyAdmin beforeVotingStarted {\n\t\tfor (uint i = 0; i < _voters.length; i++) {\n\t\t\tif (voters[_voters[i]] != 1) {\n\t\t\t\tvoters[_voters[i]] = 1;\n\t\t\t\tnumberOfVoters++;\n\t\t\t\tregisteredVoters[numberOfVoters] = _voters[i];\n\t\t\t}\n\t\t}\n\t\temit VotersAdded();\n\t}\n\n\t//MARK: - Private\n\t/* The function (getPaid) will reward any voter which is entitle, that is, either the voter voted or\n\the asked a question were all candidates answered */\n\tfunction getPaid (address _receiver) private {\n\t\t//require(coin.voterBalance(admin) > 0, \"Next time please vote earlier\");\n\t\tcoin.transferCoin(_receiver, 1); // new line - 1 coin for a vote\n\t\temit VoterGotPaidForVoting(_receiver);\n\t}\n\n\t//MARK: - Events\n\tevent VoterGotPaidForVoting (address indexed receiver);\n\tevent VotingTookPlace (uint indexed candidateId);\n\tevent CandidatesAdded (uint indexed candidateId);\n\tevent VotersAdded ();\n\n\n\t//----------------------------------------------------------------------------------------------------------------------------//\n\t/* Bonus part: Questions from voters and answers candidates + enabling user to request voting rights\n\n\tIn order to encourage vote, debate and contact with candidates we thought about a mechanism of questions and answers\n\tEach voter, after voting started, has the right to ask all candidates one question,\n\tif all candidates answered this questions (that is the question was relevant) the voter receives a reward (coin).*/\n\t// The mapping is between question id to question struct\n\tmapping (uint => Question) public questionList;\n\t// The mapping is between questions and answers\n\tmapping (uint => mapping (address => string)) public answerList;\n\n\t/* The struct (Question) has the following attributes:\n\tquestion, counter of answers, questioner address */\n\tstruct Question {\n\t\tstring question;\n\t\tuint answerCounter;\n\t\taddress questioner;\n\t}\n\n\tuint public numberOfQuestions; // Counter for the number of questions been asked\n\n\t/* The function (addQuestion) can be used only while voting time period (with the help of the whileVoting modifier),\n\tit insure that the voter has voting & question rights, saves the question and update the counter */\n\tfunction addQuestion (string memory _question) public whileVoting {\n\t\trequire(voters[msg.sender] == 1 , \"Question can't be asked\"); // make sure he has voting & asking rights\n\t\tnumberOfQuestions++;\n\t\tvoters[msg.sender] = 2; // mark he asked a question\n\t\tquestionList[numberOfQuestions] = Question(_question, 0, msg.sender);\n\t\temit NewQuestion(numberOfQuestions);\n\t}\n\n\t/* The function (addAnswer) can be used only be used only by candidates (with the help of isCandidate function),\n\tinsure that the candidate didn't answer in the past, updates the answers, and check if the questioner\n\tentitled to the reward */\n\tfunction addAnswer (string memory _answer, uint _questionId) public {\n\t\trequire(getStringLength(answerList[_questionId][msg.sender]) == 0); // make sure he didn't answered this question\n\t\trequire(isCandidate(msg.sender)); // make sure he is a candidate\n\t\tanswerList[_questionId][msg.sender] = _answer; // save answer of the candidate\n\t\tquestionList[_questionId].answerCounter++; // increase by 1 the answer counter\n\t\tif (questionList[_questionId].answerCounter == numberOfCandidates) { // if answer counter == number of candidates => pay the voter\n\t\t\tgetPaid(questionList[_questionId].questioner);\n\t\t}\n\t\temit NewAnswer(_questionId, msg.sender);\n\n\t}\n\n\tfunction getStringLength (string memory _string) private pure returns(uint _length) {\n\t\tbytes memory helper = bytes(_string);\n\t\treturn (helper.length);\n\t}\n\n\tfunction isCandidate (address _helper) public view returns(bool ok) {\n\t\tfor (uint i = 1; i <= numberOfCandidates; i++) {\n\t\t\tif (candidates[i].candidateAddress == _helper) {\n\t\t\t\treturn(true);\n\t\t\t}\n\t\t}\n\t\treturn(false);\n\t}\n\n\tevent NewQuestion (uint indexed questionId);\n\tevent NewAnswer (uint indexed questionId, address indexed candidateId);\n\n\t// Enabling user to request voting rights - voter can request from admin to get voting rights:\n\n\tmapping (uint => address) public pendingVoters;\n\tuint public numberOfPendingRequest;\n\n\t/* The function (addNewRequesst) can be used only before voting started (with the help of the beforeVoting modifer).\n\tIt the the requester hasn't have voting rights and does n ot have anther pendding request.\n\tupdate requester status to pendding request (voters == 4) and updating the pendingVoters mapping */\n\tfunction addNewRequest () public beforeVotingStarted {\n\t\trequire(voters[msg.sender] == 0, \"Your request is invalid\"); // insure he hasn't have voting rights\n\t\tvoters[msg.sender] = 4; // update requester status to pendding request\n\t\tnumberOfPendingRequest++; // increase counter by one\n\t\tpendingVoters[numberOfPendingRequest] = msg.sender;\n\t}\n\n\t/* The function (getPendingRequesters) returns an array of address, oreder by the key in pending voters */\n\tfunction getPendingRequesters() public view onlyAdmin returns(address[] memory _pendingRequesters) {\n\t\taddress[] memory _pendingRequesters;\n\t\tfor(uint i = 1; i <= numberOfPendingRequest; i++) {\n\t\t\t_pendingRequesters[i] = pendingVoters[i];\n\t\t}\n\t\treturn (_pendingRequesters);\n\t}\n\n\tfunction approveRequest(uint _requesterId) public onlyAdmin beforeVotingStarted {\n\t\trequire(voters[pendingVoters[_requesterId]] == 4, \"Can't approve\");\n\t\tvoters[pendingVoters[_requesterId]] == 1; // update his voting rigths\n\t\tpendingVoters[_requesterId] = pendingVoters[numberOfPendingRequest];\n\t\tnumberOfPendingRequest--;\n\t}\n\n}\n",
  "sourcePath": "/Users/danielbachar/Documents/IDC/Blockchain/Final_Project/election/contracts/Election.sol",
  "compiler": {
    "name": "solc",
    "version": "0.5.0+commit.1d4f565a.Emscripten.clang"
  },
  "schemaVersion": "3.0.11",
  "updatedAt": "2019-07-26T07:46:18.867Z",
  "devdoc": {
    "methods": {}
  },
  "userdoc": {
    "methods": {}
  }
}