{
  "contractName": "SuperCoin",
  "abi": [
    {
      "constant": true,
      "inputs": [],
      "name": "name",
      "outputs": [
        {
          "name": "",
          "type": "string"
        }
      ],
      "payable": false,
      "stateMutability": "view",
      "type": "function"
    },
    {
      "constant": true,
      "inputs": [
        {
          "name": "",
          "type": "address"
        }
      ],
      "name": "voterBalance",
      "outputs": [
        {
          "name": "",
          "type": "uint256"
        }
      ],
      "payable": false,
      "stateMutability": "view",
      "type": "function"
    },
    {
      "constant": true,
      "inputs": [],
      "name": "votingCoinTotalSupply",
      "outputs": [
        {
          "name": "",
          "type": "uint256"
        }
      ],
      "payable": false,
      "stateMutability": "view",
      "type": "function"
    },
    {
      "constant": true,
      "inputs": [],
      "name": "symbol",
      "outputs": [
        {
          "name": "",
          "type": "string"
        }
      ],
      "payable": false,
      "stateMutability": "view",
      "type": "function"
    },
    {
      "inputs": [
        {
          "name": "total",
          "type": "uint256"
        }
      ],
      "payable": false,
      "stateMutability": "nonpayable",
      "type": "constructor"
    },
    {
      "anonymous": false,
      "inputs": [
        {
          "indexed": true,
          "name": "coinOwner",
          "type": "address"
        },
        {
          "indexed": true,
          "name": "spender",
          "type": "address"
        },
        {
          "indexed": false,
          "name": "amount",
          "type": "uint256"
        }
      ],
      "name": "Approval",
      "type": "event"
    },
    {
      "anonymous": false,
      "inputs": [
        {
          "indexed": true,
          "name": "sender",
          "type": "address"
        },
        {
          "indexed": true,
          "name": "receiver",
          "type": "address"
        },
        {
          "indexed": false,
          "name": "amount",
          "type": "uint256"
        }
      ],
      "name": "CoinsWereTransfer",
      "type": "event"
    },
    {
      "constant": false,
      "inputs": [
        {
          "name": "_spender",
          "type": "address"
        },
        {
          "name": "_amount",
          "type": "uint256"
        }
      ],
      "name": "approve",
      "outputs": [
        {
          "name": "success",
          "type": "bool"
        }
      ],
      "payable": false,
      "stateMutability": "nonpayable",
      "type": "function"
    },
    {
      "constant": false,
      "inputs": [
        {
          "name": "_receiver",
          "type": "address"
        },
        {
          "name": "_amount",
          "type": "uint256"
        }
      ],
      "name": "transferCoin",
      "outputs": [
        {
          "name": "success",
          "type": "bool"
        }
      ],
      "payable": false,
      "stateMutability": "nonpayable",
      "type": "function"
    },
    {
      "constant": false,
      "inputs": [
        {
          "name": "_allocator",
          "type": "address"
        },
        {
          "name": "_amount",
          "type": "uint256"
        },
        {
          "name": "_receiver",
          "type": "address"
        }
      ],
      "name": "transferFrom",
      "outputs": [
        {
          "name": "success",
          "type": "bool"
        }
      ],
      "payable": false,
      "stateMutability": "nonpayable",
      "type": "function"
    }
  ],
  "bytecode": "0x6080604052625f8d0360025534801561001757600080fd5b50604051602080610c878339810180604052602081101561003757600080fd5b81019080805190602001909291905050506002546000803373ffffffffffffffffffffffffffffffffffffffff1673ffffffffffffffffffffffffffffffffffffffff1681526020019081526020016000208190555050610bea8061009d6000396000f3fe608060405260043610610083576000357c0100000000000000000000000000000000000000000000000000000000900463ffffffff16806306fdde0314610088578063095ea7b3146101185780631a6769671461018b57806377a3e9fd146101f05780638c915b921461021b5780638dde60fa146102ae57806395d89b4114610321575b600080fd5b34801561009457600080fd5b5061009d6103b1565b6040518080602001828103825283818151815260200191508051906020019080838360005b838110156100dd5780820151818401526020810190506100c2565b50505050905090810190601f16801561010a5780820380516001836020036101000a031916815260200191505b509250505060405180910390f35b34801561012457600080fd5b506101716004803603604081101561013b57600080fd5b81019080803573ffffffffffffffffffffffffffffffffffffffff169060200190929190803590602001909291905050506103ea565b604051808215151515815260200191505060405180910390f35b34801561019757600080fd5b506101da600480360360208110156101ae57600080fd5b81019080803573ffffffffffffffffffffffffffffffffffffffff169060200190929190505050610592565b6040518082815260200191505060405180910390f35b3480156101fc57600080fd5b506102056105aa565b6040518082815260200191505060405180910390f35b34801561022757600080fd5b506102946004803603606081101561023e57600080fd5b81019080803573ffffffffffffffffffffffffffffffffffffffff16906020019092919080359060200190929190803573ffffffffffffffffffffffffffffffffffffffff1690602001909291905050506105b0565b604051808215151515815260200191505060405180910390f35b3480156102ba57600080fd5b50610307600480360360408110156102d157600080fd5b81019080803573ffffffffffffffffffffffffffffffffffffffff16906020019092919080359060200190929190505050610902565b604051808215151515815260200191505060405180910390f35b34801561032d57600080fd5b50610336610b85565b6040518080602001828103825283818151815260200191508051906020019080838360005b8381101561037657808201518184015260208101905061035b565b50505050905090810190601f1680156103a35780820380516001836020036101000a031916815260200191505b509250505060405180910390f35b6040805190810160405280600981526020017f5375706572436f696e000000000000000000000000000000000000000000000081525081565b6000816000803373ffffffffffffffffffffffffffffffffffffffff1673ffffffffffffffffffffffffffffffffffffffff16815260200190815260200160002054101515156104a2576040517f08c379a00000000000000000000000000000000000000000000000000000000081526004018080602001828103825260128152602001807f496e73756666696369656e742066756e6473000000000000000000000000000081525060200191505060405180910390fd5b81600160003373ffffffffffffffffffffffffffffffffffffffff1673ffffffffffffffffffffffffffffffffffffffff16815260200190815260200160002060008573ffffffffffffffffffffffffffffffffffffffff1673ffffffffffffffffffffffffffffffffffffffff168152602001908152602001600020819055508273ffffffffffffffffffffffffffffffffffffffff163373ffffffffffffffffffffffffffffffffffffffff167f8c5be1e5ebec7d5bd14f71427d1e84f3dd0314c0f7b2291e5b200ac8c7c3b925846040518082815260200191505060405180910390a36001905092915050565b60006020528060005260406000206000915090505481565b60025481565b60008060008573ffffffffffffffffffffffffffffffffffffffff1673ffffffffffffffffffffffffffffffffffffffff168152602001908152602001600020548311151515610668576040517f08c379a00000000000000000000000000000000000000000000000000000000081526004018080602001828103825260128152602001807f496e73756666696369656e742066756e6473000000000000000000000000000081525060200191505060405180910390fd5b600083111515610706576040517f08c379a00000000000000000000000000000000000000000000000000000000081526004018080602001828103825260218152602001807f43616e2774207472616e73666572206e6f6e2d706f737469766520616d6f756e81526020017f740000000000000000000000000000000000000000000000000000000000000081525060400191505060405180910390fd5b82600160008673ffffffffffffffffffffffffffffffffffffffff1673ffffffffffffffffffffffffffffffffffffffff16815260200190815260200160002060003373ffffffffffffffffffffffffffffffffffffffff1673ffffffffffffffffffffffffffffffffffffffff16815260200190815260200160002054101515156107fa576040517f08c379a000000000000000000000000000000000000000000000000000000000815260040180806020018281038252601b8152602001807f54686520616c6c6f77616e6365206973206e6f7420656e6f756768000000000081525060200191505060405180910390fd5b826000808673ffffffffffffffffffffffffffffffffffffffff1673ffffffffffffffffffffffffffffffffffffffff16815260200190815260200160002060008282540392505081905550826000808473ffffffffffffffffffffffffffffffffffffffff1673ffffffffffffffffffffffffffffffffffffffff168152602001908152602001600020600082825401925050819055508173ffffffffffffffffffffffffffffffffffffffff168473ffffffffffffffffffffffffffffffffffffffff167f814ba8b90e503048feb91c0ef0c273d06444da691eddd6e9b2e1687b63a6621b856040518082815260200191505060405180910390a3600190509392505050565b60008060003373ffffffffffffffffffffffffffffffffffffffff1673ffffffffffffffffffffffffffffffffffffffff1681526020019081526020016000205482111515156109e0576040517f08c379a00000000000000000000000000000000000000000000000000000000081526004018080602001828103825260238152602001807f496e73756666696369656e742066756e64732c207472616e736665722066616981526020017f6c6564000000000000000000000000000000000000000000000000000000000081525060400191505060405180910390fd5b600082111515610a7e576040517f08c379a00000000000000000000000000000000000000000000000000000000081526004018080602001828103825260358152602001807f596f752063616e2774207472616e73666572206e6f6e2d706f7374697665206381526020017f6f696e732c207472616e73666572206661696c6564000000000000000000000081525060400191505060405180910390fd5b816000803373ffffffffffffffffffffffffffffffffffffffff1673ffffffffffffffffffffffffffffffffffffffff16815260200190815260200160002060008282540392505081905550816000808573ffffffffffffffffffffffffffffffffffffffff1673ffffffffffffffffffffffffffffffffffffffff168152602001908152602001600020600082825401925050819055508273ffffffffffffffffffffffffffffffffffffffff163373ffffffffffffffffffffffffffffffffffffffff167f814ba8b90e503048feb91c0ef0c273d06444da691eddd6e9b2e1687b63a6621b846040518082815260200191505060405180910390a36001905092915050565b6040805190810160405280600d81526020017f5375706572436f696e2e706e67000000000000000000000000000000000000008152508156fea165627a7a72305820e6c6b58074e092e4b8f0d01a371ce3156926581fc984deda0e2363c736f396520029",
  "source": "pragma solidity ^0.5.0;\n\ncontract SuperCoin {\n  // Token name\n  string public constant name = \"SuperCoin\";\n  // Token symbol\n  string public constant symbol = \"SuperCoin.png\";\n\n  // Mapping (voterBalance) keys to token balances of a voter\n  mapping(address => uint) public voterBalance;\n\n  // Mapping (allowed) addresses of coin owners to those who are allowed to utilize the owner's coins\n  mapping(address => mapping (address => uint)) private allowed;\n\n  //ERC20 total supply of coins\n  uint public votingCoinTotalSupply = 6262019;\n\n  constructor(uint total) public {\n    voterBalance[msg.sender] = votingCoinTotalSupply;\n  }\n  //MARK: - Getters\n  /*\n  The function (allowance) is used to check the amount (if any) was allowed by a user (allocator) to a spender.\n  */\n  function allowance (address _allocator, address _spender) private view returns (uint _amountAllowed) {\n    return (allowed[_allocator][_spender]);\n  }\n\n  //MARK: - Setters\n  /*\n  The function (approve) checks the balance and after it has been checked, the contract owner can give\n  their approval to the user to collect the required number of tokens from the contract’s address.\n  Need to add to the limitations presentation, once a user has allowed someone some amount of coins,\n  he can only change that allowed amount and can't add.\n  */\n  function approve (address _spender, uint _amount) public returns (bool success) {\n    require( voterBalance[msg.sender] >= _amount, \"Insufficient funds\");\n    allowed[msg.sender][_spender] = _amount;\n    emit Approval(msg.sender, _spender, _amount);\n    return (true);\n  }\n\n  /*\n  The function (transferCoin) is used to move an amount of tokens from the owner’s balance to that of another user (receiver)\n  */\n  function transferCoin (address _receiver, uint _amount) public returns (bool success) { // The purpose of the function is to enable transfer of funds from one user to another\n    require(_amount <= voterBalance[msg.sender], \"Insufficient funds, transfer failed\"); // Insure that the sender has enough coins\n    require(_amount > 0 , \"You can't transfer non-postive coins, transfer failed\");\n    voterBalance[msg.sender] -= _amount; // Update sender account\n    voterBalance[_receiver] += _amount; // Update receiver amount\n    emit CoinsWereTransfer(msg.sender, _receiver, _amount);\n    return (true);\n  }\n\n  /*\n  The function (transferFrom) allows a user to transfer the allowed coins by the _allocator (if allowed) and to\n  transfer it to any other account.\n  */\n  function transferFrom (address _allocator, uint _amount, address _receiver) public returns (bool success) {\n    require(_amount <= voterBalance[_allocator], \"Insufficient funds\"); // insure the _allocator has the amount\n    require(_amount > 0, \"Can't transfer non-postive amount\");\n    require(allowed[_allocator][msg.sender] >= _amount, \"The allowance is not enough\");\n    voterBalance[_allocator] -= _amount;\n    voterBalance[_receiver] += _amount;\n    emit CoinsWereTransfer(_allocator, _receiver, _amount);\n    return (true);\n  }\n\n  //MARK: - Events\n  event Approval(address indexed coinOwner, address indexed spender, uint amount);\n  event CoinsWereTransfer(address indexed sender, address indexed receiver, uint amount);\n}\n",
  "sourcePath": "/Users/danielbachar/Documents/IDC/Blockchain/Final_Project/election/contracts/SuperCoin.sol",
  "compiler": {
    "name": "solc",
    "version": "0.5.0+commit.1d4f565a.Emscripten.clang"
  },
  "schemaVersion": "3.0.11",
  "updatedAt": "2019-07-26T08:12:49.439Z",
  "devdoc": {
    "methods": {}
  },
  "userdoc": {
    "methods": {}
  }
}