{
  "contractName": "Voting",
  "abi": [
    {
      "constant": true,
      "inputs": [],
      "name": "name",
      "outputs": [
        {
          "name": "",
          "type": "string"
        }
      ],
      "payable": false,
      "stateMutability": "view",
      "type": "function"
    },
    {
      "constant": true,
      "inputs": [],
      "name": "votingStartDate",
      "outputs": [
        {
          "name": "",
          "type": "uint256"
        }
      ],
      "payable": false,
      "stateMutability": "view",
      "type": "function"
    },
    {
      "constant": true,
      "inputs": [
        {
          "name": "",
          "type": "address"
        }
      ],
      "name": "voterBalance",
      "outputs": [
        {
          "name": "",
          "type": "uint256"
        }
      ],
      "payable": false,
      "stateMutability": "view",
      "type": "function"
    },
    {
      "constant": true,
      "inputs": [
        {
          "name": "",
          "type": "uint256"
        }
      ],
      "name": "candidates",
      "outputs": [
        {
          "name": "id",
          "type": "uint256"
        },
        {
          "name": "name",
          "type": "string"
        },
        {
          "name": "agenda",
          "type": "string"
        },
        {
          "name": "counter",
          "type": "uint256"
        },
        {
          "name": "candidatePictuer",
          "type": "string"
        }
      ],
      "payable": false,
      "stateMutability": "view",
      "type": "function"
    },
    {
      "constant": true,
      "inputs": [],
      "name": "votingEndDate",
      "outputs": [
        {
          "name": "",
          "type": "uint256"
        }
      ],
      "payable": false,
      "stateMutability": "view",
      "type": "function"
    },
    {
      "constant": true,
      "inputs": [],
      "name": "votingCoinTotalSupply",
      "outputs": [
        {
          "name": "",
          "type": "uint256"
        }
      ],
      "payable": false,
      "stateMutability": "view",
      "type": "function"
    },
    {
      "constant": true,
      "inputs": [],
      "name": "symbol",
      "outputs": [
        {
          "name": "",
          "type": "string"
        }
      ],
      "payable": false,
      "stateMutability": "view",
      "type": "function"
    },
    {
      "constant": true,
      "inputs": [],
      "name": "numberOfVoters",
      "outputs": [
        {
          "name": "",
          "type": "uint256"
        }
      ],
      "payable": false,
      "stateMutability": "view",
      "type": "function"
    },
    {
      "constant": true,
      "inputs": [],
      "name": "numberOfCandidates",
      "outputs": [
        {
          "name": "",
          "type": "uint256"
        }
      ],
      "payable": false,
      "stateMutability": "view",
      "type": "function"
    },
    {
      "constant": true,
      "inputs": [
        {
          "name": "",
          "type": "address"
        }
      ],
      "name": "voters",
      "outputs": [
        {
          "name": "",
          "type": "uint256"
        }
      ],
      "payable": false,
      "stateMutability": "view",
      "type": "function"
    },
    {
      "constant": true,
      "inputs": [],
      "name": "admin",
      "outputs": [
        {
          "name": "",
          "type": "address"
        }
      ],
      "payable": false,
      "stateMutability": "view",
      "type": "function"
    },
    {
      "inputs": [],
      "payable": false,
      "stateMutability": "nonpayable",
      "type": "constructor"
    },
    {
      "anonymous": false,
      "inputs": [],
      "name": "VotingTookPlace",
      "type": "event"
    },
    {
      "anonymous": false,
      "inputs": [
        {
          "indexed": true,
          "name": "candidateName",
          "type": "string"
        }
      ],
      "name": "AddingCandidate",
      "type": "event"
    },
    {
      "anonymous": false,
      "inputs": [
        {
          "indexed": true,
          "name": "voter",
          "type": "address"
        }
      ],
      "name": "AddVoter",
      "type": "event"
    },
    {
      "anonymous": false,
      "inputs": [
        {
          "indexed": true,
          "name": "coinOwner",
          "type": "address"
        },
        {
          "indexed": true,
          "name": "spender",
          "type": "address"
        },
        {
          "indexed": false,
          "name": "amount",
          "type": "uint256"
        }
      ],
      "name": "Approval",
      "type": "event"
    },
    {
      "anonymous": false,
      "inputs": [
        {
          "indexed": true,
          "name": "receiver",
          "type": "address"
        }
      ],
      "name": "VoterGotPaidForVoting",
      "type": "event"
    },
    {
      "anonymous": false,
      "inputs": [
        {
          "indexed": true,
          "name": "sender",
          "type": "address"
        },
        {
          "indexed": true,
          "name": "receiver",
          "type": "address"
        },
        {
          "indexed": false,
          "name": "amount",
          "type": "uint256"
        }
      ],
      "name": "CoinsWereTransfer",
      "type": "event"
    },
    {
      "constant": false,
      "inputs": [
        {
          "name": "_name",
          "type": "string"
        },
        {
          "name": "_agenda",
          "type": "string"
        },
        {
          "name": "_pictuer",
          "type": "string"
        }
      ],
      "name": "addingCandidate",
      "outputs": [],
      "payable": false,
      "stateMutability": "nonpayable",
      "type": "function"
    },
    {
      "constant": false,
      "inputs": [
        {
          "name": "_startDate",
          "type": "uint256"
        },
        {
          "name": "_endDate",
          "type": "uint256"
        }
      ],
      "name": "defineVotingDates",
      "outputs": [],
      "payable": false,
      "stateMutability": "nonpayable",
      "type": "function"
    },
    {
      "constant": false,
      "inputs": [
        {
          "name": "_candidateId",
          "type": "uint256"
        }
      ],
      "name": "vote",
      "outputs": [],
      "payable": false,
      "stateMutability": "nonpayable",
      "type": "function"
    },
    {
      "constant": false,
      "inputs": [
        {
          "name": "_voter",
          "type": "address"
        }
      ],
      "name": "addVoter",
      "outputs": [],
      "payable": false,
      "stateMutability": "nonpayable",
      "type": "function"
    },
    {
      "constant": true,
      "inputs": [],
      "name": "voterStatus",
      "outputs": [
        {
          "name": "status",
          "type": "uint256"
        }
      ],
      "payable": false,
      "stateMutability": "view",
      "type": "function"
    },
    {
      "constant": true,
      "inputs": [],
      "name": "totalSupply",
      "outputs": [
        {
          "name": "theTotalSupply",
          "type": "uint256"
        }
      ],
      "payable": false,
      "stateMutability": "view",
      "type": "function"
    },
    {
      "constant": true,
      "inputs": [
        {
          "name": "_coinOwner",
          "type": "address"
        }
      ],
      "name": "balanceOf",
      "outputs": [
        {
          "name": "",
          "type": "uint256"
        }
      ],
      "payable": false,
      "stateMutability": "view",
      "type": "function"
    },
    {
      "constant": false,
      "inputs": [
        {
          "name": "_spender",
          "type": "address"
        },
        {
          "name": "_amount",
          "type": "uint256"
        }
      ],
      "name": "approve",
      "outputs": [
        {
          "name": "success",
          "type": "bool"
        }
      ],
      "payable": false,
      "stateMutability": "nonpayable",
      "type": "function"
    },
    {
      "constant": false,
      "inputs": [
        {
          "name": "_receiver",
          "type": "address"
        },
        {
          "name": "_amount",
          "type": "uint256"
        }
      ],
      "name": "transferCoin",
      "outputs": [
        {
          "name": "success",
          "type": "bool"
        }
      ],
      "payable": false,
      "stateMutability": "nonpayable",
      "type": "function"
    },
    {
      "constant": false,
      "inputs": [
        {
          "name": "_allocator",
          "type": "address"
        },
        {
          "name": "_amount",
          "type": "uint256"
        },
        {
          "name": "_receiver",
          "type": "address"
        }
      ],
      "name": "transferFrom",
      "outputs": [
        {
          "name": "success",
          "type": "bool"
        }
      ],
      "payable": false,
      "stateMutability": "nonpayable",
      "type": "function"
    }
  ],
  "bytecode": "0x6080604052625f8d0360095534801561001757600080fd5b5033600260006101000a81548173ffffffffffffffffffffffffffffffffffffffff021916908373ffffffffffffffffffffffffffffffffffffffff16021790555060006003819055506001600481905550600954600760003373ffffffffffffffffffffffffffffffffffffffff1673ffffffffffffffffffffffffffffffffffffffff1681526020019081526020016000208190555061229a806100be6000396000f3fe60806040526004361061011d576000357c0100000000000000000000000000000000000000000000000000000000900463ffffffff1680630121b93f1461012257806306fdde031461015d578063095ea7b3146101ed578063171254661461026057806318160ddd1461028b5780631a676967146102b65780633477ee2e1461031b57806353981fe1146104b557806357a470d9146104e057806370a08231146106d657806377a3e9fd1461073b5780638c915b92146107665780638dde60fa146107f9578063908ea91d1461086c57806395d89b41146108975780639bcc3361146109275780639c84bb2714610952578063a3ec138d1461097d578063c74e9b77146109e2578063f4ab9adf14610a27578063f851a44014610a78575b600080fd5b34801561012e57600080fd5b5061015b6004803603602081101561014557600080fd5b8101908080359060200190929190505050610acf565b005b34801561016957600080fd5b50610172610d7f565b6040518080602001828103825283818151815260200191508051906020019080838360005b838110156101b2578082015181840152602081019050610197565b50505050905090810190601f1680156101df5780820380516001836020036101000a031916815260200191505b509250505060405180910390f35b3480156101f957600080fd5b506102466004803603604081101561021057600080fd5b81019080803573ffffffffffffffffffffffffffffffffffffffff16906020019092919080359060200190929190505050610db8565b604051808215151515815260200191505060405180910390f35b34801561026c57600080fd5b50610275610f61565b6040518082815260200191505060405180910390f35b34801561029757600080fd5b506102a0610f67565b6040518082815260200191505060405180910390f35b3480156102c257600080fd5b50610305600480360360208110156102d957600080fd5b81019080803573ffffffffffffffffffffffffffffffffffffffff16906020019092919050505061105f565b6040518082815260200191505060405180910390f35b34801561032757600080fd5b506103546004803603602081101561033e57600080fd5b8101908080359060200190929190505050611077565b60405180868152602001806020018060200185815260200180602001848103845288818151815260200191508051906020019080838360005b838110156103a857808201518184015260208101905061038d565b50505050905090810190601f1680156103d55780820380516001836020036101000a031916815260200191505b50848103835287818151815260200191508051906020019080838360005b8381101561040e5780820151818401526020810190506103f3565b50505050905090810190601f16801561043b5780820380516001836020036101000a031916815260200191505b50848103825285818151815260200191508051906020019080838360005b83811015610474578082015181840152602081019050610459565b50505050905090810190601f1680156104a15780820380516001836020036101000a031916815260200191505b509850505050505050505060405180910390f35b3480156104c157600080fd5b506104ca611275565b6040518082815260200191505060405180910390f35b3480156104ec57600080fd5b506106d46004803603606081101561050357600080fd5b810190808035906020019064010000000081111561052057600080fd5b82018360208201111561053257600080fd5b8035906020019184600183028401116401000000008311171561055457600080fd5b91908080601f016020809104026020016040519081016040528093929190818152602001838380828437600081840152601f19601f820116905080830192505050505050509192919290803590602001906401000000008111156105b757600080fd5b8201836020820111156105c957600080fd5b803590602001918460018302840111640100000000831117156105eb57600080fd5b91908080601f016020809104026020016040519081016040528093929190818152602001838380828437600081840152601f19601f8201169050808301925050505050505091929192908035906020019064010000000081111561064e57600080fd5b82018360208201111561066057600080fd5b8035906020019184600183028401116401000000008311171561068257600080fd5b91908080601f016020809104026020016040519081016040528093929190818152602001838380828437600081840152601f19601f82011690508083019250505050505050919291929050505061127b565b005b3480156106e257600080fd5b50610725600480360360208110156106f957600080fd5b81019080803573ffffffffffffffffffffffffffffffffffffffff169060200190929190505050611558565b6040518082815260200191505060405180910390f35b34801561074757600080fd5b506107506115a1565b6040518082815260200191505060405180910390f35b34801561077257600080fd5b506107df6004803603606081101561078957600080fd5b81019080803573ffffffffffffffffffffffffffffffffffffffff16906020019092919080359060200190929190803573ffffffffffffffffffffffffffffffffffffffff1690602001909291905050506115a7565b604051808215151515815260200191505060405180910390f35b34801561080557600080fd5b506108526004803603604081101561081c57600080fd5b81019080803573ffffffffffffffffffffffffffffffffffffffff169060200190929190803590602001909291905050506118fc565b604051808215151515815260200191505060405180910390f35b34801561087857600080fd5b50610881611b82565b6040518082815260200191505060405180910390f35b3480156108a357600080fd5b506108ac611bc9565b6040518080602001828103825283818151815260200191508051906020019080838360005b838110156108ec5780820151818401526020810190506108d1565b50505050905090810190601f1680156109195780820380516001836020036101000a031916815260200191505b509250505060405180910390f35b34801561093357600080fd5b5061093c611c02565b6040518082815260200191505060405180910390f35b34801561095e57600080fd5b50610967611c08565b6040518082815260200191505060405180910390f35b34801561098957600080fd5b506109cc600480360360208110156109a057600080fd5b81019080803573ffffffffffffffffffffffffffffffffffffffff169060200190929190505050611c0e565b6040518082815260200191505060405180910390f35b3480156109ee57600080fd5b50610a2560048036036040811015610a0557600080fd5b810190808035906020019092919080359060200190929190505050611c26565b005b348015610a3357600080fd5b50610a7660048036036020811015610a4a57600080fd5b81019080803573ffffffffffffffffffffffffffffffffffffffff169060200190929190505050611e2d565b005b348015610a8457600080fd5b50610a8d612054565b604051808273ffffffffffffffffffffffffffffffffffffffff1673ffffffffffffffffffffffffffffffffffffffff16815260200191505060405180910390f35b60045442108015610ae257506003544210155b1515610b56576040517f08c379a00000000000000000000000000000000000000000000000000000000081526004018080602001828103825260138152602001807f566f74696e672068617320737461727465642e0000000000000000000000000081525060200191505060405180910390fd5b6001600660003373ffffffffffffffffffffffffffffffffffffffff1673ffffffffffffffffffffffffffffffffffffffff16815260200190815260200160002054141515610c59576040517f08c379a000000000000000000000000000000000000000000000000000000000815260040180806020018281038252604d8152602001807f596f752063616e206e6f7420766f74652c20796f7520766f74656420696e207481526020017f686520706173742c206f7220796f7520646f206e6f742068617665207468652081526020017f726967687420746f20766f74650000000000000000000000000000000000000081525060600191505060405180910390fd5b600081118015610c6b57506001548111155b1515610cdf576040517f08c379a000000000000000000000000000000000000000000000000000000000815260040180806020018281038252601c8152602001807f546869732063616e64696461746520646f65736e27742065786973740000000081525060200191505060405180910390fd5b600080828152602001908152602001600020600301600081548092919060010191905055506002600660003373ffffffffffffffffffffffffffffffffffffffff1673ffffffffffffffffffffffffffffffffffffffff16815260200190815260200160002050507f28b0879b6543e0c0dc8f9aaf89f98ea8304ffc283022b5f70b05559f8622bea560405160405180910390a1610d7c3361207a565b50565b6040805190810160405280600b81526020017f564f54494e475f434f494e00000000000000000000000000000000000000000081525081565b600081600760003373ffffffffffffffffffffffffffffffffffffffff1673ffffffffffffffffffffffffffffffffffffffff1681526020019081526020016000205410151515610e71576040517f08c379a00000000000000000000000000000000000000000000000000000000081526004018080602001828103825260128152602001807f496e73756666696369656e742066756e6473000000000000000000000000000081525060200191505060405180910390fd5b81600860003373ffffffffffffffffffffffffffffffffffffffff1673ffffffffffffffffffffffffffffffffffffffff16815260200190815260200160002060008573ffffffffffffffffffffffffffffffffffffffff1673ffffffffffffffffffffffffffffffffffffffff168152602001908152602001600020819055508273ffffffffffffffffffffffffffffffffffffffff163373ffffffffffffffffffffffffffffffffffffffff167f8c5be1e5ebec7d5bd14f71427d1e84f3dd0314c0f7b2291e5b200ac8c7c3b925846040518082815260200191505060405180910390a36001905092915050565b60035481565b6000600260009054906101000a900473ffffffffffffffffffffffffffffffffffffffff1673ffffffffffffffffffffffffffffffffffffffff163373ffffffffffffffffffffffffffffffffffffffff16141515611054576040517f08c379a00000000000000000000000000000000000000000000000000000000081526004018080602001828103825260228152602001807f4f6e6c792041646d696e2063616e2063616c6c20746869732066756e6374696f81526020017f6e2e00000000000000000000000000000000000000000000000000000000000081525060400191505060405180910390fd5b600954905080905090565b60076020528060005260406000206000915090505481565b6000602052806000526040600020600091509050806000015490806001018054600181600116156101000203166002900480601f0160208091040260200160405190810160405280929190818152602001828054600181600116156101000203166002900480156111295780601f106110fe57610100808354040283529160200191611129565b820191906000526020600020905b81548152906001019060200180831161110c57829003601f168201915b505050505090806002018054600181600116156101000203166002900480601f0160208091040260200160405190810160405280929190818152602001828054600181600116156101000203166002900480156111c75780601f1061119c576101008083540402835291602001916111c7565b820191906000526020600020905b8154815290600101906020018083116111aa57829003601f168201915b505050505090806003015490806004018054600181600116156101000203166002900480601f01602080910402602001604051908101604052809291908181526020018280546001816001161561010002031660029004801561126b5780601f106112405761010080835404028352916020019161126b565b820191906000526020600020905b81548152906001019060200180831161124e57829003601f168201915b5050505050905085565b60045481565b600260009054906101000a900473ffffffffffffffffffffffffffffffffffffffff1673ffffffffffffffffffffffffffffffffffffffff163373ffffffffffffffffffffffffffffffffffffffff16141515611366576040517f08c379a00000000000000000000000000000000000000000000000000000000081526004018080602001828103825260228152602001807f4f6e6c792041646d696e2063616e2063616c6c20746869732066756e6374696f81526020017f6e2e00000000000000000000000000000000000000000000000000000000000081525060400191505060405180910390fd5b42600354111515611405576040517f08c379a000000000000000000000000000000000000000000000000000000000815260040180806020018281038252602e8152602001807f566f74696e672068617320737461727465642c2063616e20626f74206164642081526020017f6e65772063616e6469646174657300000000000000000000000000000000000081525060400191505060405180910390fd5b60016000815480929190600101919050555060a06040519081016040528060015481526020018481526020018381526020016000815260200182815250600080600154815260200190815260200160002060008201518160000155602082015181600101908051906020019061147c9291906121c9565b5060408201518160020190805190602001906114999291906121c9565b506060820151816003015560808201518160040190805190602001906114c09291906121c9565b50905050826040518082805190602001908083835b6020831015156114fa57805182526020820191506020810190506020830392506114d5565b6001836020036101000a03801982511681845116808217855250505050505090500191505060405180910390207fdf9f26df20bedf9c383eac3dbc37368754cd5a670279143deda672a74d4e05e860405160405180910390a2505050565b6000600760008373ffffffffffffffffffffffffffffffffffffffff1673ffffffffffffffffffffffffffffffffffffffff168152602001908152602001600020549050919050565b60095481565b6000600760008573ffffffffffffffffffffffffffffffffffffffff1673ffffffffffffffffffffffffffffffffffffffff168152602001908152602001600020548311151515611660576040517f08c379a00000000000000000000000000000000000000000000000000000000081526004018080602001828103825260128152602001807f496e73756666696369656e742066756e6473000000000000000000000000000081525060200191505060405180910390fd5b6000831115156116fe576040517f08c379a00000000000000000000000000000000000000000000000000000000081526004018080602001828103825260218152602001807f43616e2774207472616e73666572206e6f6e2d706f737469766520616d6f756e81526020017f740000000000000000000000000000000000000000000000000000000000000081525060400191505060405180910390fd5b82600860008673ffffffffffffffffffffffffffffffffffffffff1673ffffffffffffffffffffffffffffffffffffffff16815260200190815260200160002060003373ffffffffffffffffffffffffffffffffffffffff1673ffffffffffffffffffffffffffffffffffffffff16815260200190815260200160002054101515156117f2576040517f08c379a000000000000000000000000000000000000000000000000000000000815260040180806020018281038252601b8152602001807f54686520616c6c6f77616e6365206973206e6f7420656e6f756768000000000081525060200191505060405180910390fd5b82600760008673ffffffffffffffffffffffffffffffffffffffff1673ffffffffffffffffffffffffffffffffffffffff1681526020019081526020016000206000828254039250508190555082600760008473ffffffffffffffffffffffffffffffffffffffff1673ffffffffffffffffffffffffffffffffffffffff168152602001908152602001600020600082825401925050819055508173ffffffffffffffffffffffffffffffffffffffff168473ffffffffffffffffffffffffffffffffffffffff167f814ba8b90e503048feb91c0ef0c273d06444da691eddd6e9b2e1687b63a6621b856040518082815260200191505060405180910390a3600190509392505050565b6000600760003373ffffffffffffffffffffffffffffffffffffffff1673ffffffffffffffffffffffffffffffffffffffff1681526020019081526020016000205482111515156119db576040517f08c379a00000000000000000000000000000000000000000000000000000000081526004018080602001828103825260228152602001807f496e73756666696369656e742066756e64732c207472616e736665722066616981526020017f6c6400000000000000000000000000000000000000000000000000000000000081525060400191505060405180910390fd5b600082111515611a79576040517f08c379a00000000000000000000000000000000000000000000000000000000081526004018080602001828103825260348152602001807f596f752063616e2774207472616e73666572206e6f6e2d706f7374697665206381526020017f6f696e732c207472616e73666572206661696c6400000000000000000000000081525060400191505060405180910390fd5b81600760003373ffffffffffffffffffffffffffffffffffffffff1673ffffffffffffffffffffffffffffffffffffffff1681526020019081526020016000206000828254039250508190555081600760008573ffffffffffffffffffffffffffffffffffffffff1673ffffffffffffffffffffffffffffffffffffffff168152602001908152602001600020600082825401925050819055508273ffffffffffffffffffffffffffffffffffffffff163373ffffffffffffffffffffffffffffffffffffffff167f814ba8b90e503048feb91c0ef0c273d06444da691eddd6e9b2e1687b63a6621b846040518082815260200191505060405180910390a36001905092915050565b6000600660003373ffffffffffffffffffffffffffffffffffffffff1673ffffffffffffffffffffffffffffffffffffffff16815260200190815260200160002054905090565b6040805190810160405280600381526020017f53594d000000000000000000000000000000000000000000000000000000000081525081565b60055481565b60015481565b60066020528060005260406000206000915090505481565b600260009054906101000a900473ffffffffffffffffffffffffffffffffffffffff1673ffffffffffffffffffffffffffffffffffffffff163373ffffffffffffffffffffffffffffffffffffffff16141515611d11576040517f08c379a00000000000000000000000000000000000000000000000000000000081526004018080602001828103825260228152602001807f4f6e6c792041646d696e2063616e2063616c6c20746869732066756e6374696f81526020017f6e2e00000000000000000000000000000000000000000000000000000000000081525060400191505060405180910390fd5b8181118015611d1f57504282115b1515611d93576040517f08c379a00000000000000000000000000000000000000000000000000000000081526004018080602001828103825260138152602001807f446174657320617265206e6f742076616c69640000000000000000000000000081525060200191505060405180910390fd5b6000600354148015611da757506001600454145b1515611e1b576040517f08c379a00000000000000000000000000000000000000000000000000000000081526004018080602001828103825260168152602001807f446174657320616c6c726561647920646566696e65640000000000000000000081525060200191505060405180910390fd5b81600381905550806004819055505050565b600260009054906101000a900473ffffffffffffffffffffffffffffffffffffffff1673ffffffffffffffffffffffffffffffffffffffff163373ffffffffffffffffffffffffffffffffffffffff16141515611f18576040517f08c379a00000000000000000000000000000000000000000000000000000000081526004018080602001828103825260228152602001807f4f6e6c792041646d696e2063616e2063616c6c20746869732066756e6374696f81526020017f6e2e00000000000000000000000000000000000000000000000000000000000081525060400191505060405180910390fd5b42600354111515611fb7576040517f08c379a000000000000000000000000000000000000000000000000000000000815260040180806020018281038252602e8152602001807f566f74696e672068617320737461727465642c2063616e20626f74206164642081526020017f6e65772063616e6469646174657300000000000000000000000000000000000081525060400191505060405180910390fd5b6001600660008373ffffffffffffffffffffffffffffffffffffffff1673ffffffffffffffffffffffffffffffffffffffff168152602001908152602001600020819055506005600081548092919060010191905055508073ffffffffffffffffffffffffffffffffffffffff167f0ad2eca75347acd5160276fe4b5dad46987e4ff4af9e574195e3e9bc15d7e0ff60405160405180910390a250565b600260009054906101000a900473ffffffffffffffffffffffffffffffffffffffff1681565b60055460095481151561208957fe5b04600760003373ffffffffffffffffffffffffffffffffffffffff1673ffffffffffffffffffffffffffffffffffffffff168152602001908152602001600020540360076000600260009054906101000a900473ffffffffffffffffffffffffffffffffffffffff1673ffffffffffffffffffffffffffffffffffffffff1673ffffffffffffffffffffffffffffffffffffffff1681526020019081526020016000208190555060055460095481151561213f57fe5b04600760008373ffffffffffffffffffffffffffffffffffffffff1673ffffffffffffffffffffffffffffffffffffffff168152602001908152602001600020819055508073ffffffffffffffffffffffffffffffffffffffff167f54699d2017b1aa2a78f187372a13d08a57be01c8ed421a22a2a9afdf315bcc4b60405160405180910390a250565b828054600181600116156101000203166002900490600052602060002090601f016020900481019282601f1061220a57805160ff1916838001178555612238565b82800160010185558215612238579182015b8281111561223757825182559160200191906001019061221c565b5b5090506122459190612249565b5090565b61226b91905b8082111561226757600081600090555060010161224f565b5090565b9056fea165627a7a72305820a3053d7c826949eebef6c142e0f9fec55aaf43ee98c482229cdc8252c4d62bf40029",
  "source": "pragma solidity ^0.5.0;\n\n\ncontract Voting {\n\t\n\t/* The struct (Candidates) has the follwoing attributes:\n\tInternal id, candidat name, candidat agenda, candidat voting counter, candidate pictuer */\n\tstruct Candidate {\n\t\tuint id;\n\t\tstring name;\n\t\tstring agenda;\n\t\tuint counter;\n\t\tstring candidatePictuer;\n\t}\n\t\n\t// The mapping (candidates) is between candidate id to the candidates attributes\n\tmapping(uint => Candidate) public candidates;\n\t\n\t// Some variables:\n\tuint public numberOfCandidates; // Counter for the number of candidates\n\taddress public admin; \n\tuint public votingStartDate; // Voting start date\n\tuint public votingEndDate; // Voting end date\n\tuint public numberOfVoters; // Counter for the number of voters\n\n\tconstructor () public {\n\t\tadmin = msg.sender;\n\t\tvotingStartDate = 0;\n\t\tvotingEndDate = 1;\n\t\tvoterBalance[msg.sender] = votingCoinTotalSupply; //Needs to be removed to the Coin contract?????????\n\t}\n\n\t// The modifier (onlyAdmin) insure that only an admin can use the function\n\tmodifier onlyAdmin { \n        require( msg.sender == admin, \"Only Admin can call this function.\");_;}\n\n    // The modifier (whileVoting) limits changes after voting started (such as adding a candidate or adding voters)\n    modifier whileVoting {\n    \trequire(now < votingEndDate && now >= votingStartDate, \"Voting has started.\");_;}\n\n    // The modifier (beforeVotingStarted) insuer that now is prior to voting start date\n    modifier beforeVotingStarted {\n    \trequire( votingStartDate > now, \"Voting has started, can bot add new candidates\");_;}\n\n    /* The function (addingCandidate) is limited for admin use only (with the help of th onlyAdmin modifier)\n    and can be used only before voting starts (with the help of th beforeVotingStarted modifier), that is, adding a new\n    candidate sholud take place only before voting starts */\n\tfunction addingCandidate (string memory _name, string memory _agenda, string memory _pictuer) public onlyAdmin beforeVotingStarted { // Adding a new candidate to candidates mapping\t\t\n\t\tnumberOfCandidates++;\n\t\tcandidates[numberOfCandidates] = Candidate(numberOfCandidates, _name, _agenda, 0, _pictuer);\n\t\temit AddingCandidate(_name);\n\t}\n\n\t// The function (defineVotingDates) is limited for admin use only (with the help of th onlyAdmin modifier)\n\tfunction defineVotingDates (uint _startDate, uint _endDate) public onlyAdmin  { \n\t\trequire ( _endDate > _startDate && _startDate > now, \"Dates are not valid\");\n\t\trequire (votingStartDate == 0 && votingEndDate == 1, \"Dates allready defined\"); // Dates can be defined only once\n\t\tvotingStartDate = _startDate;\n\t\tvotingEndDate = _endDate;\n\t}\n\t\n\t/* The mapping (voters) is between the voter address and {0,1,2}.\n\t\"0\" stands for no voting rights\n\t\"1\" stands for the user has a voting right that wasn't exercised\n\t\"2\" stands for the user voted */\n\tmapping(address => uint) public voters;\n\n\t/* The funvtion (vote) can be used only while voting time period (with the help of th whileVoting modifier), \n\tit insure the user has voting rights and didn't use them allredy, and pay the voter after he votes. With the\n\tfirst require we insure that voter didn't vote in the past and has the right to vote. The seconde require\n\tinsure that the candidate exites */\n\tfunction vote (uint _candidateId) public whileVoting {\n\t\trequire(voters[msg.sender] == 1, \"You can not vote, you voted in the past, or you do not have the right to vote\");\n\t\trequire(_candidateId > 0 && _candidateId <= numberOfCandidates, \"This candidate doesn't exist\");\n\t\tcandidates[_candidateId].counter ++; // Increase candidate counter\n\t\tvoters[msg.sender] == 2; // Update users status\n        emit VotingTookPlace();\n        getPaidForVoting(msg.sender);\n\t}\n\n\t/* The function (addVoter) is limited for admin use only (with the help of th onlyAdmin modifier)\n    and can be used only before voting starts (with the help of th beforeVotingStarted modifier), that is, adding a new\n    voter sholud take place only before voting starts */\n\tfunction addVoter (address _voter) public onlyAdmin beforeVotingStarted {\n\t\tvoters[_voter] = 1;\n\t\tnumberOfVoters++;\n\t\temit AddVoter(_voter);\n\t}\n\n\t// The function (voterStatus) will return the voting status of the sender {0,1,2}\n\tfunction voterStatus () public view returns (uint status) {\n\t\treturn (voters[msg.sender]);\n\t}\n\n\tevent VotingTookPlace ();\n\tevent AddingCandidate (string indexed candidateName);\n\tevent AddVoter (address indexed voter);\n\n\n\n\n\n\n\t// Token name\n\tstring public constant name = \"VOTING_COIN\";\n\t// Token symbol\n\tstring public constant symbol = \"SYM\"; // need to add!!!!!!!!!!\n\t/*\n\tDecimal (up to 18) A divisibility of 0 mean lowest value of the token is 1. divisibility of 2 means lowest value 0.01\n\tuint8 public constant decimals = 18;\n\t*/ //?????????????????????????????\n\n\t// Mapping (voterBalance) keys to token balances of a voter\n\tmapping(address => uint256) public voterBalance;\n\n\t// Mapping (allowed) addresses of coin owners to those who are allowed to utilize the owner's coins\n\tmapping(address => mapping (address => uint256)) allowed;\n\n\t//ERC20 total supply of coins\n\tuint256 public votingCoinTotalSupply = 6262019;\n\n\t/*\n\tThe totalSupply function identifies the total number of ERC-20 tokens created\n\t*/\n\tfunction totalSupply () public view onlyAdmin returns (uint256 theTotalSupply) {\n\t\ttheTotalSupply = votingCoinTotalSupply;\n\t\treturn (theTotalSupply);\n\t}\n\n\t/*\n\tThe function (balanceOf) returns the number of tokens that a particular address, \n\tin this case, the contract owner, has in their account.\n\t*/\n\tfunction balanceOf (address _coinOwner) public view returns (uint) {\n\t\treturn voterBalance[_coinOwner];\n\t}\n\n\t/*\n\tThe function (approve) checkes the balance and after it has been checked, the contract owner can give \n\ttheir approval to the user to collect the required number of tokens from the contracts address.\n\tNeed to add to the limitions presention, once a user has allwoed someone some amount of coins, \n\the can only change that allwoed amount and can't add.\n\t*/\n\tfunction approve (address _spender, uint256 _amount) public returns (bool success) {\n\t\trequire( voterBalance[msg.sender] >= _amount, \"Insufficient funds\");\n\t\tallowed[msg.sender][_spender] = _amount;\n\t\temit Approval(msg.sender, _spender, _amount);\n\t\treturn (true);\n\t}\n\n\tevent Approval(address indexed coinOwner, address indexed spender, uint256 amount);\n\n\t/*\n\tThe function (transferCoin) is used to move an amount of tokens from the owners balance to that of another user (receiver)\n\t*/\n\tfunction transferCoin (address _receiver, uint256 _amount) public returns (bool success) { // The purpose of the function is to enable transfer of funds from one user to another\n\t\trequire(_amount <= voterBalance[msg.sender], \"Insufficient funds, transfer faild\"); // Insure that the sender has enough coins\n\t\trequire(_amount > 0 , \"You can't transfer non-postive coins, transfer faild\"); \n\t\tvoterBalance[msg.sender] -= _amount; // Update sender acount\n\t\tvoterBalance[_receiver] += _amount; // Update receiver avount\n\t\temit CoinsWereTransfer(msg.sender, _receiver, _amount);\n\t\treturn (true);\n\t}\n\n\t/*\n\tThe function (allowance) is used to check the amount (if any) was allwoed by a user (allocator) to a spender.\n\t*/\n\tfunction allowance (address _allocator, address _spender) private view returns (uint256 _amountAllowed) {\n\t\treturn (allowed[_allocator][_spender]);\n\t}\n\n\t/*\n\tThe function (transferFrom) allows the a user to transfer the allowed coins by the _allocator (if allwoed) and to \n\ttransfer it to any other account.\n\t*/\n\tfunction transferFrom (address _allocator, uint256 _amount, address _receiver) public returns (bool success) {\n\t\trequire(_amount <= voterBalance[_allocator], \"Insufficient funds\"); // insure the _allocator has the amount\n\t\trequire(_amount > 0, \"Can't transfer non-postive amount\");\n\t\trequire(allowed[_allocator][msg.sender] >= _amount, \"The allowance is not enough\");\n\t\tvoterBalance[_allocator] -= _amount;\n\t\tvoterBalance[_receiver] += _amount;\n\t\temit CoinsWereTransfer(_allocator, _receiver, _amount);\n\t\treturn (true);\n\t}\n\n\n\tfunction getPaidForVoting (address _receiver) private {\n\t\tvoterBalance[admin] = voterBalance[msg.sender] - votingCoinTotalSupply/numberOfVoters;\n\t\tvoterBalance[_receiver] = votingCoinTotalSupply/numberOfVoters;\n\t\temit VoterGotPaidForVoting(_receiver);\n\t}\n\n\tevent VoterGotPaidForVoting (address indexed receiver);\n\n\n\n\tevent CoinsWereTransfer(address indexed sender, address indexed receiver, uint256 amount);\n\n\t/*\n\tIf we want it to be complete marketpalce we need to \n\t*/\n\n}\n\n\n\n\n\n/* \nTasks for Tom:\n\n3. Presention\n\t3.1. add to the presention, after closing the smart contract with Daniel the following:\n\t\t3.1.1. Structs\n\t\t3.1.2. Mappings\n\t\t3.1.3. Modifiers\n\t\t3.1.4. Functions\n\t\t3.1.5. State Variables\n\t\t3.1.6. Events\n\t3.2. Add Installation instructions - after we are done\n\t3.3. Add demonstration video - after we are done\n\t3.4. Add known bugs - after we are done\n4. bonos something nice\n5. read about how truffle works with respect to migrations\n*/\n",
  "sourcePath": "/Users/tomkatz/blockchain/Final_Project/election-2019_update/contracts/Voting.sol",
  "compiler": {
    "name": "solc",
    "version": "0.5.0+commit.1d4f565a.Emscripten.clang"
  },
  "schemaVersion": "3.0.11",
  "updatedAt": "2019-07-21T12:01:04.627Z",
  "devdoc": {
    "methods": {}
  },
  "userdoc": {
    "methods": {}
  }
}