{
  "contractName": "Voting",
  "abi": [
    {
      "constant": true,
      "inputs": [],
      "name": "votingStartDate",
      "outputs": [
        {
          "name": "",
          "type": "uint256"
        }
      ],
      "payable": false,
      "stateMutability": "view",
      "type": "function"
    },
    {
      "constant": true,
      "inputs": [
        {
          "name": "",
          "type": "uint256"
        }
      ],
      "name": "candidates",
      "outputs": [
        {
          "name": "id",
          "type": "uint256"
        },
        {
          "name": "name",
          "type": "string"
        },
        {
          "name": "agenda",
          "type": "string"
        },
        {
          "name": "counter",
          "type": "uint256"
        }
      ],
      "payable": false,
      "stateMutability": "view",
      "type": "function"
    },
    {
      "constant": true,
      "inputs": [],
      "name": "votingEndDate",
      "outputs": [
        {
          "name": "",
          "type": "uint256"
        }
      ],
      "payable": false,
      "stateMutability": "view",
      "type": "function"
    },
    {
      "constant": true,
      "inputs": [],
      "name": "numberOfVoters",
      "outputs": [
        {
          "name": "",
          "type": "uint256"
        }
      ],
      "payable": false,
      "stateMutability": "view",
      "type": "function"
    },
    {
      "constant": true,
      "inputs": [],
      "name": "numberOfCandidates",
      "outputs": [
        {
          "name": "",
          "type": "uint256"
        }
      ],
      "payable": false,
      "stateMutability": "view",
      "type": "function"
    },
    {
      "constant": true,
      "inputs": [
        {
          "name": "",
          "type": "address"
        }
      ],
      "name": "voters",
      "outputs": [
        {
          "name": "",
          "type": "uint256"
        }
      ],
      "payable": false,
      "stateMutability": "view",
      "type": "function"
    },
    {
      "constant": true,
      "inputs": [],
      "name": "admin",
      "outputs": [
        {
          "name": "",
          "type": "address"
        }
      ],
      "payable": false,
      "stateMutability": "view",
      "type": "function"
    },
    {
      "inputs": [],
      "payable": false,
      "stateMutability": "nonpayable",
      "type": "constructor"
    },
    {
      "anonymous": false,
      "inputs": [
        {
          "indexed": true,
          "name": "_candidateId",
          "type": "uint256"
        }
      ],
      "name": "votingEvent",
      "type": "event"
    },
    {
      "anonymous": false,
      "inputs": [
        {
          "indexed": true,
          "name": "_candidateId",
          "type": "uint256"
        }
      ],
      "name": "candidateEvent",
      "type": "event"
    },
    {
      "anonymous": false,
      "inputs": [],
      "name": "addVoterEvent",
      "type": "event"
    },
    {
      "constant": false,
      "inputs": [],
      "name": "isAdmin",
      "outputs": [
        {
          "name": "TF",
          "type": "bool"
        }
      ],
      "payable": false,
      "stateMutability": "nonpayable",
      "type": "function"
    },
    {
      "constant": false,
      "inputs": [
        {
          "name": "_name",
          "type": "string"
        },
        {
          "name": "_agenda",
          "type": "string"
        }
      ],
      "name": "addingCandidate",
      "outputs": [],
      "payable": false,
      "stateMutability": "nonpayable",
      "type": "function"
    },
    {
      "constant": false,
      "inputs": [
        {
          "name": "_startDate",
          "type": "uint256"
        },
        {
          "name": "_endDate",
          "type": "uint256"
        }
      ],
      "name": "defineVotingDates",
      "outputs": [],
      "payable": false,
      "stateMutability": "nonpayable",
      "type": "function"
    },
    {
      "constant": false,
      "inputs": [
        {
          "name": "_candidateId",
          "type": "uint256"
        }
      ],
      "name": "vote",
      "outputs": [],
      "payable": false,
      "stateMutability": "nonpayable",
      "type": "function"
    },
    {
      "constant": false,
      "inputs": [
        {
          "name": "_voter",
          "type": "address"
        }
      ],
      "name": "addVoter",
      "outputs": [],
      "payable": false,
      "stateMutability": "nonpayable",
      "type": "function"
    },
    {
      "constant": false,
      "inputs": [],
      "name": "voterStatus",
      "outputs": [
        {
          "name": "status",
          "type": "uint256"
        }
      ],
      "payable": false,
      "stateMutability": "nonpayable",
      "type": "function"
    },
    {
      "constant": false,
      "inputs": [],
      "name": "endVoting",
      "outputs": [
        {
          "name": "index",
          "type": "bool"
        }
      ],
      "payable": false,
      "stateMutability": "nonpayable",
      "type": "function"
    }
  ],
  "bytecode": "0x608060405234801561001057600080fd5b5033600260006101000a81548173ffffffffffffffffffffffffffffffffffffffff021916908373ffffffffffffffffffffffffffffffffffffffff16021790555060006003819055506001600481905550611205806100716000396000f3fe6080604052600436106100d0576000357c0100000000000000000000000000000000000000000000000000000000900463ffffffff1680630121b93f146100d557806317125466146101105780631f43498f1461013b5780633477ee2e1461029a57806353981fe1146103c8578063908ea91d146103f35780639bcc33611461041e5780639c84bb2714610449578063a3ec138d14610474578063b6db75a0146104d9578063c3403ddf14610508578063c74e9b7714610537578063f4ab9adf1461057c578063f851a440146105cd575b600080fd5b3480156100e157600080fd5b5061010e600480360360208110156100f857600080fd5b8101908080359060200190929190505050610624565b005b34801561011c57600080fd5b50610125610863565b6040518082815260200191505060405180910390f35b34801561014757600080fd5b506102986004803603604081101561015e57600080fd5b810190808035906020019064010000000081111561017b57600080fd5b82018360208201111561018d57600080fd5b803590602001918460018302840111640100000000831117156101af57600080fd5b91908080601f016020809104026020016040519081016040528093929190818152602001838380828437600081840152601f19601f8201169050808301925050505050505091929192908035906020019064010000000081111561021257600080fd5b82018360208201111561022457600080fd5b8035906020019184600183028401116401000000008311171561024657600080fd5b91908080601f016020809104026020016040519081016040528093929190818152602001838380828437600081840152601f19601f820116905080830192505050505050509192919290505050610869565b005b3480156102a657600080fd5b506102d3600480360360208110156102bd57600080fd5b8101908080359060200190929190505050610ac2565b604051808581526020018060200180602001848152602001838103835286818151815260200191508051906020019080838360005b83811015610323578082015181840152602081019050610308565b50505050905090810190601f1680156103505780820380516001836020036101000a031916815260200191505b50838103825285818151815260200191508051906020019080838360005b8381101561038957808201518184015260208101905061036e565b50505050905090810190601f1680156103b65780820380516001836020036101000a031916815260200191505b50965050505050505060405180910390f35b3480156103d457600080fd5b506103dd610c22565b6040518082815260200191505060405180910390f35b3480156103ff57600080fd5b50610408610c28565b6040518082815260200191505060405180910390f35b34801561042a57600080fd5b50610433610c6f565b6040518082815260200191505060405180910390f35b34801561045557600080fd5b5061045e610c75565b6040518082815260200191505060405180910390f35b34801561048057600080fd5b506104c36004803603602081101561049757600080fd5b81019080803573ffffffffffffffffffffffffffffffffffffffff169060200190929190505050610c7b565b6040518082815260200191505060405180910390f35b3480156104e557600080fd5b506104ee610c93565b604051808215151515815260200191505060405180910390f35b34801561051457600080fd5b5061051d610ceb565b604051808215151515815260200191505060405180910390f35b34801561054357600080fd5b5061057a6004803603604081101561055a57600080fd5b810190808035906020019092919080359060200190929190505050610cf7565b005b34801561058857600080fd5b506105cb6004803603602081101561059f57600080fd5b81019080803573ffffffffffffffffffffffffffffffffffffffff169060200190929190505050610efe565b005b3480156105d957600080fd5b506105e261110e565b604051808273ffffffffffffffffffffffffffffffffffffffff1673ffffffffffffffffffffffffffffffffffffffff16815260200191505060405180910390f35b6004544210801561063757506003544210155b15156106ab576040517f08c379a00000000000000000000000000000000000000000000000000000000081526004018080602001828103825260138152602001807f566f74696e672068617320737461727465642e0000000000000000000000000081525060200191505060405180910390fd5b6001600660003373ffffffffffffffffffffffffffffffffffffffff1673ffffffffffffffffffffffffffffffffffffffff168152602001908152602001600020541415156107ae576040517f08c379a000000000000000000000000000000000000000000000000000000000815260040180806020018281038252604d8152602001807f596f752063616e206e6f7420766f74652c20796f7520766f74656420696e207481526020017f686520706173742c206f7220796f7520646f206e6f742068617665207468652081526020017f726967687420746f20766f74650000000000000000000000000000000000000081525060600191505060405180910390fd5b6000811180156107c057506001548111155b15156107cb57600080fd5b600080828152602001908152602001600020600301600081548092919060010191905055506002600660003373ffffffffffffffffffffffffffffffffffffffff1673ffffffffffffffffffffffffffffffffffffffff1681526020019081526020016000205050807f3474d7a80d734f2c159cbc95fd43cc116f75c5cc5b1b755e0fd91a0dbfc3c8c160405160405180910390a250565b60035481565b600260009054906101000a900473ffffffffffffffffffffffffffffffffffffffff1673ffffffffffffffffffffffffffffffffffffffff163373ffffffffffffffffffffffffffffffffffffffff16141515610954576040517f08c379a00000000000000000000000000000000000000000000000000000000081526004018080602001828103825260228152602001807f4f6e6c792041646d696e2063616e2063616c6c20746869732066756e6374696f81526020017f6e2e00000000000000000000000000000000000000000000000000000000000081525060400191505060405180910390fd5b426003541115156109f3576040517f08c379a000000000000000000000000000000000000000000000000000000000815260040180806020018281038252602e8152602001807f566f74696e672068617320737461727465642c2063616e20626f74206164642081526020017f6e65772063616e6469646174657300000000000000000000000000000000000081525060400191505060405180910390fd5b600160008154809291906001019190505550608060405190810160405280600154815260200183815260200182815260200160008152506000806001548152602001908152602001600020600082015181600001556020820151816001019080519060200190610a64929190611134565b506040820151816002019080519060200190610a81929190611134565b50606082015181600301559050506001547f0643f5b969ec09fed7dc039cbef7fcca08c0d60e6b3c808266ff52583e0f57c960405160405180910390a25050565b6000602052806000526040600020600091509050806000015490806001018054600181600116156101000203166002900480601f016020809104026020016040519081016040528092919081815260200182805460018160011615610100020316600290048015610b745780601f10610b4957610100808354040283529160200191610b74565b820191906000526020600020905b815481529060010190602001808311610b5757829003601f168201915b505050505090806002018054600181600116156101000203166002900480601f016020809104026020016040519081016040528092919081815260200182805460018160011615610100020316600290048015610c125780601f10610be757610100808354040283529160200191610c12565b820191906000526020600020905b815481529060010190602001808311610bf557829003601f168201915b5050505050908060030154905084565b60045481565b6000600660003373ffffffffffffffffffffffffffffffffffffffff1673ffffffffffffffffffffffffffffffffffffffff16815260200190815260200160002054905090565b60055481565b60015481565b60066020528060005260406000206000915090505481565b6000600260009054906101000a900473ffffffffffffffffffffffffffffffffffffffff1673ffffffffffffffffffffffffffffffffffffffff163373ffffffffffffffffffffffffffffffffffffffff1614905090565b60006004544211905090565b600260009054906101000a900473ffffffffffffffffffffffffffffffffffffffff1673ffffffffffffffffffffffffffffffffffffffff163373ffffffffffffffffffffffffffffffffffffffff16141515610de2576040517f08c379a00000000000000000000000000000000000000000000000000000000081526004018080602001828103825260228152602001807f4f6e6c792041646d696e2063616e2063616c6c20746869732066756e6374696f81526020017f6e2e00000000000000000000000000000000000000000000000000000000000081525060400191505060405180910390fd5b8181118015610df057504282115b1515610e64576040517f08c379a00000000000000000000000000000000000000000000000000000000081526004018080602001828103825260138152602001807f446174657320617265206e6f742076616c69640000000000000000000000000081525060200191505060405180910390fd5b6000600354148015610e7857506001600454145b1515610eec576040517f08c379a00000000000000000000000000000000000000000000000000000000081526004018080602001828103825260168152602001807f446174657320616c6c726561647920646566696e65640000000000000000000081525060200191505060405180910390fd5b81600381905550806004819055505050565b600260009054906101000a900473ffffffffffffffffffffffffffffffffffffffff1673ffffffffffffffffffffffffffffffffffffffff163373ffffffffffffffffffffffffffffffffffffffff16141515610fe9576040517f08c379a00000000000000000000000000000000000000000000000000000000081526004018080602001828103825260228152602001807f4f6e6c792041646d696e2063616e2063616c6c20746869732066756e6374696f81526020017f6e2e00000000000000000000000000000000000000000000000000000000000081525060400191505060405180910390fd5b42600354111515611088576040517f08c379a000000000000000000000000000000000000000000000000000000000815260040180806020018281038252602e8152602001807f566f74696e672068617320737461727465642c2063616e20626f74206164642081526020017f6e65772063616e6469646174657300000000000000000000000000000000000081525060400191505060405180910390fd5b6001600660008373ffffffffffffffffffffffffffffffffffffffff1673ffffffffffffffffffffffffffffffffffffffff168152602001908152602001600020819055506005600081548092919060010191905055507f30d89b3fc2959064943c13498a5b7a72382958281394654899a668c9368c508260405160405180910390a150565b600260009054906101000a900473ffffffffffffffffffffffffffffffffffffffff1681565b828054600181600116156101000203166002900490600052602060002090601f016020900481019282601f1061117557805160ff19168380011785556111a3565b828001600101855582156111a3579182015b828111156111a2578251825591602001919060010190611187565b5b5090506111b091906111b4565b5090565b6111d691905b808211156111d25760008160009055506001016111ba565b5090565b9056fea165627a7a72305820748bb5f9d215e263344a8960ae1b24b279bdedeb53a89ff6b4442b817488c25e0029",
  "source": "pragma solidity ^0.5.0;\n\n\ncontract Voting {\n\n\tstruct Candidate { // Candidates attributes:\n\t\tuint id;\n\t\tstring name; // Candidate first and last name\n\t\tstring agenda; // Candidate election agenda\n\t\tuint counter; // Candidate voting count\n\t}\n\n\tmapping(uint => Candidate) public candidates;\n\n\tuint public numberOfCandidates;\n\taddress public admin;\n\tuint public votingStartDate; // Voting start date\n\tuint public votingEndDate; // Voting end date\n\tuint public numberOfVoters;\n\n\tconstructor () public {\n\t\tadmin = msg.sender;\n\t\tvotingStartDate = 0;\n\t\tvotingEndDate = 1;\n\t}\n\n\tmodifier onlyAdmin { // Insure only admin can use a function\n        require( msg.sender == admin, \"Only Admin can call this function.\");\n        _;\n    }\n    modifier whileVoting { // Limits changes after voting started (such as adding a candidate or adding voters)\n    \trequire(now < votingEndDate && now >= votingStartDate, \"Voting has started.\");\n    \t_;\n    }\n    modifier beforeVotingStarted {\n    \trequire( votingStartDate > now, \"Voting has started, can bot add new candidates\");\n    \t_;\n    }\n\n    function isAdmin () public returns (bool TF) {\n    \treturn (msg.sender == admin);\n    }\n\n\tfunction addingCandidate (string memory _name, string memory _agenda) public onlyAdmin beforeVotingStarted { // Adding a new candidate to candidates mapping\t\t\n\t\tnumberOfCandidates++;\n\t\tcandidates[numberOfCandidates] = Candidate(numberOfCandidates, _name, _agenda, 0);\n\t\temit candidateEvent(numberOfCandidates); // Event for adding a new candidate\n\t}\n\n\tfunction defineVotingDates (uint _startDate, uint _endDate) public onlyAdmin  { \n\t\trequire ( _endDate > _startDate && _startDate > now, \"Dates are not valid\");\n\t\trequire (votingStartDate == 0 && votingEndDate == 1, \"Dates allready defined\"); // Dates can be defined only once\n\t\tvotingStartDate = _startDate;\n\t\tvotingEndDate = _endDate;\n\t}\n\t\n\tmapping(address => uint) public voters;\n\n\tfunction vote (uint _candidateId) public whileVoting {\n\t\trequire(voters[msg.sender] == 1, \"You can not vote, you voted in the past, or you do not have the right to vote\"); // Insure that voter didn't vote and has the right\n\t\trequire(_candidateId > 0 && _candidateId <= numberOfCandidates); // Insure that the candidate exites\n\t\tcandidates[_candidateId].counter ++; // Increase candidate counter by one\n\t\tvoters[msg.sender] == 2; // 2 represent voter voted in the past\n        emit votingEvent(_candidateId); // Event for a voter that voted\n\t}\n\n\tevent votingEvent (\n\t\tuint indexed _candidateId\n\t\t);\n\n\tevent candidateEvent (\n\t\tuint indexed _candidateId\n\t\t);\n\n\tfunction addVoter (address _voter) public onlyAdmin beforeVotingStarted {\n\t\tvoters[_voter] = 1;\n\t\tnumberOfVoters++;\n\t\temit addVoterEvent();\n\t}\n\n\tevent addVoterEvent (\n\t\t);\n\n\tfunction voterStatus () public returns (uint status) {\n\t\treturn (voters[msg.sender]);\n\t}\n\n\tfunction endVoting () public returns (bool index) {\n\t\treturn (now > votingEndDate);\n\t}\n\n}\n\n\n// list the candidates that will run in the election\n//  keep track of all the votes and voters\n// It will also govern all of the rules of the election, like enforcing accounts to only vote once. \n\n\n\n\n\n// contract Voting {\n\n\n//     mapping(uint => Candidate) public candidatesList; // Candidates List\n    \n//     uint public candidatesNumber; // Holds number of candidates\n\n//     //function addCandidate();\n\n//     event candidateAdded(uint indexed _candidateId);\n\n\n\n//     constructor () public {\n//         addCandidate(\"Candidate 1\");\n//         addCandidate(\"Candidate 2\");\n//         voters[0] = true;\n//     }\n\n//     function addCandidate (string _name) private {\n//         candidatesCount ++;\n//         candidates[candidatesCount] = Candidate(candidatesCount, _name, 0);\n//     }\n// }\n",
  "sourcePath": "/Users/tomkatz/blockchain/Final_Project/election-2019_update/contracts/Voting.sol",
  "compiler": {
    "name": "solc",
    "version": "0.5.0+commit.1d4f565a.Emscripten.clang"
  },
  "schemaVersion": "3.0.11",
  "updatedAt": "2019-07-15T13:44:10.257Z",
  "devdoc": {
    "methods": {}
  },
  "userdoc": {
    "methods": {}
  }
}