{
  "contractName": "Voting",
  "abi": [
    {
      "constant": true,
      "inputs": [],
      "name": "name",
      "outputs": [
        {
          "name": "",
          "type": "string"
        }
      ],
      "payable": false,
      "stateMutability": "view",
      "type": "function"
    },
    {
      "constant": true,
      "inputs": [
        {
          "name": "",
          "type": "uint256"
        },
        {
          "name": "",
          "type": "address"
        }
      ],
      "name": "answerList",
      "outputs": [
        {
          "name": "",
          "type": "string"
        }
      ],
      "payable": false,
      "stateMutability": "view",
      "type": "function"
    },
    {
      "constant": true,
      "inputs": [],
      "name": "votingStartDate",
      "outputs": [
        {
          "name": "",
          "type": "uint256"
        }
      ],
      "payable": false,
      "stateMutability": "view",
      "type": "function"
    },
    {
      "constant": true,
      "inputs": [
        {
          "name": "",
          "type": "address"
        }
      ],
      "name": "voterBalance",
      "outputs": [
        {
          "name": "",
          "type": "uint256"
        }
      ],
      "payable": false,
      "stateMutability": "view",
      "type": "function"
    },
    {
      "constant": true,
      "inputs": [
        {
          "name": "",
          "type": "uint256"
        }
      ],
      "name": "candidates",
      "outputs": [
        {
          "name": "id",
          "type": "uint256"
        },
        {
          "name": "name",
          "type": "string"
        },
        {
          "name": "agenda",
          "type": "string"
        },
        {
          "name": "counter",
          "type": "uint256"
        },
        {
          "name": "candidatePictuer",
          "type": "string"
        },
        {
          "name": "candidateAddress",
          "type": "address"
        }
      ],
      "payable": false,
      "stateMutability": "view",
      "type": "function"
    },
    {
      "constant": true,
      "inputs": [],
      "name": "votingEndDate",
      "outputs": [
        {
          "name": "",
          "type": "uint256"
        }
      ],
      "payable": false,
      "stateMutability": "view",
      "type": "function"
    },
    {
      "constant": true,
      "inputs": [],
      "name": "votingCoinTotalSupply",
      "outputs": [
        {
          "name": "",
          "type": "uint256"
        }
      ],
      "payable": false,
      "stateMutability": "view",
      "type": "function"
    },
    {
      "constant": true,
      "inputs": [],
      "name": "symbol",
      "outputs": [
        {
          "name": "",
          "type": "string"
        }
      ],
      "payable": false,
      "stateMutability": "view",
      "type": "function"
    },
    {
      "constant": true,
      "inputs": [],
      "name": "numberOfVoters",
      "outputs": [
        {
          "name": "",
          "type": "uint256"
        }
      ],
      "payable": false,
      "stateMutability": "view",
      "type": "function"
    },
    {
      "constant": true,
      "inputs": [],
      "name": "numberOfCandidates",
      "outputs": [
        {
          "name": "",
          "type": "uint256"
        }
      ],
      "payable": false,
      "stateMutability": "view",
      "type": "function"
    },
    {
      "constant": true,
      "inputs": [
        {
          "name": "",
          "type": "address"
        }
      ],
      "name": "voters",
      "outputs": [
        {
          "name": "",
          "type": "uint256"
        }
      ],
      "payable": false,
      "stateMutability": "view",
      "type": "function"
    },
    {
      "constant": true,
      "inputs": [],
      "name": "numberOfQuestions",
      "outputs": [
        {
          "name": "",
          "type": "uint256"
        }
      ],
      "payable": false,
      "stateMutability": "view",
      "type": "function"
    },
    {
      "constant": true,
      "inputs": [
        {
          "name": "",
          "type": "uint256"
        }
      ],
      "name": "questionList",
      "outputs": [
        {
          "name": "question",
          "type": "string"
        },
        {
          "name": "answerCounter",
          "type": "uint256"
        },
        {
          "name": "questioner",
          "type": "address"
        }
      ],
      "payable": false,
      "stateMutability": "view",
      "type": "function"
    },
    {
      "constant": true,
      "inputs": [],
      "name": "admin",
      "outputs": [
        {
          "name": "",
          "type": "address"
        }
      ],
      "payable": false,
      "stateMutability": "view",
      "type": "function"
    },
    {
      "inputs": [],
      "payable": false,
      "stateMutability": "nonpayable",
      "type": "constructor"
    },
    {
      "anonymous": false,
      "inputs": [
        {
          "indexed": true,
          "name": "receiver",
          "type": "address"
        }
      ],
      "name": "VoterGotPaidForVoting",
      "type": "event"
    },
    {
      "anonymous": false,
      "inputs": [
        {
          "indexed": true,
          "name": "candidateId",
          "type": "uint256"
        }
      ],
      "name": "VotingTookPlace",
      "type": "event"
    },
    {
      "anonymous": false,
      "inputs": [
        {
          "indexed": true,
          "name": "candidateId",
          "type": "uint256"
        }
      ],
      "name": "AddingCandidate",
      "type": "event"
    },
    {
      "anonymous": false,
      "inputs": [
        {
          "indexed": true,
          "name": "voter",
          "type": "address"
        }
      ],
      "name": "AddVoter",
      "type": "event"
    },
    {
      "anonymous": false,
      "inputs": [
        {
          "indexed": true,
          "name": "questionId",
          "type": "uint256"
        }
      ],
      "name": "NewQuestion",
      "type": "event"
    },
    {
      "anonymous": false,
      "inputs": [
        {
          "indexed": true,
          "name": "questionId",
          "type": "uint256"
        },
        {
          "indexed": true,
          "name": "candidateId",
          "type": "address"
        }
      ],
      "name": "NewAnswer",
      "type": "event"
    },
    {
      "anonymous": false,
      "inputs": [
        {
          "indexed": true,
          "name": "coinOwner",
          "type": "address"
        },
        {
          "indexed": true,
          "name": "spender",
          "type": "address"
        },
        {
          "indexed": false,
          "name": "amount",
          "type": "uint256"
        }
      ],
      "name": "Approval",
      "type": "event"
    },
    {
      "anonymous": false,
      "inputs": [
        {
          "indexed": true,
          "name": "sender",
          "type": "address"
        },
        {
          "indexed": true,
          "name": "receiver",
          "type": "address"
        },
        {
          "indexed": false,
          "name": "amount",
          "type": "uint256"
        }
      ],
      "name": "CoinsWereTransfer",
      "type": "event"
    },
    {
      "constant": false,
      "inputs": [
        {
          "name": "_name",
          "type": "string"
        },
        {
          "name": "_agenda",
          "type": "string"
        },
        {
          "name": "_picture",
          "type": "string"
        },
        {
          "name": "_address",
          "type": "address"
        }
      ],
      "name": "addingCandidate",
      "outputs": [],
      "payable": false,
      "stateMutability": "nonpayable",
      "type": "function"
    },
    {
      "constant": false,
      "inputs": [
        {
          "name": "_startDate",
          "type": "uint256"
        },
        {
          "name": "_endDate",
          "type": "uint256"
        }
      ],
      "name": "defineVotingDates",
      "outputs": [],
      "payable": false,
      "stateMutability": "nonpayable",
      "type": "function"
    },
    {
      "constant": false,
      "inputs": [
        {
          "name": "_candidateId",
          "type": "uint256"
        }
      ],
      "name": "vote",
      "outputs": [],
      "payable": false,
      "stateMutability": "nonpayable",
      "type": "function"
    },
    {
      "constant": false,
      "inputs": [
        {
          "name": "_voter",
          "type": "address"
        }
      ],
      "name": "addVoter",
      "outputs": [],
      "payable": false,
      "stateMutability": "nonpayable",
      "type": "function"
    },
    {
      "constant": true,
      "inputs": [],
      "name": "voterStatus",
      "outputs": [
        {
          "name": "status",
          "type": "uint256"
        }
      ],
      "payable": false,
      "stateMutability": "view",
      "type": "function"
    },
    {
      "constant": true,
      "inputs": [
        {
          "name": "_coinOwner",
          "type": "address"
        }
      ],
      "name": "balanceOf",
      "outputs": [
        {
          "name": "",
          "type": "uint256"
        }
      ],
      "payable": false,
      "stateMutability": "view",
      "type": "function"
    },
    {
      "constant": false,
      "inputs": [
        {
          "name": "_question",
          "type": "string"
        }
      ],
      "name": "addQuestion",
      "outputs": [],
      "payable": false,
      "stateMutability": "nonpayable",
      "type": "function"
    },
    {
      "constant": false,
      "inputs": [
        {
          "name": "_answer",
          "type": "string"
        },
        {
          "name": "_questionId",
          "type": "uint256"
        }
      ],
      "name": "addAnswer",
      "outputs": [],
      "payable": false,
      "stateMutability": "nonpayable",
      "type": "function"
    },
    {
      "constant": true,
      "inputs": [],
      "name": "totalSupply",
      "outputs": [
        {
          "name": "theTotalSupply",
          "type": "uint256"
        }
      ],
      "payable": false,
      "stateMutability": "view",
      "type": "function"
    },
    {
      "constant": false,
      "inputs": [
        {
          "name": "_spender",
          "type": "address"
        },
        {
          "name": "_amount",
          "type": "uint256"
        }
      ],
      "name": "approve",
      "outputs": [
        {
          "name": "success",
          "type": "bool"
        }
      ],
      "payable": false,
      "stateMutability": "nonpayable",
      "type": "function"
    },
    {
      "constant": false,
      "inputs": [
        {
          "name": "_receiver",
          "type": "address"
        },
        {
          "name": "_amount",
          "type": "uint256"
        }
      ],
      "name": "transferCoin",
      "outputs": [
        {
          "name": "success",
          "type": "bool"
        }
      ],
      "payable": false,
      "stateMutability": "nonpayable",
      "type": "function"
    },
    {
      "constant": false,
      "inputs": [
        {
          "name": "_allocator",
          "type": "address"
        },
        {
          "name": "_amount",
          "type": "uint256"
        },
        {
          "name": "_receiver",
          "type": "address"
        }
      ],
      "name": "transferFrom",
      "outputs": [
        {
          "name": "success",
          "type": "bool"
        }
      ],
      "payable": false,
      "stateMutability": "nonpayable",
      "type": "function"
    }
  ],
  "bytecode": "0x6080604052625f8d03600c5534801561001757600080fd5b5033600260006101000a81548173ffffffffffffffffffffffffffffffffffffffff021916908373ffffffffffffffffffffffffffffffffffffffff16021790555060006003819055506001600481905550600c54600a60003373ffffffffffffffffffffffffffffffffffffffff1673ffffffffffffffffffffffffffffffffffffffff16815260200190815260200160002081905550612eba806100be6000396000f3fe608060405260043610610154576000357c0100000000000000000000000000000000000000000000000000000000900463ffffffff1680630121b93f1461015957806306fdde0314610194578063095ea7b3146102245780630ab01e6a14610297578063171254661461036b57806318160ddd146103965780631a676967146103c157806333d4020c146104265780633477ee2e146104f857806353981fe1146106c557806370a08231146106f057806377a3e9fd146107555780638c915b92146107805780638dde60fa14610813578063908ea91d1461088657806395d89b41146108b157806397e2a36f146109415780639bcc336114610b575780639c84bb2714610b82578063a3ec138d14610bad578063b4594c3614610c12578063c74e9b7714610c3d578063eaaea05c14610c82578063f129dbd914610d70578063f4ab9adf14610e38578063f851a44014610e89575b600080fd5b34801561016557600080fd5b506101926004803603602081101561017c57600080fd5b8101908080359060200190929190505050610ee0565b005b3480156101a057600080fd5b506101a96111e0565b6040518080602001828103825283818151815260200191508051906020019080838360005b838110156101e95780820151818401526020810190506101ce565b50505050905090810190601f1680156102165780820380516001836020036101000a031916815260200191505b509250505060405180910390f35b34801561023057600080fd5b5061027d6004803603604081101561024757600080fd5b81019080803573ffffffffffffffffffffffffffffffffffffffff16906020019092919080359060200190929190505050611219565b604051808215151515815260200191505060405180910390f35b3480156102a357600080fd5b506102f0600480360360408110156102ba57600080fd5b8101908080359060200190929190803573ffffffffffffffffffffffffffffffffffffffff1690602001909291905050506113c2565b6040518080602001828103825283818151815260200191508051906020019080838360005b83811015610330578082015181840152602081019050610315565b50505050905090810190601f16801561035d5780820380516001836020036101000a031916815260200191505b509250505060405180910390f35b34801561037757600080fd5b5061038061147f565b6040518082815260200191505060405180910390f35b3480156103a257600080fd5b506103ab611485565b6040518082815260200191505060405180910390f35b3480156103cd57600080fd5b50610410600480360360208110156103e457600080fd5b81019080803573ffffffffffffffffffffffffffffffffffffffff16906020019092919050505061157d565b6040518082815260200191505060405180910390f35b34801561043257600080fd5b506104f66004803603604081101561044957600080fd5b810190808035906020019064010000000081111561046657600080fd5b82018360208201111561047857600080fd5b8035906020019184600183028401116401000000008311171561049a57600080fd5b91908080601f016020809104026020016040519081016040528093929190818152602001838380828437600081840152601f19601f82011690508083019250505050505050919291929080359060200190929190505050611595565b005b34801561050457600080fd5b506105316004803603602081101561051b57600080fd5b81019080803590602001909291905050506117db565b604051808781526020018060200180602001868152602001806020018573ffffffffffffffffffffffffffffffffffffffff1673ffffffffffffffffffffffffffffffffffffffff168152602001848103845289818151815260200191508051906020019080838360005b838110156105b757808201518184015260208101905061059c565b50505050905090810190601f1680156105e45780820380516001836020036101000a031916815260200191505b50848103835288818151815260200191508051906020019080838360005b8381101561061d578082015181840152602081019050610602565b50505050905090810190601f16801561064a5780820380516001836020036101000a031916815260200191505b50848103825286818151815260200191508051906020019080838360005b83811015610683578082015181840152602081019050610668565b50505050905090810190601f1680156106b05780820380516001836020036101000a031916815260200191505b50995050505050505050505060405180910390f35b3480156106d157600080fd5b506106da6119ff565b6040518082815260200191505060405180910390f35b3480156106fc57600080fd5b5061073f6004803603602081101561071357600080fd5b81019080803573ffffffffffffffffffffffffffffffffffffffff169060200190929190505050611a05565b6040518082815260200191505060405180910390f35b34801561076157600080fd5b5061076a611a4e565b6040518082815260200191505060405180910390f35b34801561078c57600080fd5b506107f9600480360360608110156107a357600080fd5b81019080803573ffffffffffffffffffffffffffffffffffffffff16906020019092919080359060200190929190803573ffffffffffffffffffffffffffffffffffffffff169060200190929190505050611a54565b604051808215151515815260200191505060405180910390f35b34801561081f57600080fd5b5061086c6004803603604081101561083657600080fd5b81019080803573ffffffffffffffffffffffffffffffffffffffff16906020019092919080359060200190929190505050611da9565b604051808215151515815260200191505060405180910390f35b34801561089257600080fd5b5061089b61202f565b6040518082815260200191505060405180910390f35b3480156108bd57600080fd5b506108c6612076565b6040518080602001828103825283818151815260200191508051906020019080838360005b838110156109065780820151818401526020810190506108eb565b50505050905090810190601f1680156109335780820380516001836020036101000a031916815260200191505b509250505060405180910390f35b34801561094d57600080fd5b50610b556004803603608081101561096457600080fd5b810190808035906020019064010000000081111561098157600080fd5b82018360208201111561099357600080fd5b803590602001918460018302840111640100000000831117156109b557600080fd5b91908080601f016020809104026020016040519081016040528093929190818152602001838380828437600081840152601f19601f82011690508083019250505050505050919291929080359060200190640100000000811115610a1857600080fd5b820183602082011115610a2a57600080fd5b80359060200191846001830284011164010000000083111715610a4c57600080fd5b91908080601f016020809104026020016040519081016040528093929190818152602001838380828437600081840152601f19601f82011690508083019250505050505050919291929080359060200190640100000000811115610aaf57600080fd5b820183602082011115610ac157600080fd5b80359060200191846001830284011164010000000083111715610ae357600080fd5b91908080601f016020809104026020016040519081016040528093929190818152602001838380828437600081840152601f19601f820116905080830192505050505050509192919290803573ffffffffffffffffffffffffffffffffffffffff1690602001909291905050506120af565b005b348015610b6357600080fd5b50610b6c612390565b6040518082815260200191505060405180910390f35b348015610b8e57600080fd5b50610b97612396565b6040518082815260200191505060405180910390f35b348015610bb957600080fd5b50610bfc60048036036020811015610bd057600080fd5b81019080803573ffffffffffffffffffffffffffffffffffffffff16906020019092919050505061239c565b6040518082815260200191505060405180910390f35b348015610c1e57600080fd5b50610c276123b4565b6040518082815260200191505060405180910390f35b348015610c4957600080fd5b50610c8060048036036040811015610c6057600080fd5b8101908080359060200190929190803590602001909291905050506123ba565b005b348015610c8e57600080fd5b50610cbb60048036036020811015610ca557600080fd5b81019080803590602001909291905050506125c1565b60405180806020018481526020018373ffffffffffffffffffffffffffffffffffffffff1673ffffffffffffffffffffffffffffffffffffffff168152602001828103825285818151815260200191508051906020019080838360005b83811015610d33578082015181840152602081019050610d18565b50505050905090810190601f168015610d605780820380516001836020036101000a031916815260200191505b5094505050505060405180910390f35b348015610d7c57600080fd5b50610e3660048036036020811015610d9357600080fd5b8101908080359060200190640100000000811115610db057600080fd5b820183602082011115610dc257600080fd5b80359060200191846001830284011164010000000083111715610de457600080fd5b91908080601f016020809104026020016040519081016040528093929190818152602001838380828437600081840152601f19601f8201169050808301925050505050505091929192905050506126a3565b005b348015610e4457600080fd5b50610e8760048036036020811015610e5b57600080fd5b81019080803573ffffffffffffffffffffffffffffffffffffffff169060200190929190505050612923565b005b348015610e9557600080fd5b50610e9e612b4a565b604051808273ffffffffffffffffffffffffffffffffffffffff1673ffffffffffffffffffffffffffffffffffffffff16815260200191505060405180910390f35b60045442108015610ef357506003544210155b1515610f67576040517f08c379a00000000000000000000000000000000000000000000000000000000081526004018080602001828103825260138152602001807f566f74696e672068617320737461727465642e0000000000000000000000000081525060200191505060405180910390fd5b6001600660003373ffffffffffffffffffffffffffffffffffffffff1673ffffffffffffffffffffffffffffffffffffffff1681526020019081526020016000205410158015610ff757506002600660003373ffffffffffffffffffffffffffffffffffffffff1673ffffffffffffffffffffffffffffffffffffffff1681526020019081526020016000205411155b15156110b7576040517f08c379a000000000000000000000000000000000000000000000000000000000815260040180806020018281038252604d8152602001807f596f752063616e206e6f7420766f74652c20796f7520766f74656420696e207481526020017f686520706173742c206f7220796f7520646f206e6f742068617665207468652081526020017f726967687420746f20766f74650000000000000000000000000000000000000081525060600191505060405180910390fd5b6000811180156110c957506001548111155b151561113d576040517f08c379a000000000000000000000000000000000000000000000000000000000815260040180806020018281038252601c8152602001807f546869732063616e64696461746520646f65736e27742065786973740000000081525060200191505060405180910390fd5b600080828152602001908152602001600020600301600081548092919060010191905055506003600660003373ffffffffffffffffffffffffffffffffffffffff1673ffffffffffffffffffffffffffffffffffffffff16815260200190815260200160002081905550807f3fb177ffed56b17942d1a2660c96f99f553a104b111e3e62ae6ae6f2efcf8c0d60405160405180910390a26111dd33612b70565b50565b6040805190810160405280600b81526020017f564f54494e475f434f494e00000000000000000000000000000000000000000081525081565b600081600a60003373ffffffffffffffffffffffffffffffffffffffff1673ffffffffffffffffffffffffffffffffffffffff16815260200190815260200160002054101515156112d2576040517f08c379a00000000000000000000000000000000000000000000000000000000081526004018080602001828103825260128152602001807f496e73756666696369656e742066756e6473000000000000000000000000000081525060200191505060405180910390fd5b81600b60003373ffffffffffffffffffffffffffffffffffffffff1673ffffffffffffffffffffffffffffffffffffffff16815260200190815260200160002060008573ffffffffffffffffffffffffffffffffffffffff1673ffffffffffffffffffffffffffffffffffffffff168152602001908152602001600020819055508273ffffffffffffffffffffffffffffffffffffffff163373ffffffffffffffffffffffffffffffffffffffff167f8c5be1e5ebec7d5bd14f71427d1e84f3dd0314c0f7b2291e5b200ac8c7c3b925846040518082815260200191505060405180910390a36001905092915050565b6008602052816000526040600020602052806000526040600020600091509150508054600181600116156101000203166002900480601f0160208091040260200160405190810160405280929190818152602001828054600181600116156101000203166002900480156114775780601f1061144c57610100808354040283529160200191611477565b820191906000526020600020905b81548152906001019060200180831161145a57829003601f168201915b505050505081565b60035481565b6000600260009054906101000a900473ffffffffffffffffffffffffffffffffffffffff1673ffffffffffffffffffffffffffffffffffffffff163373ffffffffffffffffffffffffffffffffffffffff16141515611572576040517f08c379a00000000000000000000000000000000000000000000000000000000081526004018080602001828103825260228152602001807f4f6e6c792041646d696e2063616e2063616c6c20746869732066756e6374696f81526020017f6e2e00000000000000000000000000000000000000000000000000000000000081525060400191505060405180910390fd5b600c54905080905090565b600a6020528060005260406000206000915090505481565b60006116886008600084815260200190815260200160002060003373ffffffffffffffffffffffffffffffffffffffff1673ffffffffffffffffffffffffffffffffffffffff1681526020019081526020016000208054600181600116156101000203166002900480601f01602080910402602001604051908101604052809291908181526020018280546001816001161561010002031660029004801561167e5780601f106116535761010080835404028352916020019161167e565b820191906000526020600020905b81548152906001019060200180831161166157829003601f168201915b5050505050612cc2565b14151561169457600080fd5b61169d33612cd3565b15156116a857600080fd5b816008600083815260200190815260200160002060003373ffffffffffffffffffffffffffffffffffffffff1673ffffffffffffffffffffffffffffffffffffffff168152602001908152602001600020908051906020019061170c929190612d69565b50600760008281526020019081526020016000206001016000815480929190600101919050555060015460076000838152602001908152602001600020600101541415611793576117926007600083815260200190815260200160002060020160009054906101000a900473ffffffffffffffffffffffffffffffffffffffff16612b70565b5b3373ffffffffffffffffffffffffffffffffffffffff16817f88085c10096cc135e6ad1e349dae731e044ffa7b1ce1375a9b992e099460cf5f60405160405180910390a35050565b6000602052806000526040600020600091509050806000015490806001018054600181600116156101000203166002900480601f01602080910402602001604051908101604052809291908181526020018280546001816001161561010002031660029004801561188d5780601f106118625761010080835404028352916020019161188d565b820191906000526020600020905b81548152906001019060200180831161187057829003601f168201915b505050505090806002018054600181600116156101000203166002900480601f01602080910402602001604051908101604052809291908181526020018280546001816001161561010002031660029004801561192b5780601f106119005761010080835404028352916020019161192b565b820191906000526020600020905b81548152906001019060200180831161190e57829003601f168201915b505050505090806003015490806004018054600181600116156101000203166002900480601f0160208091040260200160405190810160405280929190818152602001828054600181600116156101000203166002900480156119cf5780601f106119a4576101008083540402835291602001916119cf565b820191906000526020600020905b8154815290600101906020018083116119b257829003601f168201915b5050505050908060050160009054906101000a900473ffffffffffffffffffffffffffffffffffffffff16905086565b60045481565b6000600a60008373ffffffffffffffffffffffffffffffffffffffff1673ffffffffffffffffffffffffffffffffffffffff168152602001908152602001600020549050919050565b600c5481565b6000600a60008573ffffffffffffffffffffffffffffffffffffffff1673ffffffffffffffffffffffffffffffffffffffff168152602001908152602001600020548311151515611b0d576040517f08c379a00000000000000000000000000000000000000000000000000000000081526004018080602001828103825260128152602001807f496e73756666696369656e742066756e6473000000000000000000000000000081525060200191505060405180910390fd5b600083111515611bab576040517f08c379a00000000000000000000000000000000000000000000000000000000081526004018080602001828103825260218152602001807f43616e2774207472616e73666572206e6f6e2d706f737469766520616d6f756e81526020017f740000000000000000000000000000000000000000000000000000000000000081525060400191505060405180910390fd5b82600b60008673ffffffffffffffffffffffffffffffffffffffff1673ffffffffffffffffffffffffffffffffffffffff16815260200190815260200160002060003373ffffffffffffffffffffffffffffffffffffffff1673ffffffffffffffffffffffffffffffffffffffff1681526020019081526020016000205410151515611c9f576040517f08c379a000000000000000000000000000000000000000000000000000000000815260040180806020018281038252601b8152602001807f54686520616c6c6f77616e6365206973206e6f7420656e6f756768000000000081525060200191505060405180910390fd5b82600a60008673ffffffffffffffffffffffffffffffffffffffff1673ffffffffffffffffffffffffffffffffffffffff1681526020019081526020016000206000828254039250508190555082600a60008473ffffffffffffffffffffffffffffffffffffffff1673ffffffffffffffffffffffffffffffffffffffff168152602001908152602001600020600082825401925050819055508173ffffffffffffffffffffffffffffffffffffffff168473ffffffffffffffffffffffffffffffffffffffff167f814ba8b90e503048feb91c0ef0c273d06444da691eddd6e9b2e1687b63a6621b856040518082815260200191505060405180910390a3600190509392505050565b6000600a60003373ffffffffffffffffffffffffffffffffffffffff1673ffffffffffffffffffffffffffffffffffffffff168152602001908152602001600020548211151515611e88576040517f08c379a00000000000000000000000000000000000000000000000000000000081526004018080602001828103825260228152602001807f496e73756666696369656e742066756e64732c207472616e736665722066616981526020017f6c6400000000000000000000000000000000000000000000000000000000000081525060400191505060405180910390fd5b600082111515611f26576040517f08c379a00000000000000000000000000000000000000000000000000000000081526004018080602001828103825260348152602001807f596f752063616e2774207472616e73666572206e6f6e2d706f7374697665206381526020017f6f696e732c207472616e73666572206661696c6400000000000000000000000081525060400191505060405180910390fd5b81600a60003373ffffffffffffffffffffffffffffffffffffffff1673ffffffffffffffffffffffffffffffffffffffff1681526020019081526020016000206000828254039250508190555081600a60008573ffffffffffffffffffffffffffffffffffffffff1673ffffffffffffffffffffffffffffffffffffffff168152602001908152602001600020600082825401925050819055508273ffffffffffffffffffffffffffffffffffffffff163373ffffffffffffffffffffffffffffffffffffffff167f814ba8b90e503048feb91c0ef0c273d06444da691eddd6e9b2e1687b63a6621b846040518082815260200191505060405180910390a36001905092915050565b6000600660003373ffffffffffffffffffffffffffffffffffffffff1673ffffffffffffffffffffffffffffffffffffffff16815260200190815260200160002054905090565b6040805190810160405280600381526020017f53594d000000000000000000000000000000000000000000000000000000000081525081565b600260009054906101000a900473ffffffffffffffffffffffffffffffffffffffff1673ffffffffffffffffffffffffffffffffffffffff163373ffffffffffffffffffffffffffffffffffffffff1614151561219a576040517f08c379a00000000000000000000000000000000000000000000000000000000081526004018080602001828103825260228152602001807f4f6e6c792041646d696e2063616e2063616c6c20746869732066756e6374696f81526020017f6e2e00000000000000000000000000000000000000000000000000000000000081525060400191505060405180910390fd5b42600354111515612239576040517f08c379a000000000000000000000000000000000000000000000000000000000815260040180806020018281038252602e8152602001807f566f74696e672068617320737461727465642c2063616e20626f74206164642081526020017f6e65772063616e6469646174657300000000000000000000000000000000000081525060400191505060405180910390fd5b60016000815480929190600101919050555060c0604051908101604052806001548152602001858152602001848152602001600081526020018381526020018273ffffffffffffffffffffffffffffffffffffffff1681525060008060015481526020019081526020016000206000820151816000015560208201518160010190805190602001906122cc929190612de9565b5060408201518160020190805190602001906122e9929190612de9565b50606082015181600301556080820151816004019080519060200190612310929190612de9565b5060a08201518160050160006101000a81548173ffffffffffffffffffffffffffffffffffffffff021916908373ffffffffffffffffffffffffffffffffffffffff1602179055509050506001547fc22ca795484875f7eadd1e221ba864e7e2a22d346230f50c85f18e1af23bb72060405160405180910390a250505050565b60055481565b60015481565b60066020528060005260406000206000915090505481565b60095481565b600260009054906101000a900473ffffffffffffffffffffffffffffffffffffffff1673ffffffffffffffffffffffffffffffffffffffff163373ffffffffffffffffffffffffffffffffffffffff161415156124a5576040517f08c379a00000000000000000000000000000000000000000000000000000000081526004018080602001828103825260228152602001807f4f6e6c792041646d696e2063616e2063616c6c20746869732066756e6374696f81526020017f6e2e00000000000000000000000000000000000000000000000000000000000081525060400191505060405180910390fd5b81811180156124b357504282115b1515612527576040517f08c379a00000000000000000000000000000000000000000000000000000000081526004018080602001828103825260138152602001807f446174657320617265206e6f742076616c69640000000000000000000000000081525060200191505060405180910390fd5b600060035414801561253b57506001600454145b15156125af576040517f08c379a00000000000000000000000000000000000000000000000000000000081526004018080602001828103825260168152602001807f446174657320616c6c726561647920646566696e65640000000000000000000081525060200191505060405180910390fd5b81600381905550806004819055505050565b6007602052806000526040600020600091509050806000018054600181600116156101000203166002900480601f01602080910402602001604051908101604052809291908181526020018280546001816001161561010002031660029004801561266d5780601f106126425761010080835404028352916020019161266d565b820191906000526020600020905b81548152906001019060200180831161265057829003601f168201915b5050505050908060010154908060020160009054906101000a900473ffffffffffffffffffffffffffffffffffffffff16905083565b600454421080156126b657506003544210155b151561272a576040517f08c379a00000000000000000000000000000000000000000000000000000000081526004018080602001828103825260138152602001807f566f74696e672068617320737461727465642e0000000000000000000000000081525060200191505060405180910390fd5b6001600660003373ffffffffffffffffffffffffffffffffffffffff1673ffffffffffffffffffffffffffffffffffffffff168152602001908152602001600020541415156127e1576040517f08c379a00000000000000000000000000000000000000000000000000000000081526004018080602001828103825260178152602001807f5175657374696f6e2063616e27742062652061736b656400000000000000000081525060200191505060405180910390fd5b6009600081548092919060010191905055506002600660003373ffffffffffffffffffffffffffffffffffffffff1673ffffffffffffffffffffffffffffffffffffffff16815260200190815260200160002081905550606060405190810160405280828152602001600081526020013373ffffffffffffffffffffffffffffffffffffffff16815250600760006009548152602001908152602001600020600082015181600001908051906020019061289c929190612de9565b506020820151816001015560408201518160020160006101000a81548173ffffffffffffffffffffffffffffffffffffffff021916908373ffffffffffffffffffffffffffffffffffffffff1602179055509050506009547fdcf91e290e61751f7b1f2964247edbed637dfc351325882b6ec7dea381218bd460405160405180910390a250565b600260009054906101000a900473ffffffffffffffffffffffffffffffffffffffff1673ffffffffffffffffffffffffffffffffffffffff163373ffffffffffffffffffffffffffffffffffffffff16141515612a0e576040517f08c379a00000000000000000000000000000000000000000000000000000000081526004018080602001828103825260228152602001807f4f6e6c792041646d696e2063616e2063616c6c20746869732066756e6374696f81526020017f6e2e00000000000000000000000000000000000000000000000000000000000081525060400191505060405180910390fd5b42600354111515612aad576040517f08c379a000000000000000000000000000000000000000000000000000000000815260040180806020018281038252602e8152602001807f566f74696e672068617320737461727465642c2063616e20626f74206164642081526020017f6e65772063616e6469646174657300000000000000000000000000000000000081525060400191505060405180910390fd5b6001600660008373ffffffffffffffffffffffffffffffffffffffff1673ffffffffffffffffffffffffffffffffffffffff168152602001908152602001600020819055506005600081548092919060010191905055508073ffffffffffffffffffffffffffffffffffffffff167f0ad2eca75347acd5160276fe4b5dad46987e4ff4af9e574195e3e9bc15d7e0ff60405160405180910390a250565b600260009054906101000a900473ffffffffffffffffffffffffffffffffffffffff1681565b600554600c54811515612b7f57fe5b04600a60003373ffffffffffffffffffffffffffffffffffffffff1673ffffffffffffffffffffffffffffffffffffffff1681526020019081526020016000205403600a6000600260009054906101000a900473ffffffffffffffffffffffffffffffffffffffff1673ffffffffffffffffffffffffffffffffffffffff1673ffffffffffffffffffffffffffffffffffffffff16815260200190815260200160002081905550600554600202600c54811515612c3857fe5b04600a60008373ffffffffffffffffffffffffffffffffffffffff1673ffffffffffffffffffffffffffffffffffffffff168152602001908152602001600020819055508073ffffffffffffffffffffffffffffffffffffffff167f54699d2017b1aa2a78f187372a13d08a57be01c8ed421a22a2a9afdf315bcc4b60405160405180910390a250565b600060608290508051915050919050565b6000806001905060015481111515612d62578273ffffffffffffffffffffffffffffffffffffffff1660008083815260200190815260200160002060050160009054906101000a900473ffffffffffffffffffffffffffffffffffffffff1673ffffffffffffffffffffffffffffffffffffffff161415612d58576001915050612d64565b6000915050612d64565b505b919050565b828054600181600116156101000203166002900490600052602060002090601f016020900481019282601f10612daa57805160ff1916838001178555612dd8565b82800160010185558215612dd8579182015b82811115612dd7578251825591602001919060010190612dbc565b5b509050612de59190612e69565b5090565b828054600181600116156101000203166002900490600052602060002090601f016020900481019282601f10612e2a57805160ff1916838001178555612e58565b82800160010185558215612e58579182015b82811115612e57578251825591602001919060010190612e3c565b5b509050612e659190612e69565b5090565b612e8b91905b80821115612e87576000816000905550600101612e6f565b5090565b9056fea165627a7a7230582012408670c10ebaaac6311313ce539d83ec9b84e6eeb1504f07fd5f7ee246f3440029",
  "source": "pragma solidity ^0.5.0;\n\n\ncontract Voting {\n\t\n\t/* The struct (Candidates) has the follwoing attributes:\n\tInternal id, candidat name, candidat agenda, candidat voting counter, candidate pictuer */\n\tstruct Candidate {\n\t\tuint id;\n\t\tstring name;\n\t\tstring agenda;\n\t\tuint counter;\n\t\tstring candidatePictuer;\n\t\taddress candidateAddress;\n\t}\n\t\n\t// The mapping (candidates) is between candidate id to the candidates attributes\n\tmapping(uint => Candidate) public candidates;\n\t\n\t// Some variables:\n\tuint public numberOfCandidates; // Counter for the number of candidates\n\taddress public admin;\n\tuint public votingStartDate; // Voting start date\n\tuint public votingEndDate; // Voting end date\n\tuint public numberOfVoters; // Counter for the number of voters\n\n\tconstructor () public {\n\t\tadmin = msg.sender;\n\t\tvotingStartDate = 0;\n\t\tvotingEndDate = 1;\n\t\tvoterBalance[msg.sender] = votingCoinTotalSupply; //Needs to be removed to the Coin contract?????????\n\t}\n\n\t// The modifier (onlyAdmin) insure that only an admin can use the function\n\tmodifier onlyAdmin { \n        require( msg.sender == admin, \"Only Admin can call this function.\");_;}\n\n    // The modifier (whileVoting) limits changes after voting started (such as adding a candidate or adding voters)\n    modifier whileVoting {\n    \trequire(now < votingEndDate && now >= votingStartDate, \"Voting has started.\");_;}\n\n    // The modifier (beforeVotingStarted) insuer that now is prior to voting start date\n    modifier beforeVotingStarted {\n    \trequire( votingStartDate > now, \"Voting has started, can bot add new candidates\");_;}\n\n    /* The function (addingCandidate) is limited for admin use only (with the help of th onlyAdmin modifier)\n    and can be used only before voting starts (with the help of th beforeVotingStarted modifier), that is, adding a new\n    candidate sholud take place only before voting starts */\n\tfunction addingCandidate (string memory _name, string memory _agenda, string memory _picture, address _address) public onlyAdmin beforeVotingStarted { // Adding a new candidate to candidates mapping\t\t\n\t\tnumberOfCandidates++;\n\t\tcandidates[numberOfCandidates] = Candidate(numberOfCandidates, _name, _agenda, 0, _picture, _address);\n\t\temit AddingCandidate(numberOfCandidates);\n\t}\n\n\t// The function (defineVotingDates) is limited for admin use only (with the help of th onlyAdmin modifier)\n\tfunction defineVotingDates (uint _startDate, uint _endDate) public onlyAdmin  { \n\t\trequire ( _endDate > _startDate && _startDate > now, \"Dates are not valid\");\n\t\trequire (votingStartDate == 0 && votingEndDate == 1, \"Dates allready defined\"); // Dates can be defined only once\n\t\tvotingStartDate = _startDate;\n\t\tvotingEndDate = _endDate;\n\t}\n\t\n\t/* The mapping (voters) is between the voter address and {0,1,2}.\n\t\"0\" stands for no voting rights\n\t\"1\" stands for the user has a voting & qestion rights that wasn't exercised\n\t\"2\" stands for the user has a voting but asked a quedstion\n\t\"3\" stands for the user has voted */\n\tmapping(address => uint) public voters;\n\n\t/* The function (vote) can be used only while voting time period (with the help of th whileVoting modifier), \n\tit insure the user has voting rights and didn't use them allredy, and pay the voter after he votes. With the\n\tfirst require we insure that voter didn't vote in the past and has the right to vote. The seconde require\n\tinsure that the candidate exites */\n\tfunction vote (uint _candidateId) public whileVoting {\n\t\trequire(voters[msg.sender] >= 1 && voters[msg.sender] <= 2, \"You can not vote, you voted in the past, or you do not have the right to vote\");\n\t\trequire(_candidateId > 0 && _candidateId <= numberOfCandidates, \"This candidate doesn't exist\");\n\t\tcandidates[_candidateId].counter ++; // Increase candidate counter\n\t\tvoters[msg.sender] = 3; // Update users status\n        emit VotingTookPlace(_candidateId);\n        getPaid(msg.sender); // after coin is good\n\t}\n\n\t/* The function (addVoter) is limited for admin use only (with the help of th onlyAdmin modifier)\n    and can be used only before voting starts (with the help of th beforeVotingStarted modifier), that is, adding a new\n    voter sholud take place only before voting starts */\n\tfunction addVoter (address _voter) public onlyAdmin beforeVotingStarted {\n\t\tvoters[_voter] = 1;\n\t\tnumberOfVoters++;\n\t\temit AddVoter(_voter);\n\t}\n\n\t// The function (voterStatus) will return the voting status of the sender {0,1,2}\n\tfunction voterStatus () public view returns (uint status) {\n\t\treturn (voters[msg.sender]);\n\t}\n\n\t/* The function (getPaid) will rewared any voter which is entitle, that is, either the voter voted or\n\the asked a question were all candidates answered */\n\tfunction getPaid (address _receiver) private {\n\t\tvoterBalance[admin] = voterBalance[msg.sender] - votingCoinTotalSupply/numberOfVoters;\n\t\tvoterBalance[_receiver] = votingCoinTotalSupply/(2*numberOfVoters);\n\t\temit VoterGotPaidForVoting(_receiver);\n\t}\n\n\t/* The function (balanceOf) returns the number of tokens that a particular address, \n\tin this case, the contract owner, has in their account. */\n\tfunction balanceOf (address _coinOwner) public view returns (uint) {\n\t\treturn voterBalance[_coinOwner];\n\t}\n\n\tevent VoterGotPaidForVoting (address indexed receiver);\n\tevent VotingTookPlace (uint indexed candidateId);\n\tevent AddingCandidate (uint indexed candidateId);\n\tevent AddVoter (address indexed voter);\n\n//----------------------------------------------------------------------------------------------------------------------------//\n\t/* Bonus part: Questions from voters and answers candidates. \n\tIn order to encourage vote, debate and contact with candidates we thought about a mechanism of questions and answers\n\tEach voter, after voting started, has the right to ask all candidates one question, \n\tif all candidates answered this questions (that is the question was relevent) the voter receives a reward (coin).*/\n\n\t// The mapping is between question id to question struct\n\tmapping (uint => Question) public questionList;\n\t// The mapping is between questions and answers\n\tmapping (uint => mapping (address => string)) public answerList;\n\t\n\t/* The struct (Question) has the follwoing attributes:\n\tquestion, counter of answers, questioner address */\n\tstruct Question {\n\t\tstring question;\n\t\tuint answerCounter;\n\t\taddress questioner;\n\t}\n\n\tuint public numberOfQuestions; // Counter for the number of questions been asked\n\n\t/* The function (addQuestion) can be used only while voting time period (with the help of th whileVoting modifier),\n\tit insure that the voter has voting & question rights, saves the question and update the counter */\n\tfunction addQuestion (string memory _question) public whileVoting {\n\t\trequire(voters[msg.sender] == 1, \"Question can't be asked\"); // make sure he has voting & asking rights\n\t\tnumberOfQuestions++;\n\t\tvoters[msg.sender] = 2; // mark he asked a question\n\t\tquestionList[numberOfQuestions] = Question(_question, 0, msg.sender);\n\t\temit NewQuestion(numberOfQuestions);\n\t}\n\n\t/* The function (addAnswer) can be used only be used only by candidates (with the help of isCandidate function),\n\tinsure that the candidate didn't answer in the past, updates the answers, and check if the questioner\n\tentitled to the reward */\n\tfunction addAnswer (string memory _answer, uint _questionId) public {\n\t\trequire(getStringLength(answerList[_questionId][msg.sender]) == 0); // make sure he didn't answered this question\n\t\trequire(isCandidate(msg.sender)); // make sure he is a candidate\n\t\tanswerList[_questionId][msg.sender] = _answer; // save answer of the candidate\n\t\tquestionList[_questionId].answerCounter++; // increase by 1 the answer counter\n\t\tif (questionList[_questionId].answerCounter == numberOfCandidates) { // if answer counter == number of candidates => pay the voter\n\t\t\tgetPaid(questionList[_questionId].questioner);\n\t\t}\n\t\temit NewAnswer(_questionId, msg.sender);\n\n\t}\n\n\tfunction getStringLength (string memory _string) private pure returns(uint _length) {\n\t\tbytes memory helper = bytes(_string);\n\t\treturn (helper.length);\n\t}\n\n\tfunction isCandidate (address _helper) private view returns(bool ok) {\n\t\tfor (uint i = 1; i <= numberOfCandidates; i++) {\n\t\t\tif (candidates[i].candidateAddress == _helper) {\n\t\t\t\treturn(true);\n\t\t\t} else {\n\t\t\t\treturn(false);\n\t\t\t}\n\t\t}\n\t}\n\n\tevent NewQuestion (uint indexed questionId);\n\tevent NewAnswer (uint indexed questionId, address indexed candidateId);\n//--------------------------------------------------------------------------------------------------------------------------------//\n\n\t// Token name\n\tstring public constant name = \"VOTING_COIN\";\n\t// Token symbol\n\tstring public constant symbol = \"SYM\"; // need to add!!!!!!!!!!\n\t/*\n\tDecimal (up to 18) A divisibility of 0 mean lowest value of the token is 1. divisibility of 2 means lowest value 0.01\n\tuint8 public constant decimals = 18;\n\t*/ //?????????????????????????????\n\n\t// Mapping (voterBalance) keys to token balances of a voter\n\tmapping(address => uint) public voterBalance;\n\n\t// Mapping (allowed) addresses of coin owners to those who are allowed to utilize the owner's coins\n\tmapping(address => mapping (address => uint)) allowed;\n\n\t//ERC20 total supply of coins\n\tuint public votingCoinTotalSupply = 6262019;\n\n\t/*\n\tThe totalSupply function identifies the total number of ERC-20 tokens created\n\t*/\n\tfunction totalSupply () public view onlyAdmin returns (uint theTotalSupply) {\n\t\ttheTotalSupply = votingCoinTotalSupply;\n\t\treturn (theTotalSupply);\n\t}\n\n\t/*\n\tThe function (approve) checkes the balance and after it has been checked, the contract owner can give \n\ttheir approval to the user to collect the required number of tokens from the contracts address.\n\tNeed to add to the limitions presention, once a user has allwoed someone some amount of coins, \n\the can only change that allwoed amount and can't add.\n\t*/\n\tfunction approve (address _spender, uint _amount) public returns (bool success) {\n\t\trequire( voterBalance[msg.sender] >= _amount, \"Insufficient funds\");\n\t\tallowed[msg.sender][_spender] = _amount;\n\t\temit Approval(msg.sender, _spender, _amount);\n\t\treturn (true);\n\t}\n\n\tevent Approval(address indexed coinOwner, address indexed spender, uint amount);\n\n\t/*\n\tThe function (transferCoin) is used to move an amount of tokens from the owners balance to that of another user (receiver)\n\t*/\n\tfunction transferCoin (address _receiver, uint _amount) public returns (bool success) { // The purpose of the function is to enable transfer of funds from one user to another\n\t\trequire(_amount <= voterBalance[msg.sender], \"Insufficient funds, transfer faild\"); // Insure that the sender has enough coins\n\t\trequire(_amount > 0 , \"You can't transfer non-postive coins, transfer faild\"); \n\t\tvoterBalance[msg.sender] -= _amount; // Update sender acount\n\t\tvoterBalance[_receiver] += _amount; // Update receiver avount\n\t\temit CoinsWereTransfer(msg.sender, _receiver, _amount);\n\t\treturn (true);\n\t}\n\n\t/*\n\tThe function (allowance) is used to check the amount (if any) was allwoed by a user (allocator) to a spender.\n\t*/\n\tfunction allowance (address _allocator, address _spender) private view returns (uint _amountAllowed) {\n\t\treturn (allowed[_allocator][_spender]);\n\t}\n\n\t/*\n\tThe function (transferFrom) allows the a user to transfer the allowed coins by the _allocator (if allwoed) and to \n\ttransfer it to any other account.\n\t*/\n\tfunction transferFrom (address _allocator, uint _amount, address _receiver) public returns (bool success) {\n\t\trequire(_amount <= voterBalance[_allocator], \"Insufficient funds\"); // insure the _allocator has the amount\n\t\trequire(_amount > 0, \"Can't transfer non-postive amount\");\n\t\trequire(allowed[_allocator][msg.sender] >= _amount, \"The allowance is not enough\");\n\t\tvoterBalance[_allocator] -= _amount;\n\t\tvoterBalance[_receiver] += _amount;\n\t\temit CoinsWereTransfer(_allocator, _receiver, _amount);\n\t\treturn (true);\n\t}\n\n\tevent CoinsWereTransfer(address indexed sender, address indexed receiver, uint amount);\n\n}\n\n\n\n\n\n/* \nTasks for Tom:\n\n3. Presention\n\t3.1. add to the presention, after closing the smart contract with Daniel the following:\n\t\t3.1.1. Structs\n\t\t3.1.2. Mappings\n\t\t3.1.3. Modifiers\n\t\t3.1.4. Functions\n\t\t3.1.5. State Variables\n\t\t3.1.6. Events\n\t3.2. Add Installation instructions - after we are done\n\t3.3. Add demonstration video - after we are done\n\t3.4. Add known bugs - after we are done\n4. bonos something nice\n5. read about how truffle works with respect to migrations\n*/\n",
  "sourcePath": "/Users/tomkatz/blockchain/Final_Project/election-2019_update/contracts/Voting.sol",
  "compiler": {
    "name": "solc",
    "version": "0.5.0+commit.1d4f565a.Emscripten.clang"
  },
  "schemaVersion": "3.0.11",
  "updatedAt": "2019-07-22T10:32:41.071Z",
  "devdoc": {
    "methods": {}
  },
  "userdoc": {
    "methods": {}
  }
}