{
  "contractName": "Voting",
  "abi": [
    {
      "constant": true,
      "inputs": [],
      "name": "votingStartDate",
      "outputs": [
        {
          "name": "",
          "type": "uint256"
        }
      ],
      "payable": false,
      "stateMutability": "view",
      "type": "function"
    },
    {
      "constant": true,
      "inputs": [
        {
          "name": "",
          "type": "address"
        }
      ],
      "name": "voterBalance",
      "outputs": [
        {
          "name": "",
          "type": "uint256"
        }
      ],
      "payable": false,
      "stateMutability": "view",
      "type": "function"
    },
    {
      "constant": true,
      "inputs": [],
      "name": "votingCoinTotalAmount",
      "outputs": [
        {
          "name": "",
          "type": "uint256"
        }
      ],
      "payable": false,
      "stateMutability": "view",
      "type": "function"
    },
    {
      "constant": true,
      "inputs": [
        {
          "name": "",
          "type": "uint256"
        }
      ],
      "name": "candidates",
      "outputs": [
        {
          "name": "id",
          "type": "uint256"
        },
        {
          "name": "name",
          "type": "string"
        },
        {
          "name": "agenda",
          "type": "string"
        },
        {
          "name": "counter",
          "type": "uint256"
        }
      ],
      "payable": false,
      "stateMutability": "view",
      "type": "function"
    },
    {
      "constant": true,
      "inputs": [],
      "name": "votingEndDate",
      "outputs": [
        {
          "name": "",
          "type": "uint256"
        }
      ],
      "payable": false,
      "stateMutability": "view",
      "type": "function"
    },
    {
      "constant": true,
      "inputs": [],
      "name": "numberOfVoters",
      "outputs": [
        {
          "name": "",
          "type": "uint256"
        }
      ],
      "payable": false,
      "stateMutability": "view",
      "type": "function"
    },
    {
      "constant": true,
      "inputs": [],
      "name": "numberOfCandidates",
      "outputs": [
        {
          "name": "",
          "type": "uint256"
        }
      ],
      "payable": false,
      "stateMutability": "view",
      "type": "function"
    },
    {
      "constant": true,
      "inputs": [
        {
          "name": "",
          "type": "address"
        }
      ],
      "name": "voters",
      "outputs": [
        {
          "name": "",
          "type": "uint256"
        }
      ],
      "payable": false,
      "stateMutability": "view",
      "type": "function"
    },
    {
      "constant": true,
      "inputs": [],
      "name": "admin",
      "outputs": [
        {
          "name": "",
          "type": "address"
        }
      ],
      "payable": false,
      "stateMutability": "view",
      "type": "function"
    },
    {
      "inputs": [],
      "payable": false,
      "stateMutability": "nonpayable",
      "type": "constructor"
    },
    {
      "anonymous": false,
      "inputs": [],
      "name": "votingEvent",
      "type": "event"
    },
    {
      "anonymous": false,
      "inputs": [],
      "name": "candidateEvent",
      "type": "event"
    },
    {
      "anonymous": false,
      "inputs": [],
      "name": "addVoterEvent",
      "type": "event"
    },
    {
      "anonymous": false,
      "inputs": [],
      "name": "voterGotPaidForVoting",
      "type": "event"
    },
    {
      "constant": false,
      "inputs": [
        {
          "name": "_name",
          "type": "string"
        },
        {
          "name": "_agenda",
          "type": "string"
        }
      ],
      "name": "addingCandidate",
      "outputs": [],
      "payable": false,
      "stateMutability": "nonpayable",
      "type": "function"
    },
    {
      "constant": false,
      "inputs": [
        {
          "name": "_startDate",
          "type": "uint256"
        },
        {
          "name": "_endDate",
          "type": "uint256"
        }
      ],
      "name": "defineVotingDates",
      "outputs": [],
      "payable": false,
      "stateMutability": "nonpayable",
      "type": "function"
    },
    {
      "constant": false,
      "inputs": [
        {
          "name": "_candidateId",
          "type": "uint256"
        }
      ],
      "name": "vote",
      "outputs": [],
      "payable": false,
      "stateMutability": "nonpayable",
      "type": "function"
    },
    {
      "constant": false,
      "inputs": [
        {
          "name": "_voter",
          "type": "address"
        }
      ],
      "name": "addVoter",
      "outputs": [],
      "payable": false,
      "stateMutability": "nonpayable",
      "type": "function"
    },
    {
      "constant": true,
      "inputs": [],
      "name": "voterStatus",
      "outputs": [
        {
          "name": "status",
          "type": "uint256"
        }
      ],
      "payable": false,
      "stateMutability": "view",
      "type": "function"
    },
    {
      "constant": true,
      "inputs": [
        {
          "name": "coinOwner",
          "type": "address"
        }
      ],
      "name": "balanceOf",
      "outputs": [
        {
          "name": "",
          "type": "uint256"
        }
      ],
      "payable": false,
      "stateMutability": "view",
      "type": "function"
    }
  ],
  "bytecode": "0x608060405261027260065534801561001657600080fd5b5033600260006101000a81548173ffffffffffffffffffffffffffffffffffffffff021916908373ffffffffffffffffffffffffffffffffffffffff16021790555060006003819055506001600481905550600654600860003373ffffffffffffffffffffffffffffffffffffffff1673ffffffffffffffffffffffffffffffffffffffff168152602001908152602001600020819055506113e7806100bd6000396000f3fe6080604052600436106100db576000357c0100000000000000000000000000000000000000000000000000000000900463ffffffff1680630121b93f146100e0578063171254661461011b5780631a676967146101465780631f43498f146101ab5780632999cea31461030a5780633477ee2e1461033557806353981fe11461046357806370a082311461048e578063908ea91d146104f35780639bcc33611461051e5780639c84bb2714610549578063a3ec138d14610574578063c74e9b77146105d9578063f4ab9adf1461061e578063f851a4401461066f575b600080fd5b3480156100ec57600080fd5b506101196004803603602081101561010357600080fd5b81019080803590602001909291905050506106c6565b005b34801561012757600080fd5b5061013061090d565b6040518082815260200191505060405180910390f35b34801561015257600080fd5b506101956004803603602081101561016957600080fd5b81019080803573ffffffffffffffffffffffffffffffffffffffff169060200190929190505050610913565b6040518082815260200191505060405180910390f35b3480156101b757600080fd5b50610308600480360360408110156101ce57600080fd5b81019080803590602001906401000000008111156101eb57600080fd5b8201836020820111156101fd57600080fd5b8035906020019184600183028401116401000000008311171561021f57600080fd5b91908080601f016020809104026020016040519081016040528093929190818152602001838380828437600081840152601f19601f8201169050808301925050505050505091929192908035906020019064010000000081111561028257600080fd5b82018360208201111561029457600080fd5b803590602001918460018302840111640100000000831117156102b657600080fd5b91908080601f016020809104026020016040519081016040528093929190818152602001838380828437600081840152601f19601f82011690508083019250505050505050919291929050505061092b565b005b34801561031657600080fd5b5061031f610b81565b6040518082815260200191505060405180910390f35b34801561034157600080fd5b5061036e6004803603602081101561035857600080fd5b8101908080359060200190929190505050610b87565b604051808581526020018060200180602001848152602001838103835286818151815260200191508051906020019080838360005b838110156103be5780820151818401526020810190506103a3565b50505050905090810190601f1680156103eb5780820380516001836020036101000a031916815260200191505b50838103825285818151815260200191508051906020019080838360005b83811015610424578082015181840152602081019050610409565b50505050905090810190601f1680156104515780820380516001836020036101000a031916815260200191505b50965050505050505060405180910390f35b34801561046f57600080fd5b50610478610ce7565b6040518082815260200191505060405180910390f35b34801561049a57600080fd5b506104dd600480360360208110156104b157600080fd5b81019080803573ffffffffffffffffffffffffffffffffffffffff169060200190929190505050610ced565b6040518082815260200191505060405180910390f35b3480156104ff57600080fd5b50610508610d36565b6040518082815260200191505060405180910390f35b34801561052a57600080fd5b50610533610d7d565b6040518082815260200191505060405180910390f35b34801561055557600080fd5b5061055e610d83565b6040518082815260200191505060405180910390f35b34801561058057600080fd5b506105c36004803603602081101561059757600080fd5b81019080803573ffffffffffffffffffffffffffffffffffffffff169060200190929190505050610d89565b6040518082815260200191505060405180910390f35b3480156105e557600080fd5b5061061c600480360360408110156105fc57600080fd5b810190808035906020019092919080359060200190929190505050610da1565b005b34801561062a57600080fd5b5061066d6004803603602081101561064157600080fd5b81019080803573ffffffffffffffffffffffffffffffffffffffff169060200190929190505050610fa8565b005b34801561067b57600080fd5b506106846111b8565b604051808273ffffffffffffffffffffffffffffffffffffffff1673ffffffffffffffffffffffffffffffffffffffff16815260200191505060405180910390f35b600454421080156106d957506003544210155b151561074d576040517f08c379a00000000000000000000000000000000000000000000000000000000081526004018080602001828103825260138152602001807f566f74696e672068617320737461727465642e0000000000000000000000000081525060200191505060405180910390fd5b6001600760003373ffffffffffffffffffffffffffffffffffffffff1673ffffffffffffffffffffffffffffffffffffffff16815260200190815260200160002054141515610850576040517f08c379a000000000000000000000000000000000000000000000000000000000815260040180806020018281038252604d8152602001807f596f752063616e206e6f7420766f74652c20796f7520766f74656420696e207481526020017f686520706173742c206f7220796f7520646f206e6f742068617665207468652081526020017f726967687420746f20766f74650000000000000000000000000000000000000081525060600191505060405180910390fd5b60008111801561086257506001548111155b151561086d57600080fd5b600080828152602001908152602001600020600301600081548092919060010191905055506002600760003373ffffffffffffffffffffffffffffffffffffffff1673ffffffffffffffffffffffffffffffffffffffff16815260200190815260200160002050507f2ecb17605c331704bc33443e23cd8561815430eb5f28f195e53d9ba65b1d796560405160405180910390a161090a336111de565b50565b60035481565b60086020528060005260406000206000915090505481565b600260009054906101000a900473ffffffffffffffffffffffffffffffffffffffff1673ffffffffffffffffffffffffffffffffffffffff163373ffffffffffffffffffffffffffffffffffffffff16141515610a16576040517f08c379a00000000000000000000000000000000000000000000000000000000081526004018080602001828103825260228152602001807f4f6e6c792041646d696e2063616e2063616c6c20746869732066756e6374696f81526020017f6e2e00000000000000000000000000000000000000000000000000000000000081525060400191505060405180910390fd5b42600354111515610ab5576040517f08c379a000000000000000000000000000000000000000000000000000000000815260040180806020018281038252602e8152602001807f566f74696e672068617320737461727465642c2063616e20626f74206164642081526020017f6e65772063616e6469646174657300000000000000000000000000000000000081525060400191505060405180910390fd5b600160008154809291906001019190505550608060405190810160405280600154815260200183815260200182815260200160008152506000806001548152602001908152602001600020600082015181600001556020820151816001019080519060200190610b26929190611316565b506040820151816002019080519060200190610b43929190611316565b50606082015181600301559050507f1a44376fb865e5ddf24c81451a65ad14426e2acfe1a571d003e538e9d2bf737660405160405180910390a15050565b60065481565b6000602052806000526040600020600091509050806000015490806001018054600181600116156101000203166002900480601f016020809104026020016040519081016040528092919081815260200182805460018160011615610100020316600290048015610c395780601f10610c0e57610100808354040283529160200191610c39565b820191906000526020600020905b815481529060010190602001808311610c1c57829003601f168201915b505050505090806002018054600181600116156101000203166002900480601f016020809104026020016040519081016040528092919081815260200182805460018160011615610100020316600290048015610cd75780601f10610cac57610100808354040283529160200191610cd7565b820191906000526020600020905b815481529060010190602001808311610cba57829003601f168201915b5050505050908060030154905084565b60045481565b6000600860008373ffffffffffffffffffffffffffffffffffffffff1673ffffffffffffffffffffffffffffffffffffffff168152602001908152602001600020549050919050565b6000600760003373ffffffffffffffffffffffffffffffffffffffff1673ffffffffffffffffffffffffffffffffffffffff16815260200190815260200160002054905090565b60055481565b60015481565b60076020528060005260406000206000915090505481565b600260009054906101000a900473ffffffffffffffffffffffffffffffffffffffff1673ffffffffffffffffffffffffffffffffffffffff163373ffffffffffffffffffffffffffffffffffffffff16141515610e8c576040517f08c379a00000000000000000000000000000000000000000000000000000000081526004018080602001828103825260228152602001807f4f6e6c792041646d696e2063616e2063616c6c20746869732066756e6374696f81526020017f6e2e00000000000000000000000000000000000000000000000000000000000081525060400191505060405180910390fd5b8181118015610e9a57504282115b1515610f0e576040517f08c379a00000000000000000000000000000000000000000000000000000000081526004018080602001828103825260138152602001807f446174657320617265206e6f742076616c69640000000000000000000000000081525060200191505060405180910390fd5b6000600354148015610f2257506001600454145b1515610f96576040517f08c379a00000000000000000000000000000000000000000000000000000000081526004018080602001828103825260168152602001807f446174657320616c6c726561647920646566696e65640000000000000000000081525060200191505060405180910390fd5b81600381905550806004819055505050565b600260009054906101000a900473ffffffffffffffffffffffffffffffffffffffff1673ffffffffffffffffffffffffffffffffffffffff163373ffffffffffffffffffffffffffffffffffffffff16141515611093576040517f08c379a00000000000000000000000000000000000000000000000000000000081526004018080602001828103825260228152602001807f4f6e6c792041646d696e2063616e2063616c6c20746869732066756e6374696f81526020017f6e2e00000000000000000000000000000000000000000000000000000000000081525060400191505060405180910390fd5b42600354111515611132576040517f08c379a000000000000000000000000000000000000000000000000000000000815260040180806020018281038252602e8152602001807f566f74696e672068617320737461727465642c2063616e20626f74206164642081526020017f6e65772063616e6469646174657300000000000000000000000000000000000081525060400191505060405180910390fd5b6001600760008373ffffffffffffffffffffffffffffffffffffffff1673ffffffffffffffffffffffffffffffffffffffff168152602001908152602001600020819055506005600081548092919060010191905055507f30d89b3fc2959064943c13498a5b7a72382958281394654899a668c9368c508260405160405180910390a150565b600260009054906101000a900473ffffffffffffffffffffffffffffffffffffffff1681565b6005546006548115156111ed57fe5b04600860003373ffffffffffffffffffffffffffffffffffffffff1673ffffffffffffffffffffffffffffffffffffffff168152602001908152602001600020540360086000600260009054906101000a900473ffffffffffffffffffffffffffffffffffffffff1673ffffffffffffffffffffffffffffffffffffffff1673ffffffffffffffffffffffffffffffffffffffff168152602001908152602001600020819055506005546006548115156112a357fe5b04600860008373ffffffffffffffffffffffffffffffffffffffff1673ffffffffffffffffffffffffffffffffffffffff168152602001908152602001600020819055507fc5dbc911dcd4757ad69e0323a0084b7923c300df15fd55c6154ccec1787cfc4760405160405180910390a150565b828054600181600116156101000203166002900490600052602060002090601f016020900481019282601f1061135757805160ff1916838001178555611385565b82800160010185558215611385579182015b82811115611384578251825591602001919060010190611369565b5b5090506113929190611396565b5090565b6113b891905b808211156113b457600081600090555060010161139c565b5090565b9056fea165627a7a72305820fed31b9f09c1e9e6d89820b7a4c231e6fb14094b667559b56378fd4b9eb6bb810029",
  "source": "pragma solidity ^0.5.0;\n\n\ncontract Voting {\n\n\tstruct Candidate { // Candidates attributes:\n\t\tuint id;\n\t\tstring name; // Candidate first and last name\n\t\tstring agenda; // Candidate election agenda\n\t\tuint counter; // Candidate voting count\n\t}\n\n\tmapping(uint => Candidate) public candidates;\n\t\n\tuint public numberOfCandidates;\n\taddress public admin; \n\tuint public votingStartDate; // Voting start date\n\tuint public votingEndDate; // Voting end date\n\tuint public numberOfVoters;\n\tuint public votingCoinTotalAmount = 626; //ERC20 total amount of coins\n\n\tconstructor () public {\n\t\tadmin = msg.sender;\n\t\tvotingStartDate = 0;\n\t\tvotingEndDate = 1;\n\t\tvoterBalance[msg.sender] = votingCoinTotalAmount;\n\t}\n\n\tmodifier onlyAdmin { // Insure only admin can use a function\n        require( msg.sender == admin, \"Only Admin can call this function.\");\n        _;\n    }\n    modifier whileVoting { // Limits changes after voting started (such as adding a candidate or adding voters)\n    \trequire(now < votingEndDate && now >= votingStartDate, \"Voting has started.\");\n    \t_;\n    }\n    modifier beforeVotingStarted {\n    \trequire( votingStartDate > now, \"Voting has started, can bot add new candidates\");\n    \t_;\n    }\n\n\tfunction addingCandidate (string memory _name, string memory _agenda) public onlyAdmin beforeVotingStarted { // Adding a new candidate to candidates mapping\t\t\n\t\tnumberOfCandidates++;\n\t\tcandidates[numberOfCandidates] = Candidate(numberOfCandidates, _name, _agenda, 0);\n\t\temit candidateEvent(); // Event for adding a new candidate\n\t}\n\n\tfunction defineVotingDates (uint _startDate, uint _endDate) public onlyAdmin  { \n\t\trequire ( _endDate > _startDate && _startDate > now, \"Dates are not valid\");\n\t\trequire (votingStartDate == 0 && votingEndDate == 1, \"Dates allready defined\"); // Dates can be defined only once\n\t\tvotingStartDate = _startDate;\n\t\tvotingEndDate = _endDate;\n\t}\n\t\n\tmapping(address => uint) public voters;\n\n\tfunction vote (uint _candidateId) public whileVoting {\n\t\trequire(voters[msg.sender] == 1, \"You can not vote, you voted in the past, or you do not have the right to vote\"); // Insure that voter didn't vote and has the right\n\t\trequire(_candidateId > 0 && _candidateId <= numberOfCandidates); // Insure that the candidate exites\n\t\tcandidates[_candidateId].counter ++; // Increase candidate counter by one\n\t\tvoters[msg.sender] == 2; // 2 represent voter voted in the past\n        emit votingEvent(); // Event for a voter that voted\n        getPaidForVoting(msg.sender);\n        // add transefer function\n\n\t}\n\n\tevent votingEvent (\n\t\t);\n\n\tevent candidateEvent (\n\t\t);\n\n\tfunction addVoter (address _voter) public onlyAdmin beforeVotingStarted {\n\t\tvoters[_voter] = 1;\n\t\tnumberOfVoters++;\n\t\temit addVoterEvent();\n\t}\n\n\tevent addVoterEvent (\n\t\t);\n\n\tfunction voterStatus () public view returns (uint status) {\n\t\treturn (voters[msg.sender]);\n\t}\n\n\tmapping(address => uint) public voterBalance; // mapping keys to token balances of a voter.\n\n\tfunction balanceOf(address coinOwner) public view returns (uint) {\n\t\treturn voterBalance[coinOwner];\n\t}\n\n\tfunction getPaidForVoting(address receiver) private {\n\t\tvoterBalance[admin] = voterBalance[msg.sender] - votingCoinTotalAmount/numberOfVoters;\n\t\tvoterBalance[receiver] = votingCoinTotalAmount/numberOfVoters;\n\t\temit voterGotPaidForVoting();\n\t}\n\n\tevent voterGotPaidForVoting (\n\t\t);\n\n}\n\n\n\n\n\n/* \nTasks for Tom:\n\n2. ERC20\n3. Presention\n\t3.1. add to the presention, after closing the smart contract with Daniel the following:\n\t\t3.1.1. Structs\n\t\t3.1.2. Mappings\n\t\t3.1.3. Modifiers\n\t\t3.1.4. Functions\n\t\t3.1.5. State Variables\n\t\t3.1.6. Events\n\t3.2. Add Installation instructions - after we are done\n\t3.3. Add demonstration video - after we are done\n\t3.4. Add known bugs - after we are done\n4. bonos something nice\n5. read about how truffle works with respect to migrations\n6. aading a real voters book \n7. check if you can use a real live photo insted of privte key\n*/\n",
  "sourcePath": "/Users/tomkatz/blockchain/Final_Project/election-2019_update/contracts/Voting.sol",
  "compiler": {
    "name": "solc",
    "version": "0.5.0+commit.1d4f565a.Emscripten.clang"
  },
  "schemaVersion": "3.0.11",
  "updatedAt": "2019-07-20T12:46:45.089Z",
  "devdoc": {
    "methods": {}
  },
  "userdoc": {
    "methods": {}
  }
}